:020000040800F2
:1000000020190020919B0008C1980008E39800087F
:1000100000000000000000000000000000000000E0
:10002000000000000000000000000000E798000849
:100030000000000000000000E9980008894A00085C
:100040004F42000800000000BF4400083B4B00087E
:100050000B960008A5690008FF560008A96A000869
:10006000000000003F5900087F6D0008C5400008EF
:10007000DB6D00083B6F00080772000800000000FD
:10008000EB72000800000000000000005119000899
:10009000738500080B9300084F960008EB98000842
:1000A000CF990008DB9900089D9D000829400008B1
:1000B000E93E0008F1B5A4B015001F00069104AC9C
:1000C0000020E0620AE00698249A904706900028F3
:1000D00000D103E3E06A401CE0626D1C297800292E
:1000E00001D1E06AFCE22529EDD100206061A06128
:1000F000E06120626062A06202E00100012008432A
:100100006D1C29782029F8D023290ED02B2904D062
:100110002D2907D030290BD00DE001000220084323
:1001200080B2EDE701000420F9E701000820F6E7BE
:1001300001001020F3E72A290ED139680A1D3A6020
:1001400009686163002905D54A4262630100042001
:10015000084380B26D1C12E0002161630AE0626B0B
:10016000734B9A4205D093009A18520051183039B7
:1001700061636D1C29780A00303A0A2AEFD3297886
:100180002E2903D00021C94321631DE06D1C29786D
:100190002A2906D139680A1D3A60096821636D1C55
:1001A00012E0002121630AE0226B614B9A4205D0E4
:1001B00093009A1852005118303921636D1C297828
:1001C0000A00303A0A2AEFD3208729785748784422
:1001D000FF305B3000F0B9FE002801D028786D1C9C
:1001E0003A216054605C682804D12978682901D1DB
:1001F000622005E06C2806D128786C2803D1712094
:100200003A2160546D1C15A820612A781000253809
:100210002AD01C3800D1CEE0001F022800D8CAE046
:10022000133800D1F2E0093800D1C4E0801E00D1BB
:1002300089E1401E00D132E1401E022800D8BAE018
:10024000001F00D12BE1401F00D18AE0401E00D1E9
:10025000DCE0401E23D0C01E0BD0801E00D1D5E0B4
:10026000C01E00D1D2E078E16069411C61612521A6
:1002700070E13868011D39600068E060226B002A77
:1002800002D500F06CFE08E0002100F070FE0028AE
:1002900002D0E168401A00E0206BA0616AE1386892
:1002A000011D396002680020C0430021104004AAEB
:1002B00003C215A8E0603C2204A803C802AB03C334
:1002C00002A803C8002904D1002802D1206B00280D
:1002D0001CD0521E02A803C80007000F3030C0B265
:1002E0003A2800DB273015A98B18187002A803C81C
:1002F00000090E073043090902AE03C602A803C86D
:1003000001D1002802D0E0689842E2D33C20801A54
:10031000A06115A98918E160216B88420CDA081ADE
:100320002062208F03490140218723E17C97000050
:10033000FFFFFF7FEFFF0000002900D41AE1382102
:10034000615C14220A40102A00D013E1616B6269DB
:10035000891A226A891A0A1A012A00DA0AE1226233
:1003600008E13A20205C622817D0682806D06A2865
:100370000BD06C2818D0712807D015E03868011D03
:100380003960E16A00680180F4E03A68101D386065
:10039000E06AC117126803C2ECE03868011D3960D9
:1003A000E16A00680170E5E03868011D3960E16AC2
:1003B00000680160DEE03868C01D072188433860AE
:1003C00001000831396003C804AB03C3002904D518
:1003D0006069411C61612D210DE0208F810704D5EA
:1003E0006069411C61612B2105E0C00705D560698A
:1003F000411C6161202115AB1954606915A90818C9
:10040000E060110004A800F007FAB3E03A20235C92
:100410006C2B01D138680FE0712B01D1386802E0F4
:100420006A2B386808D1C01D072188433860010055
:100430000831396003C803E0011D396000680021FC
:1004400004AE03C6682B03D104A803C880B20BE036
:10045000622B03D104A803C8C0B205E0742B01D0FD
:100460007A2B04D104A803C8002104AB03C33820AD
:10047000205C00075ED504A803C8002901D100282C
:1004800058D020201043782854D16069302115AB12
:100490001954401C411C616115A90A544AE03A20D4
:1004A000205C62280CD0682810D06A281AD06C28EA
:1004B00022D0712816D074281ED07A280CD01BE0C8
:1004C0003868011D3960006840B219E03868011DC4
:1004D0003960006800B213E03868011D39600068B7
:1004E00000210EE03868C01D0721884338600100F4
:1004F0000831396003C804E03868011D39600068BC
:10050000C11704AB03C3002904DA6069411C6161AF
:100510002D210DE0208F810704D56069411C6161A8
:100520002B2105E0C00705D56069411C61612021D0
:1005300015AB1954606915A90818E060110004A8EA
:1005400000F0D0F816E06069411C616139680A1D4D
:100550003A60096815AA11540CE06069411C616198
:10056000252115AB1954002A04D06069411C616132
:1005700015A90A546D1C606B6169401A216A401A02
:10058000A169401A616A401AE169401AA16A401AD9
:1005900014903820205C400711D42020694608714F
:1005A000002609E0012301AA04A9249800F0B3FC65
:1005B000002800D092E0761C14988642F2DB66692F
:1005C00015A800900FE0009801780698249A9047AB
:1005D0000690002800D181E0E06A401CE0620098AB
:1005E000401C0090761E002EEDD130206946087127
:1005F000206A009008E0012301AA04A9249800F0D1
:100600008AFC00286AD1761C00988642F3DBA66932
:10061000E06800900EE0009801780698249A9047D0
:10062000069000285AD0E06A401CE0620098401C06
:100630000090761E002EEED1302069460871606A67
:10064000009008E0012301AA04A9249800F063FCAB
:10065000002843D1761C00988642F3DBE669A06946
:10066000E168081800900EE0009801780698249A36
:1006700090470690002831D0E06A401CE062009864
:10068000401C0090761E002EEED130206946087185
:10069000A06A009008E0012301AA04A9249800F0B0
:1006A0003AFC00281AD1761C00988642F3DB3820E9
:1006B000205C400700D411E520206946087100261F
:1006C00000E0761C1498864200DB07E5012301AAAE
:1006D00004A9249800F01FFC0028F2D00020C04399
:1006E00025B0F0BDF3B583B0006900906846027C88
:1006F0006F2A01D1082406E020211143782901D076
:100700000A2400E010243C25039803C806000F00CB
:10071000642A01D0692A07D1002905DA00200021C6
:10072000801BB94106000F00002F12D1002E10D1FE
:100730000398006B00280CD1082C3CD1039838306A
:100740000078000737D53B25302000993B310870F1
:1007500031E06D1E0195300039002200E31700F0F2
:1007600012FC3032D2B23A2A03DB6846007C5138A0
:10077000121800994A55300039002200E31700F0A2
:1007800002FC06000F0001D1002E05D00398C068BE
:10079000009949198842DCD3082C0CD103983830D1
:1007A0000078000707D50098405D302803D06D1E03
:1007B0003020009948553C20401B039988610099DE
:1007C0004919039AD1600399096B884209DA081A1A
:1007D000039908620398008F0E490140039801872E
:1007E00015E0002913D503993831097814220A40FD
:1007F000102A0CD10399496B039A5269891A039AFA
:10080000126A891A0D1A012D01DB0398056205B0E1
:10081000F0BD0000EFFF0000F3B591B007AD03C8D5
:1008200002AA03C212A80078202101430091612985
:100830000BD01198006B002801D5062003E004D1ED
:10084000672902D101201199086311984168480075
:10085000400DAA4A904225D1080310D11198006892
:1008600000280CD103201199886112A80078613802
:100870001A2842D3234878448A3000900BE00320A2
:100880001199886112A8007861381A2831D31E485E
:10089000784474300090032200991198C06800F0E9
:1008A000A7FBF8E1012817DA119800F0CFFB012827
:1008B00012DB002600270098612832D11198C06809
:1008C00030210170401C411C119AD16012A9097895
:1008D00061291FD178211EE011994968884A0A4090
:1008E00088491143119A51608749471A0026F643F7
:1008F000E1E7064878441430CCE7054878441030E6
:10090000BBE700BFB8910000AC910000A4910000CB
:10091000A89100005821017011984069801C11991C
:100920004861002E03D1002468468680A9E1009822
:10093000612800D09FE01198046B002C01D5212480
:1009400000E0641C24B2601C0090119803C804AA43
:1009500003C202A803C80022002300F099FB04A8E8
:1009600003C802D280221206514002AA03C2381FD5
:100970006946888000260E7707AF7F1C00E0FF1DC8
:100980000098012830DB02A803C80022002300F0F1
:1009900098FB29D21C2102A800F0ACFB02A803C8D6
:1009A00000F036FC05000098C01F009001280ADB0B
:1009B000280000F06BFC02000B0002A803C800F046
:1009C000E2FC02AA03C2FF1D072004E07F1E2907E4
:1009D000090F39702D11012D01DB401EF6D5401E87
:1009E000CDD47F1E3E70FAE707A8401C391A07AD28
:1009F0006D1CA14200DA0C0024B2200032D48842DF
:100A000005DA07A909184978082900DB0F2607A984
:100A1000091801E0641E491E401E0A78B242F9D04E
:100A20000F2E04D107A909184A78521C4A700028D1
:100A300006D507AD641C019800B2001D6946888088
:100A400024B2601E0ED429180A783032D2B23A2A63
:100A500003DB12AB1B783A3BD2180A70401E491ECA
:100A60000028F1D51198006B002800D409E1601E20
:100A70001199086305E102A803C80022002300F0D1
:100A800007FB06D202A803C880221206514002AA20
:100A900003C23FB281487843814900F001FD6946B5
:100AA00088800720019909B2421A00207D49012A55
:100AB00020DB049202AA30CA00260F000498C00767
:100AC00007D532003B002000290000F043FD040060
:100AD0000D000498401004903000390032003B00B3
:100AE00000F038FD06000F0004980028E6D102A8A7
:100AF00030C028E0544200266B4F18E0FF0700008A
:100B0000FFFF0F800000E03FFE030000E00707D575
:100B100004A803C832003B0000F01CFD06000F00D3
:100B2000641004A803C804AA0CCA00F013FD04AAA8
:100B300003C2002CEAD102A803C832003B0000F037
:100B4000CBFD02AA03C20098662803D1019800B227
:100B50000A3000E006201199096B08180490142847
:100B600001DB1320049030206946087707AC641C31
:100B70000498012841DB02A803C800F05BFB0600D3
:100B800008340594042430000A2100F08CFC0F0086
:100B900030000A2100F087FC06000598401E0690F0
:100BA0003037077030000A2100F07DFC0F00300064
:100BB0000A2100F078FC06000698401E05903037A8
:100BC0000770641EDFD1059C08340498083804902F
:100BD0000128CDDB02A803C800F02CFB00F060FB6D
:100BE00002000B0002A803C800F0CDFB00222F4B2F
:100BF00000F0B0FC02AA03C2BDE707A8401C201AFF
:100C000007AD6D1C6A4605E0401E019909B2491EF8
:100C100091806D1C29783029F6D00099662903D17E
:100C2000019909B2491C04E0652901D1012100E0C4
:100C30000021119A126B541824B2A04200DA040069
:100C400024B221001DD4814204DA685C352801DB1E
:100C5000392000E030206A1800E0641E521E491E50
:100C600013788342F9D0392802D1685C401C68545B
:100C7000002906D56D1E641C019800B2401C69460F
:100C80008880019800B2009023B22A0012A801784F
:100C9000119800F00DF813B0F0BD0000977500003A
:100CA000A0860100000024400000F03F84D7974157
:100CB000F6B587B004001D00266B012D02DA012570
:100CC000A1A00890202008430E9F662801D17F1C18
:100CD00014E067287CD13FB20320C04387427BDB0E
:100CE000B74279DA7F1C3820205C000702D4B54275
:100CF00000DA2E003FB2F61B00D50026E068009017
:100D0000A16940183FB2012F24DA491C3022027039
:100D1000012E03DA3820205C000703D52E20009A2C
:100D20005054491CA1617842864200DA77423FB2B2
:100D300078426062F619AE4200DA35002DB2E56104
:100D40002A000899A069009B181800F051F9701B3F
:100D5000A062CAE0BD4216DA2A00089900F048F9FC
:100D6000A0694019A061791B6162012E03DA382164
:100D7000615C090705D52E21E2681154E069401C29
:100D8000E061A662B1E03A00089900F031F9A0698B
:100D9000C019ED1B012E03DA3821615C090703D568
:100DA0002E21E2681154401CA0612DB2AE4200DA3F
:100DB00035002DB22A000898C119A069E3681818F7
:100DC00000F016F9A0694019A061701B60628CE008
:100DD000612911D1702012E0B54204DA3820205C7C
:100DE000000700D42E00761E00D50026672901D109
:100DF000652004E0452002E0412902D150206946E7
:100E00000877A169481CE2680092089A1278009B52
:100E10005A540899491C012E05DA3822A25C12079F
:100E200001D4A06116E02E22009B1A54401CA06140
:100E3000012E0FDB6D1E2DB2AE4200DA35002DB251
:100E40002A00009B181800F0D3F8A0694019A0618F
:100E5000701B6062A069E16808186946097F01702B
:100E6000401C3FB2390004D42B210170401C089073
:100E700004E02D220270401C08904F42002503AE72
:100E800008E00A2201A800F088FC02983070019F57
:100E90006D1C761C39B20129F3DA022D0BDA684693
:100EA000007F20210143652905D130200899087071
:100EB0000898401C0890002D0FD130200899087028
:100EC0000898401C08900AE06D1E03A8405D303071
:100ED000089908700898401C0890012DF4DA0898C9
:100EE000A169E2685118401AE0613820205C1421A1
:100EF000014010290DD16069A1694018616A40184C
:100F0000E1694018A16A4018616B884201DA081A49
:100F1000206209B0F0BD79B50C0016001D0000205C
:100F200005E0E06A401CE0620020761C6D1E002D8A
:100F300008D03178A068009A9047A0600028F0D1CE
:100F40000020C04376BD00003000C9B200E0401C64
:100F500002788A4202D0002AF9D1002070470100AD
:100F600000E0491C0A78002AFBD1081A7047C9B270
:100F700001E0401C521E002A03D003788B42F8D1B6
:100F8000704700207047124224D0994228D970B58A
:100F900000251B4202D00C00002109E0002401269C
:100FA00049186441944200D3A41A7641F8D3310021
:100FB000012601E0764109D2001864416D41A41A6E
:100FC0009D41F7D2A4185D41B619F5D33000220037
:100FD0002B0070BD1B42D8D108B500F0F3FB08BD53
:100FE00001D19042D3D202000B00002100207047B3
:100FF000124207D08B0706D00B78491C0370401CA7
:10100000521EF7D87047830706D00B78491C03702F
:10101000401C521EF9D1704770B4103A03D378C9FE
:10102000103A78C0FBD2530701D318C918C001D5B4
:1010300008C908C0D20704D30B880380891C801C10
:10104000002A01D50B78037070BC704738B40100DA
:101050004B68802212061A4001201B031B0B4B60B9
:101060000BD10B68002B08D10DE00B686400DD0F7D
:1010700025434D605B000B60401E4C68E302F4D5D5
:1010800023031B0B4B604B681A434A6032BC70470A
:1010900030B4012464054D00EC420BD85D00EC42F5
:1010A00008D80C001C4364000443144304D2994242
:1010B00000D1904230BC7047FCD08B42FAD18242C2
:1010C000F8E730B4012464054D00EC420BD85D0014
:1010D000EC4208D80C001C4364000443144304D2BF
:1010E0008B4200D1824230BC7047FCD09942FAD189
:1010F0009042F8E770B504000D0060684000400DB4
:101100003F4EB04207D16068000302D1206800283A
:1011100016D0022070BD002804D12000FFF796FFF2
:1011200001286BDA012D0DDB311A8D420AD360687C
:10113000002802D50020334901E00020310503C416
:10114000012070BD4142A942616806DA2E4A0A4078
:10115000281800051043606047E080221206114005
:1011600062681203120B80235B0313436360401E0B
:101170002D1800202A003532352A02D36160206004
:1011800070BD00221E23DB439D4204DA2035226815
:10119000636823606060684211D0521E9241D2435E
:1011A000D20F20231B1A25689D402A432568C5407D
:1011B00066689E402E4326606368C3406360606833
:1011C000084360601148824206D2802000068242B5
:1011D0000ED12078C0070BD52068401C2060206805
:1011E000002805D16068401C60600020C04370BDCD
:1011F00060688842F9D120680028F6D1002070BDCF
:10120000FF0700000000F0FFFFFF0F8001000080DB
:10121000F4464A1805D200F00FF801D580174008AF
:10122000604700F009F80121C907884200D9080089
:10123000404260474A1812D2400DC90208430121BA
:10124000C9070843520D40210901521A521C06D405
:1012500052421F3201D4D0407047C017704700205F
:10126000704738B4012100220368001D002B0BD009
:101270000468001D0C4202D04D466D1E64192260A8
:10128000241D1B1FF0D0FAE732BC7047010009D5BE
:10129000F446404200F006F80122D20711436047AD
:1012A000010000BF42221201D21E004207D002D428
:1012B000521E0018FCD5C10A400512058918704756
:1012C000F0B40125ED070F005F404FD48B4200D1F1
:1012D000824205D98446100062468C461900634656
:1012E000DF184C18640D7F0D3AD0661C760537D098
:1012F000E61B352E34DCDB022B43DB0A0C0DC90266
:101300002943C912202E0DDB1700203E06D01F00F6
:10131000F741F3405F400026012A7741C018714130
:101320000DD217E01700F741F2405740F3415A4001
:10133000B340F3405A400026801859410AD3A21CFA
:1013400052050FD0C207012F724117004008CB078A
:1013500018434908641C24054208AF4170416141AB
:10136000F0BC7047641C21050020F9E76B4010E0D9
:101370006B40ABE7F742F3D1E943F1E72442EFD109
:1013800000200021ECE7F0B40125ED070F005F40DD
:10139000EED40C00871A9C4105D2C01BA141D21982
:1013A000634169406B40AE0ADF184C18F442E1D249
:1013B000640D7F0DE2D0E61B362ED1DCDB022B4321
:1013C000DB0AA4460C0DC9022943C90A012E28DCF8
:1013D00004D1D6075208DF073A435B08EF0A76428A
:1013E0009041994114D039423BD1B619404149410D
:1013F000761C394204D1761C001849413942FAD092
:10140000B9436746B74208D9A41B24052143A7E77F
:101410000042EAD13642E8D1A2E7E40AE10700201F
:101420009EE7202E0BDD203E1F00F340F7415F407A
:10143000012A002257417E42984191410BE017005A
:10144000F741F2405740F3415A40B340F3405A400D
:101450007E42904199410A0303D2641EB61940416D
:1014600049410027641E24054208AE41784161418C
:10147000F0BC7047F446002804D4494200F013F849
:10148000404260474042002905D45FD000F00BF88D
:10149000404249426047494200F005F849426047EE
:1014A00003460B43E6D40022030A8B420BD2030906
:1014B0008B4219D243088B422ED2411A00D20146E8
:1014C000524110467047FF2209023FD012068B425C
:1014D00005D3121209028B4201D312120902030929
:1014E0008B4219D300E0090AC3098B4201D3CB0117
:1014F000C01A524183098B4201D38B01C01A524159
:1015000043098B4201D34B01C01A524103098B425C
:1015100001D30B01C01A5241C3088B4201D3CB0047
:10152000C01A524183088B4201D38B00C01A52412A
:1015300043088B4201D34B00C01A5241884200D36A
:10154000401A5241CFD201461046704708B500F00C
:101550003BF908BDF0B50E005E400125ED072E40B9
:10156000B446AE0ADF184C18F44208D2F7420ED245
:10157000640D01D07F0D12D100206146F0BD05D170
:10158000F74201D87F0D05D10020C143F0BDFBD14A
:10159000640DF9D00020C143490549088FE0E419E2
:1015A000C902DB0229432B43DB0A460DC00231434B
:1015B0008E4630B487B295B27D432E0CADB2140C7A
:1015C0007C43A419260C240425439CB27C43A41913
:1015D000190C7943270CC919A4B20F043C43090C18
:1015E000000C97B247432E0CBE193543ADB2170C11
:1015F0004743360CBF19A6B2BF193E043543240C2D
:101600003E0C36199FB24743BF19BCB23E0C891934
:101610001F0C47437F183E043443390C704680B298
:1016200097B247432E0CBE193543ADB2170C474352
:10163000360CBF19A6B2BF193E043543240C3E0C2C
:1016400036199FB24743BF19BCB23E0C89191F0C13
:1016500047437F183E043443390C77463F0C90B221
:1016600078432E0C80190604ADB22E43050CA0B2AF
:101670002D18120C7A435019020C80B2240CA418B5
:101680009AB27A43121914042043120C89181B0CC5
:101690007B43C91830BCEF0A394203D1B619404127
:1016A0004941641E6F12BF0DE41B0BDBFF19BC42E6
:1016B00011DA240500274208AE41784161416646AF
:1016C0003143F0BD641C05D1401C6141CF0201D300
:1016D0004908F4E750E75DE7F0B40E005E400125ED
:1016E000ED072E40B446AE0ADF184C18F4423BD248
:1016F000F74241D2640D43D07F0D38D0E41BC902BC
:10170000DB0229432B43CF0ADB0A0600B61A9F41AE
:1017100004D2641EB6197F41B6185F416812800D6D
:1017200024180018844222DAE80C0021B6197F41FF
:10173000B61A9F4102D2B6185F413F1C4041494151
:10174000F4D3241C21DD2405B6197F41B61A9F412C
:1017500005D33743C60737430026012F7041614147
:1017600066463143F0BC7047FCD1F74205D20020F9
:10177000C14349054908F3E704D00020C143F1E71C
:101780007F0DFAD000206146ECE72442FAD1401CDC
:1017900061410F03F6D30020E2E77CB504000E00A0
:1017A000150030002900FFF77BFE00904543701BB9
:1017B0000190684603C803C476BD0268531C0360E9
:1017C000117070477047200070470206F8B5050099
:1017D0000F00160001242888002802D0662807D0B0
:1017E00054E08A498A4800F0BCFF00246620288023
:1017F000E4B2002C05D0FFB2882F02D18448864283
:1018000001D0012047E083480078012827D1824891
:1018100000F0C9FB8149088080480088FF218900C9
:1018200088420EDB00F040FE00F03EFD7A4800F0FA
:10183000F9FF042824D111227949774801F089F869
:101840001EE07648008800281AD100F02DFE00F036
:101850002BFD11227249704801F07BF810E000F076
:1018600023FE00F021FD6C4800F0DCFF042807D1C6
:1018700011226B49684801F06CF801206549087035
:101880000021C24801F0BCF800F03FF8002004003D
:10189000002028800320F2BDF8B504000E001500DA
:1018A00001212088002802D0A52807D027E0B849C8
:1018B000B84800F056FF0021A5202080C9B20029B9
:1018C00005D0F6B2882E02D1B248854201D001205F
:1018D0001AE0BD48008E070000F0E6FDBA48408ED1
:1018E0006421FFF7DDFDB849098EC91B8842DED2AD
:1018F00000F057FEB449886300F02EFDD7E70020C2
:101900000100002020800320F2BDE0B501218020ED
:10191000400001F042FB80208000694608810020E1
:1019200069464880A948694608801E200190002029
:10193000694688726946BC4801F0BEFB0121BA487D
:1019400001F0A6FC01220121B74801F095FC07BD7A
:1019500080B50121B44801F09FFC002812D001217C
:10196000B14801F095FC00F00FFD0021AE4801F0F8
:10197000E6FB00228321854801F062F90021DF485F
:1019800001F03EF801BD00B589B001218020800240
:1019900001F0E2FA01218020800001F0EDFA002040
:1019A00001F0FAF9D64801F0C0FC012000900320B4
:1019B0006946087100206946C87169469020C005D3
:1019C00001F0FCFC0121CE4801F096FC08200290B9
:1019D000002002A90871002004900020059000203A
:1019E00006900020079002A9C54801F06DFC042272
:1019F0000121C34801F08EFCC24800688021090221
:101A00000143C048016009B000BD0000307500000E
:101A10005C1000208801002000F800081011002050
:101A20004806002000B585B001218020800201F029
:101A300093FA802040000290002002A90871012042
:101A400002A9C871032002A9487102A99020C0050B
:101A500001F0B4FC082001F0B9FD0821002001F0DC
:101A6000D3FD8020400000900020694608710820C6
:101A700069464871012069468871684601F052FD47
:101A800005B000BD00B58BB001218020C00201F07F
:101A900063FA0121C020C00201F06EFAC02080006C
:101AA0000090022069460871002069468871032071
:101AB0006946487101206946C8716946B14801F01C
:101AC0007DFC02220921AF4801F0F4FC022208212A
:101AD000AC4801F0EFFC8020800002A908810020C2
:101AE00002A94880002002A9887230206946088136
:101AF000FA208000039002A9C24801F0DDFA02A991
:101B0000D34801F0D9FA602069468882002005A9EF
:101B10008881012005A94880042005A9888000202B
:101B200005A9C8818020400005A90882002005A9D8
:101B30004882FA208000079005A9B24801F029FBED
:101B400005A9C34801F025FB0821AE4801F086FB3A
:101B50000821BF4801F082FB0121AA4801F0E1FA07
:101B60000121BB4801F0DDFA0121A64801F0E7FAA6
:101B70000121B74801F0E3FA0121A24801F0F6FA89
:101B80000121B34801F0F2FA0BB000BDD8000020EB
:101B9000C02709006C10002030B50400E4B2652CA9
:101BA00001DB642000E02000A4490870E4B2FA20C0
:101BB000800060436421FFF773FC0500A0480560C6
:101BC000A448056030BD00000000002080BB00007C
:101BD00010B504214A4801F0EFFB494801F0C9FB68
:101BE0000421474801F0CDFB0028F9D0444801F01A
:101BF000BBFB434801F0C2FB0400A4B22000FFF786
:101C00004FFB90A20CCAFFF7A5FC00228F4BFFF7F9
:101C1000A1FC0022904BFFF75FFDFFF7F9FA0400EB
:101C2000200080B210BD00000020004000B585B04B
:101C300001218020C00201F08FF9012000900020D6
:101C40006946087101206946C871032069464871D8
:101C500069464C4801F0B2FB022000900120694621
:101C600008710020694688716946464801F0A6FB64
:101C7000012001F0ABFC0021012001F0C5FC012096
:101C80000290002002A90871082002A948710120D1
:101C900002A9887102A801F045FC05B000BD70B52D
:101CA00006000C008025354340216C4801F096FD6C
:101CB0000028F9D0EDB2290089B2684801F050FD42
:101CC0004021664801F08AFD0028F9D0E4B22100E5
:101CD00089B2624801F044FDEDB2E4B22819C5436F
:101CE00040215E4801F07AFD0028F9D0EDB22900CC
:101CF00089B25A4801F034FD70BD0000C8000020D0
:101D0000002401400C240140F4B582B007000E000D
:101D100068468021394301706846007804004021FC
:101D20004E4801F05BFD0028F9D06846017889B281
:101D30004A4801F015FD00256846007AEDB285425B
:101D400010D24021454801F049FD0028F9D0EDB2FC
:101D5000715D89B2414801F003FDEDB2705D241858
:101D60006D1CE9E72000C0B2C44340213B4801F0AC
:101D700035FD0028F9D0E4B2210089B2374801F0DE
:101D8000EFFCF7BD00040048F5B581B00E006846D1
:101D900004794021314801F021FD0028F9D068463E
:101DA000017989B22D4801F0DBFC00256846007AF4
:101DB000EDB285420FD22021284801F00FFD002806
:101DC000F9D0264801F0D0FCEDB27055EDB2705D4F
:101DD00024186D1CEAE72021204801F0FFFC0028B0
:101DE000F9D01E4801F0C0FC07002000C0B2C44377
:101DF000FFB2E4B2A74201D1012000E00020C0B24E
:101E0000FEBD00000048014080B50021134801F0EC
:101E100096FC04219020C00501F041FB192001F03F
:101E200045FD04219020C00501F036FB142001F08F
:101E30003DFD01F033FE00F09AF901BD34000020B1
:101E4000344801406666666666660A4000408F4018
:101E500000440140344401400000904000440040F0
:101E600000B50100C9B20A00D21F012A15D91B3AD8
:101E7000022A15D9121F022A15D9D21E042A0FD9F7
:101E8000D21F022A0CD9521F0AD00B3A032A04D9B6
:101E9000121F08D03B3A03D008E00122100007E0EF
:101EA0000322100004E00422100001E002221000CE
:101EB000C0B200BD70B582B005000C0068460021BC
:101EC00001602000000E694608702000000C694681
:101ED00048702000000A6946887020006946C87072
:101EE0002800C0B2FFF7BCFF0600E521EA20FFF79B
:101EF000D6FE3200D2B2F6B2704269460918091D08
:101F00002800C0B2FFF700FFDC21EA20FFF7C7FE80
:101F100073BD7CB504000D0068460021002206C098
:101F20000838E4B2802C01DB002026E02000C0B29B
:101F3000FFF796FF06003200D2B269462000C0B219
:101F4000FFF722FF012817D1684600788021490455
:101F500048436946497880225202514340186946F5
:101F6000897880225200514340186946C978401848
:101F700028603000C0B200E0002076BD38B50024F3
:101F8000002000900025EDB2182D08DA69462800DF
:101F9000C0B2FFF7BEFF009824186D1CF3E7A4B28F
:101FA000E04380B232BD00B501000023180080B2CA
:101FB0003C2809DA80B211234343CB5C1A00D2B229
:101FC000FF2A01D0401CF2E71123584380B200BD24
:101FD00000B591B0B048406902F020F90E900F9121
:101FE000AE48C0690C90AC4800690B90AB48806962
:101FF0000A90A948C0680990A84840690890A64876
:1020000000890790A54800690690A348C0880590FC
:10201000A248C0680490A048808803909F488068C8
:1020200002909D48408801909C48406800909A48E2
:10203000038D9A4802689A499A4802F009F9DF48E4
:1020400000F0F0FB042808D19648FEF788FF020054
:1020500092B29449D94800F07CFC11B000BD80B523
:102060008D4801880220FFF725FF8B484188032017
:10207000FFF720FF884881880520FFF71BFF86486F
:10208000C1880720FFF716FF8348018B2020FFF748
:1020900011FF012001F00AFC69462D20FFF739FFEE
:1020A000FFF76CFF7C4948620098C00307D47A4868
:1020B000406A009989B2884201D10120009001BD97
:1020C00070B50500ADB22C00002C4ED4112275491C
:1020D000ADB2BB48281802F0E0F87248C07B8021FE
:1020E000490048436F49097C401806000F216D489C
:1020F00001F0BBFBB6B2B04235D16A48407A8021CC
:10210000490048436749897A40186349088365480C
:102110004079002141436348807900224243881876
:102120006049C979802252004A4380185D49097A82
:102130004018594908865B48C07A802149044843C1
:102140005849097B80225202514340185549497B26
:1021500080225200514340185249897B40184E4911
:102160008863012002E0113CAEE7002070BD38B565
:10217000924802F09FF89349002002F0B4F800283A
:1021800000D183E04448008D012800D081E08E49D1
:10219000012002F0A8F88D49022002F0A4F8BD4900
:1021A000032002F0A0F8BC49052002F09CF8BB49CE
:1021B000062002F098F8BA49072002F094F8B948CE
:1021C000FFF7F1FE0400A4B2FF208000844259DA38
:1021D000A4B2002C56D011223249A4B2784820185B
:1021E00002F05BF82F48C07B8021490048432D490D
:1021F000097C401805000F212A4801F036FBADB2DA
:10220000A84237D10120BB4908702648407A802176
:10221000490048432349897A40181F4908832148C7
:102220004079002141431F488079002242438818A9
:102230001C49C979802252004A4380181949097AF9
:102240004018154908861748C07A80214904484338
:102250001449097B80225202514340181149497B9D
:1022600080225200514340180E49897B40180A4988
:1022700088630EE000209F490870200080B2FFF7BD
:102280001FFF06E000209B49087002E00020024981
:102290000885FFF7E4FE31BD000000203C0000206F
:1022A00094980008480600201CB56946002002F0FA
:1022B000B4FA01A9002002F014FA6846C078C149B6
:1022C000087068464078BF49487068468078BD49C4
:1022D000887068460079BB49C87001A84078B94940
:1022E00008710020B74948710020B6498871B64886
:1022F000008E80B2000AB349C871B348008EB1495C
:102300000872B148008B80B2000AAE494872AE48EC
:10231000008BAC498872AC48806B000EA949C8722A
:10232000A948806B000CA7490873A748806B000A76
:10233000A4494873A448806BA24988730F21A1481F
:1023400001F093FA0400200080B2000A9D49C8738E
:1023500020009C49087413BD10B5FFF7A5FF514834
:10236000FFF721FE0400A4B29848844204DB4D48E4
:1023700000F058FA0020040011229249A4B2494802
:10238000201800F0E6FA10BD10B582B04548FFF7FE
:102390000AFE040069462020FFF7BBFD8A49088336
:1023A00000F082F8FFF780FFA4B23E4820180090AA
:1023B00011228449009800F0CCFA13BD00FC0008FB
:1023C000EFF7000828000020020000200400002091
:1023D00038B569462420FFF79CFD0098000201D51E
:1023E000002014E07848C068FEF75AFF02000B0096
:1023F00000207749FFF770F904000D000098FEF700
:102400004FFF22002B00FFF7A5F8FEF701FF6E49F2
:10241000488369462220FFF77CFD0098000201D521
:10242000002018E068480069FEF73AFF02000B0040
:1024300000206849FFF750F904000D000098FEF7EE
:102440002FFF22002B00FFF785F80022624BFFF7D9
:1024500081F8FEF7EFFE5C49C86169462620FFF768
:1024600058FD0098002803D50098C143491C0091ED
:10247000009802F041FA5449496902F04CFA01F01F
:10248000CDFE0022554BFFF727F9FEF7C1FE4E495E
:10249000088431BD060000200C0000201000002040
:1024A0001400002000F8000880B569462020FFF7DE
:1024B00030FD00984449088369462A20FFF729FD2A
:1024C0004148008E009940183F4908863E48008EDA
:1024D0003D49498EFEF7E4FFFEF7D8FE00223E4B51
:1024E000FFF738F8FEF7A6FE3749C8623648C06ADB
:1024F00002BD0000880100207CB569462620FFF758
:1025000008FD01A92820FFF704FD0098002803D545
:102510000098C143491C0091009802F0EDF92A4946
:10252000496902F0F8F901F079FE00222B4BFFF720
:10253000D3F8FEF77FFE00900198002803D500989D
:10254000C143491C0191019802F0D6F91E4949691D
:1025500002F0E1F901F062FE0022204BFFF7BCF827
:10256000FEF768FE01900198019948430099009A8E
:1025700051434018FEF794FE02F027FA04000D00C4
:102580000098FEF78DFE0022154BFEF7E3FF2200B8
:102590002B00FFF7A1F8FEF73BFE06003000C0B2AB
:1025A00076BD80B502F0A4FA0E49FEF77CFF02BDAD
:1025B00000B50D480078002801D1002000E001207E
:1025C00000BD00004806002000000020EB030000D2
:1025D0000030A1400000E03F00408F4080842E4149
:1025E0000000594060EA00003400002070B57E48C9
:1025F0000068002803D100207C4908601DE002F03B
:1026000074FA050078480068060030687168401860
:10261000401B0400B668002E0CD03068716840186A
:10262000401BA04204D2306871684018401B04006F
:10263000B668F0E728196D49086070BDF4B506006A
:102640000F0001213088002802D0592806D05CE014
:10265000002065490860002159203080C9B2002956
:1026600001D1012056E0FFB2872F24D100985E49A6
:10267000096800290AD05C490968C968814205D106
:10268000594909688968584A1160F0E7564909684C
:1026900000290FD0544909680D00A968002909D004
:1026A000A968C968814203D1A9688968A960F4E76B
:1026B000AD68F2E7CFE7FFB2822FCCD10020040053
:1026C000494800680500002DC5D0280002F026FA10
:1026D000002817D02A008821E86800F0B1FA002805
:1026E0000ED10020E860002C02D0A868A06002E0B3
:1026F000A8683D4908600020A860FFF777FFDDE784
:1027000000F009F82C00AD68DDE700200100002092
:1027100030800320F2BD80B5354800F0D5FA01BD08
:1027200038B50400FFF7F7FFE06800280ED02E4808
:1027300000680500002D09D0A54205D12D4800688C
:10274000E060FFF753FF0BE0AD68F3E7294800684E
:10275000E06025480068A06023480460FFF746FF5A
:1027600031BD38B505000C002100280002F0CEF97B
:102770002800FFF7D5FF31BD00B51B4800680028D1
:1027800001D0012000E00020C0B200BD80B5FFF7FD
:10279000F3FF002802D01548006800E0002002BDC9
:1027A00038B5040010480068844207D10E4800681C
:1027B00080680D490860FFF719FF0FE00A480068BC
:1027C0000500002D04D0A868A04201D0AD68F8E74C
:1027D000002D03D0A068A860FFF708FF0020A060CC
:1027E0000020E06031BD0000D8100020DC10002087
:1027F000B8000020F810002038B505000C002100BA
:10280000280002F083F9FFF7F1FE31BD00B5294839
:102810000068000605D52848284908602848274947
:10282000086000BD38B504000425B020000300F0A6
:102830006DF80500EDB2042D18D11E480068022184
:1028400001431C4801601F4804601A480068402189
:10285000014318480160B020000300F057F805005C
:102860001448006802218843124908602800C0B259
:1028700032BD70B505000C000426B020000300F046
:1028800045F80600F6B2042E11D10A48006801216D
:102890000143084801602C80B020000300F036F8A6
:1028A000060004480068012188430249086030009E
:1028B000C0B270BD102002402301674504200240D1
:1028C000AB89EFCD142002400F490860704700B576
:1028D00004200D490968C90702D5012108000FE04D
:1028E00009490968C90602D50221080008E006491D
:1028F0000968490702D50321080001E00421080006
:10290000C0B200BD000000000C20024038B5040039
:102910000425FFF7DCFF0500EDB2012D06D1002CE8
:1029200004D0FFF7D4FF0500641EF5E7002C01D1A9
:10293000052005002800C0B232BD030780B5FFF7AF
:1029400065FF3520FFF7C0FF01BD80B5FFF7F6FF3B
:1029500001BDF8B505000E00170072B60024BFB225
:1029600038000221FEF79CFDA4B2844223DAA4B20F
:1029700002206043305CA4B202216143711849789F
:1029800080225200514340186946088068460188F9
:102990002800FFF76EFF04280AD1288869460988B5
:1029A000884202D062B6022029E0AD1C641CD6E742
:1029B00062B6012023E0BFB238000221FEF770FDAD
:1029C000002902D162B6002019E06846BFB2F119B1
:1029D000491E09780180684601882800FFF749FFF1
:1029E00004280AD1288869460988884202D062B63C
:1029F000022004E062B6002001E062B60120F2BDD0
:102A000070B505000E00A64800680400AC4203D073
:102A1000002C01D02468F9E7AC420DD0A048006832
:102A200028609F4805600120A8730020A88132001B
:102A30008121280000F036F970BDF8B505000F00BF
:102A4000A9480668964800680400AC4203D0002CF0
:102A500001D02468F9E7002C3AD0280000F058F99A
:102A600000281CD00020A8738D4800680400002CAA
:102A700008D0A54204D02A008721200000F029F8C0
:102A80002468F4E7A868002809D0BD4207D096481A
:102A900005600022832128000C30AB6898478048ED
:102AA0000068854205D17E48006800687C4908605E
:102AB0000CE07B4800680400002C07D02068A84286
:102AC00002D12868206001E02468F5E786480660A6
:102AD000F1BDF8B504000D001600A07BC0071CD5A1
:102AE000A068002819D0804804600220A07332003A
:102AF0002900C9B220000C30A36898470700022FB4
:102B000004D0032F02D0EDB2832D04D12100200088
:102B1000FFF793FF01E00120A073F1BD8A2069490E
:102B200008700020714908707149087000205C49E4
:102B300008606D490860704710B500206D49087045
:102B4000574800680400002C0DD0E07B002808D016
:102B50000120A0730020E073002282212000FFF7F3
:102B6000B8FF2468EFE710BD80B561480078002801
:102B700056D05E4800780C2148435F49085C5F49A5
:102B800008705A4800780C2148435B49081840688F
:102B90005B490860554800780C214843564908189D
:102BA00080685849086051480078401C2021FEF791
:102BB00077FC4E4801704E480078401E4C49087022
:102BC0005048006800281BD1354800684E4908600D
:102BD0004D480068002823D046480078002801D0DE
:102BE000FFF7AAFF46480268444801784648006853
:102BF000FFF76FFF44480068006843490860E7E753
:102C00003E480078812803D101203E490968887335
:102C10003B480268394801783A480068FFF759FF95
:102C200001BD80B533480078002801D0FFF784FF4C
:102C3000FFF79AFF2E4800782E490978401802BD08
:102C400070B504000D00160029480078202801D135
:102C5000012024E025480078254909784018C0B2B1
:102C60002021FEF71DFC29480170284800780C211E
:102C7000484321490D54254800780C2148431E49FA
:102C800008184660214800780C2148431A49081862
:102C9000846017480078401C15490870002070BDFA
:102CA000F4100020F8B505000F0016000E48046867
:102CB00032003900C9B22800FFF70BFF0A48046050
:102CC000F1BD00001211002000B500280AD0817B60
:102CD000012902D0817B022904D10121C173012184
:102CE000044A117000BD0000F810002014110020EB
:102CF0001311002015110020480A00201611002091
:102D0000FC100020001100200411002017110020E9
:102D100000B5807B002801D0012000E00020C0B277
:102D200000BD010000212A4A11702949087070472E
:102D300000B5C0B2002807D01549096880225204A6
:102D40000A4313490A6005E011490968764A0A40B6
:102D50000F490A6000BD00B5C0B2002807D00C4979
:102D60000968802212030A4309490A6005E00849FC
:102D70000968784A0A4006490A6000BD0021054AF0
:102D800012681100032291430143024A1160704707
:102D9000001002400410024088490968884A0A402D
:102DA00086490A608549096882B20A4383490A60F4
:102DB00006490968834A0A4004490A6003490968C8
:102DC0000200120C0A4301490A60704730100240A9
:102DD00002100240FCB504000025002600200190EE
:102DE000002000900027754800680C2101400D006C
:102DF0002800002804D0042805D0082806D027E0A1
:102E00009348206026E07948206023E06B48006802
:102E1000F021890301400E006848006880214902C2
:102E200008400190B60CB61C0198002803D18748D1
:102E3000704320600BE0874800680007000F401CCB
:102E400000906A480099FEF72EFB7043206001E075
:102E50007F48206059480068F02101400D002D098D
:102E60008748405D07002068F8406060534800686C
:102E7000E021C90001400D002D0A8148405D070096
:102E80006068F840A06050480068C00502D47D48E2
:102E9000E0600AE049480068400403D4A0684008A4
:102EA000E06002E0A0688008E060474800684006F3
:102EB00002D47548206102E080200002206142486F
:102EC0000068C00602D46248606101E02068606169
:102ED0003D4800688007800F002802D1A068A061EB
:102EE0001AE0394800688007800F012802D1206865
:102EF000A06111E0344800688007800F022803D1E8
:102F000080200002A06107E02F4800688007800F42
:102F1000032801D14E48A061F3BD5C490968014313
:102F20005A4A116070470000FFFFFFFE00B5C0B2B3
:102F3000002807D055490968802212020A435349E4
:102F40000A6005E051490968514A0A404F490A6040
:102F500000BD0000FFFFF7FF00B5C9B2002905D092
:102F60004C4A126802434B4B1A6004E0494A12680B
:102F70008243484B1A6000BD00B5C9B2002905D094
:102F8000454A12680243444B1A6004E0424A126800
:102F90008243414B1A6000BD000000B5C9B2002950
:102FA00005D03E4A126802433C4B1A6004E03B4A9B
:102FB00012688243394B1A6000BD000004100240C1
:102FC000FFBFFFFFFFFEFFFF3010024000B5C9B298
:102FD000002905D0324A12780243314B1A7004E0BE
:102FE0002F4A127882432E4B1A7000BD0024F40041
:102FF00010B501000022002300200C00E4B2640997
:10300000E4B22200002A03D1264C246823000EE0FB
:10301000012A03D11D4C2468230008E0022A03D1B1
:10302000214C2468230002E0204C24682300C9B20C
:10303000CC06E40E22001C00D440E40702D5012493
:10304000200001E000242000C0B210BD00093D00B6
:1030500000127A002C10024000B501000020144A32
:103060001268C9B20A40002A02D00122100001E011
:1030700000221000C0B200BD0E4908707047000069
:1030800008010020809FD50012800000201002401F
:10309000FF7FFFFF14100240181002401C10024076
:1030A0000910024000100240241002403410024077
:1030B000081002400A10024000B5002203881A00DE
:1030C000264B984206D08023DB05984202D0244B41
:1030D000984205D11300554A1A4013004A881A43F2
:1030E000204B984205D01300514A1A4013000A8918
:1030F0001A4302804B68C3620B880385174B9842C2
:1031000008D0194B984205D0474B984202D0494B02
:10311000984201D18B7A03860123838200BD4162EC
:10312000704700B5C9B2002904D002888023134338
:10313000038003E00288424B1340038000BD00B5CA
:10314000C9B2002904D0028801231343038003E09D
:1031500002883D4B1340038000BD0000002C01405D
:1031600000040040001000400040014000B5C9B21A
:10317000002907D04422825A80231B021343442291
:10318000835205E04422825A5204520C4423C25214
:1031900000BD70B5002200230024058C2A4E2E406D
:1031A0000684058C2B0085882C00058B2A001500D1
:1031B0001E4A2A401500254A2A4015000A882A433B
:1031C0001D001D4B2B401D008B892B431D004B8880
:1031D0002B431F4DA84208D01E4DA84205D0124DCA
:1031E000A84202D0134DA84217D11D00154B2B4009
:1031F0001D00CB892B431D00104B2B401D008B88DD
:103200002B432500144C2C402500194C2C40250044
:103210000C8A2C4325004C8A2C43848002838D68C1
:103220004563038470BD0000004401408FFF00002F
:10323000FFFC000000480140FDFF0000FBFF000014
:103240007FFF0000F7FF0000FEFF0000FCFF000012
:10325000002C014000400140FFFE00000022038BD3
:103260001A001300034A1A400A4302837047000001
:10327000FFFD0000F7FF000000B5D2B2002A03D026
:1032800083890B43838102E083898B43838100BD63
:1032900089B2CA430282704730B502000020002381
:1032A0000024158A0D402B0095890D402C009BB2FF
:1032B000002B05D0A4B2002C02D00125280001E08B
:1032C00000252800C0B230BD30B40023C26813000E
:1032D0001A00374B13401A000B680C7964031C4327
:1032E0008B682343CC681C430D6925434B692B43F2
:1032F0001343C36030BC704700B5C9B2002904D085
:10330000826801231343836003E08268022313432E
:10331000836000BD10B40023846A0C4384620724D8
:10332000A3431343436110BC704730B50100002034
:10333000002300228C6880252D0625438D608C6833
:1033400080252D062C4022005B1CF0242402A34281
:1033500001D0002AF3D18C68002C02D40C6C200020
:1033600001E00024200030BD816810220A43826001
:103370007047816804220A4382607047006C80B203
:10338000704730B5020000200023CC0104D59468BA
:10339000084D25402B0001E0146823000B4202D0A9
:1033A0000124200001E000242000C0B230BD000054
:1033B00003D2FFFFFFFFFFFE01607047F0B5002260
:1033C0000023002400252A00102A55D2012595400B
:1033D0002B000D681D402C009C424BD10D79012D16
:1033E00002D00D79022D1DD186680327BC46150039
:1033F00002277D436746AF40BE43866086684F79AB
:10340000BC46150002277D436746AF4037438760BF
:10341000858801269640B543858085888E799640BB
:103420002E43868006680327BC46150002277D438D
:103430006746AF40BE43066006680F79BC4615007C
:1034400002277D436746AF4037430760C6680327BE
:10345000BC46150002277D436746AF40BE43C660A9
:10346000C668CF79BC46150002277D436746AF404A
:103470003743C760521CA7E7F0BD00B5020000202B
:10348000138A89B20B40002B02D00123180001E0FF
:1034900000231800C0B200BD89B281617047018568
:1034A000704700B5D2B2002A02D089B2816100E033
:1034B000018500BDF8B400230024D2B20D006D07D1
:1034C0006D0F042675431600AE40330089B20D001F
:1034D000ED10042675434519009589B20D00ED10D5
:1034E0000426754345192F6A0F25AC460D006E075B
:1034F000760F04256E436546B540AF43009D2F62AD
:1035000089B20D00ED100426754345192D6A1D433F
:103510002C0089B20D00ED100426754345192C626C
:10352000F1BC704700B500212A4A11008279002AB7
:1035300036D0284A126803689A43264B1A60264AF6
:10354000126803689A43244B1A60027989180A6842
:10355000036813430B60214A126803689A431F4BA8
:103560001A601F4A126803689A431D4B1A60427919
:10357000102A0CD1194A126803681343174A1360C2
:10358000174A126803681343154A13600EE0114A84
:103590001100427989180A68036813430B6005E03B
:1035A000027989180A6803689A430A6000BD00B569
:1035B000010000200B4A12680A40002A02D00122B2
:1035C000100001E000221000C0B200BD05490860F3
:1035D0007047000000040140040401400804014059
:1035E0000C0401401404014000B5C9B2002905D003
:1035F0001D4A126802431C4B1A6004E01A4A126802
:103600008243194B1A6000BD30B400220F238C078F
:10361000A40F04256C43A3401A00C9B20B009B10F1
:1036200004246343114CE3589343C9B20C00A41023
:1036300004256C430D4D2B51C9B20B009B10042483
:1036400063430A4CE458C0B28D07AD0F04235D43B9
:103650000300AB402343C9B20C00A41004256C4303
:10366000024D2B5130BC7047000001400800014062
:10367000F0B589B006000F0000250020009000245E
:103680003068012188433060706804002000384CA5
:1036900004402000BC6804437460306804002000CB
:1036A000344C04407868F968014338690843204382
:1036B00004003460B068040020002F4C0440200057
:1036C0007C690443B46001A8FFF784FB2348864269
:1036D00002D10798009001E0039800903068000440
:1036E0000ED50098022148433968FDF7DCFE05003D
:1036F0000098022148433968FDF7D5FE0C0009E027
:1037000000983968FDF7CFFE050000983968FDF78D
:10371000CAFE0C0038684008844200D36D1C306833
:10372000000408D5280040084007400F0400280086
:10373000124D054025432800B08109B0F0BD00B509
:10374000C9B2002904D0026801231343036003E0D7
:10375000026801239A43026000BD00000038014066
:10376000CA05D20D02857047808CC005C00D704718
:10377000FFCFFFFFF3E9FFFFFFFCFFFFF0FF0000BB
:1037800000B5D2B2002A03D083680B43836002E005
:1037900083688B43836000BDF0B5002300240025BF
:1037A000002606000F00BFB23F0ABFB23B00CFB2F7
:1037B0003C000127A7403D00022B01D1361D02E04D
:1037C000032B00D10836D2B2002A03D037682F432A
:1037D000376002E03768AF433760F0BD00B50200E4
:1037E0000020D3690B40002B02D00123180001E018
:1037F00000231800C0B200BDF0B50300002400256E
:10380000002600200A0092B2120A92B21600CAB232
:10381000150001272A003D009540012E03D12A0002
:103820001D68154008E0022E03D12A005D6815408E
:1038300002E02A009D6815400A00120C14000127BE
:1038400022003C0094402200DC691440002D04D08A
:10385000002C02D00122100001E000221000C0B2B2
:10386000F0BD01000E480068704710B502000D4819
:103870000B00591E9BB2002B0DD003009BB21B0AFC
:1038800080B214784440E0B202246043064C205ACF
:103890005840521CECE703000248584080B210BD6B
:1038A000E4100020FFFF0000A88F000838B50400D6
:1038B0000025FFF7D7FF0500FFF7D4FF401BA4B298
:1038C000A04205D201F03AF97F2001F03FF9F3E779
:1038D00031BD30B50B00040015006A1E002D04D068
:1038E0001D7825705B1C641CF6E730BD66480068D7
:1038F0007047C0B202214143644A515AC0B2042207
:103900004243C34B9A5811857047C0B202214143CC
:103910005E4A515AC0B204224243BD4B9A5891614B
:10392000704770B504000E001500012120880028A2
:1039300002D0642803D075E0002164202080C9B241
:10394000002901D1012072E0F6B2862E33D1287809
:10395000002809D14E484188022041430A3189B2EA
:103960004C48FEF7FEFEE7E728780128E4D02878E7
:10397000042805D1972149004748FEF7F2FEDBE70E
:1039800028780528D8D02878082804D19D21A14876
:10399000FEF7E7FED0E72878092803D19D48FEF717
:1039A000FFFEC9E728780C28C6D10D209A49087077
:1039B00001F0D7F8C0E7F6B2882EBDD13548854270
:1039C0000FD1022095490870954800F043F9012075
:1039D000FFF79BFF002000F069F81421914800F0E8
:1039E00015FA2D4885420FD100208F490880062006
:1039F0008E4908700020FFF788FF002000F056F87D
:103A000017218B4800F002FA8248854294D10A209F
:103A100088490870012000F049F81621864800F016
:103A2000F5F989E70020010000202080032070BD07
:103A300080B500F001F801BD80B50020694608702E
:103A4000C82189007D4801F050FEC82149007C480A
:103A500001F04BFE00207B49087000207949487036
:103A60006B4610223221754801F099FD76490860B5
:103A700068460078002801D001F068FD68460078AB
:103A80000028EDD101BD0000E4100020909D000849
:103A9000E81000208C1000209C10002080B5002031
:103AA00000F004F8012000F001F801BD10B588B065
:103AB00004000121E4B204206043644A1258E4B2D5
:103AC00004206043624B18581043FFF745FA012168
:103AD0000120FFF751FAE4B2002C08D10121E4B231
:103AE00004206043C34A1058FFF757FA0CE0012145
:103AF000E4B204206043BF4A1058FFF73DFA0121A9
:103B000080208000FFF770FDE4B2BB48025DE4B2A4
:103B1000BA48015D89B2E4B204206043B84B18583A
:103B2000FFF7C8FCE4B2B748025DE4B2B648015DF5
:103B300089B2E4B204206043CE4B1858FFF7BAFCB8
:103B4000E4B202206043CC49085A00900220694642
:103B50000871032069464871012069468871012077
:103B60006946C8716946E4B204206043A44A10580B
:103B7000FFF724FCE4B202206043C049085A0090D9
:103B80006946E4B204206043BA4A1058FFF716FCB5
:103B9000E4B204206043BA490858029080204001F2
:103BA0000390002004908020C00005900020079022
:103BB0000C20069002A9E4B204206043C64A1058C3
:103BC000FFF756FDE4B2012C08D10122C349E4B24B
:103BD00004206043C04B1858FFF7DEFD0121E4B21A
:103BE00004206043BC4A1058FFF7A9FDE4B2012C41
:103BF0000CD101228021E4B204206043B64B185856
:103C0000FFF7BEFD01210120FFF7A6F908B010BDA6
:103C100050010020AC1000208C0100208901002000
:103C2000FC9A0008609A0008EC1000208A0100202D
:103C3000789A00088B010020909A00082403002045
:103C4000940100209001002044060020709D00088F
:103C5000789D00080FB4F0B5BBB0002069464880DD
:103C60000024002069464870002508AE00206946FF
:103C70000870002741A80190019B409AC82108A81C
:103C800001F03EFD040068464480A4B2002C00D13F
:103C9000A8E0A4B2C92C00D3A4E0A4B220000C2157
:103CA000FDF701FC002908D0A4B220000C21FDF78B
:103CB000FAFB401C6946487006E0A4B220000C21C3
:103CC000FDF7F1FB6946487000200500FFF70EFE86
:103CD000070068464078EDB2854266D2FFF706FEDF
:103CE000C01B652861D200F029FF7F2000F02EFF65
:103CF00002A97B48006801F0D3FC69460870684659
:103D000000780028E5D106980028E2D0694674487A
:103D1000006801F08BFC001D7249097808225143AC
:103D2000704A51184860684600780028D1D1A4B282
:103D30000D2C15D30C2231006A4800780823584313
:103D4000684B1818406801F0C5FC0C2065490978DB
:103D500008225143634A511808720C3C0C3613E098
:103D6000220092B231005F480078082358435D4B2F
:103D70001818406801F0AEFC20005A490978082262
:103D80005143584A51180872FFF7B0FD07006D1CE7
:103D900054480078401C5349087052480078322833
:103DA00097DB00204F49087093E79E480078082869
:103DB00018D008209B4908704A4840780821484399
:103DC00048490818017A89B2464840780822504389
:103DD000444A1018406800F019F8924A8621B14808
:103DE000FEF72EFF684640883BB00499F0BC05B052
:103DF00008470000689D0008222D0008CA17000827
:103E000060010020623800083A29000830B58BB004
:103E100005000C00A4B2002C2AD0A4B2C92C01DBEE
:103E2000C8200400A04801F089FCA048009001953A
:103E300010200290A4B203940020049080200590EA
:103E4000002006900020079000200890802040016C
:103E5000099000200A906946934801F0B1FC0122C4
:103E60000A21914801F0DBFC01218F4801F0C9FCD7
:103E70000BB030BD68010020949D0008989D00089B
:103E8000609D000838B505000C00A4B2002C22D0BB
:103E9000A4B2FF2C01DDFF2004000020844908802B
:103EA000834844808348854205D0220092B229008D
:103EB000804801F00FFC00207F4908707E4A86216F
:103EC0007848FEF7BDFE0120FFF713FD01227B4974
:103ED000C648FFF761FC31BD58010020050105000F
:103EE000440600209001002080B57549BF48FFF7C7
:103EF00083FC00286ED00020FFF7FBFCA14800885F
:103F0000FF2802DB00209F490880B848FFF72CFCFF
:103F10009C4909889C4A50549A480088002808D136
:103F200004209A490870994A86215E48FEF788FE67
:103F300004E0972149009648FEF75EFC914800880E
:103F4000002808D0401E052815D9801F03D0401E28
:103F5000012810D915E08B4800888B49085C682837
:103F600003D000208749088004E086480088401C70
:103F7000844908802EE083480088401C81490880DD
:103F800028E0804800888049497A0B3188421CDB50
:103F90007C4800887C49085C16280FD105207B49A5
:103FA00008707B48FEF7FCFB784A86213D48FEF707
:103FB00047FE74480088401C7249488000207149BF
:103FC00008800020FFF7A1FC04E06E480088401C38
:103FD0006C49088039498548FFF70EFC002820D03D
:103FE000334800880100491C314A118080B23149B0
:103FF000095C89B27D48FFF7B3FB2D4800882C4946
:10400000498888420DD37A48FEF7CAFB01202A4925
:1040100008700120FFF779FC002228497348FFF758
:10402000BBFB01BD8B01002010B525497148FFF78E
:10403000E3FB002835D06F48FFF796FB04006E487D
:1040400000881E2802DB00206B490880E4B2082C9F
:1040500009D169480088002823D067480088401E9D
:10406000654908801DE06448008864490C54624832
:104070000088401C60490880E4B20D2C02D0E4B2F4
:104080000A2C0ED10C205E4908705D4A8621054835
:10409000FEF7D6FD58480088574948800020564909
:1040A000088010BDF800002044000240283801407C
:1040B000E8100020D00C0020890100200701070033
:1040C0000501050010B500248020800101F0B3FB3C
:1040D000002846D08020800101F0BCFB4948407890
:1040E00008214843474908184168091F46480068A5
:1040F00001F0BBFA0400E4B2002C32D14148407810
:10410000401C404948703F484078322802DB00207C
:104110003C4948703B4840783A490978884218D071
:1041200008203A4908703748407808214843354903
:104130000818017A89B23348407808225043314A3E
:1041400010184068FFF762FE9D213148FEF754FBCE
:1041500007E009202D4908702C4A86212D48FEF7DA
:104160006FFD8020000201F066FB002809D080204E
:10417000000201F06FFB0A20244908702448FEF772
:104180000FFB10BDEC100020D00D00208A01002094
:104190009C10002080B500206946088001216846F7
:1041A00000F0E6FD68460088002801D0012000E00C
:1041B000002069460988FF2901DA012100E0002179
:1041C000C0B2084211D000206946098880B28842F6
:1041D00006D20100491C80B20F4A1154401CF3E77B
:1041E000684601880C48FFF74DFE01BD00440040C1
:1041F0008C10002000380140F01000203C100020FE
:104200008C01002090010020440600208B0100203A
:10421000AC100020F8000020D00C00200122120673
:104220000118CA420AD28A420DD838221206090958
:104230008918C20FD20711434007704700D04908C0
:104240000909014301E0C10FC90700207047FEE7DB
:104250000CB41CB5040004A80190009401AB0A0042
:104260006946084878441C30FBF724FF0021009A77
:104270001170002801D40098001B02B0019910BCF5
:1042800003B0084737D5FFFF00B5BFF34F8F814814
:1042900081490860BFF34F8FFEE710B500239BB242
:1042A00092B2934205D29BB2C45C9BB2CC545B1CCD
:1042B000F5E710BD00B5002189B28022D2009142FD
:1042C00010DA89B2425C89B2744B5A5489B2734A8B
:1042D000525CFF2A04D1002289B2704B5A5401E08B
:1042E000491CE9E700BDF0B585B004000F000025CA
:1042F0006846102101F0DCFAE4B20420604368490A
:104300000958664801F0D6FA0500002D01D10020B9
:104310003BE00026F6B20F2E1ADAE4B20420604326
:104320005F490858FCF71BFEF6B22818805D3B2851
:104330000ED0E4B20420604359490858FCF70FFE40
:10434000F6B22818805DF6B269468855761CE1E71A
:10435000E4B2052C05D0E4B2062C02D0E4B20A2C5B
:1043600004D1684601F0AEFA38600DE0E4B2072CE3
:1043700006D1684601F0ACFA01F0B0FA386003E00B
:10438000684601F09FFA3880012005B0F0BD00B505
:1043900089B044480078694608764248407806A9C2
:1043A00048704048807806A988703E48C07806A9C1
:1043B000C8703C48007906A908713A48407906A9B6
:1043C00048713848807906A988713648C07906A9AD
:1043D000C8713448007A06A9087206A8C079059009
:1043E00006A8007A049006A80079039006A84079F0
:1043F000029006A88079019006A88078009006A80F
:10440000C3786846027E06A841782748FFF722FC59
:1044100026480078694608762448407806A94870FE
:104420002248807806A988702048C07806A9C870FC
:104430001E48007906A908711C48407906A94871F0
:104440001A48807906A988711848C07906A9C871E8
:104450001648007A06A9087206A8C079059006A831
:10446000007A049006A80079039006A8407902908B
:1044700006A88079019006A88078009006A8C378E5
:104480006846027E06A841780948FFF7E3FB09B0B9
:1044900000BD00000400FA050CED00E04806002015
:1044A0003C000020A09B0008D4970008C09C000896
:1044B0000498000880B572B6FFF7E6FE01BDFEE77E
:1044C00038B504000025CA204849086053204749F0
:1044D000086000F025F8002802D10020050019E04E
:1044E00043480068402188434149086040480068CB
:1044F000216801433E480160A0683E4908603D488C
:1045000000686168090401433A48016000F032F82C
:1045100001200500FF20354908602800C0B232BDE7
:1045200080B50020009000200021664A12685206E3
:104530001CD40022D243634B1A60624A12684023A3
:104540001A401100009A521C0092009A8023DB014D
:104550009A4201D00029F0D05A4A1268520602D578
:104560000122100004E00022100001E001221000EE
:10457000C0B202BD70480068802188436E4908605F
:10458000704780B50020009000200021184A126872
:10459000920602D50122100026E0CA22134B1A60AF
:1045A0005322124B1A60474A1268A0239A43454B84
:1045B0001A60444A126820231A401100009A521CC3
:1045C0000092009A80231B029A4201D00029F0D069
:1045D0003C4A1268920602D50122100001E0002236
:1045E0001000FF22014B1A60C0B202BD2428004017
:1045F0000828004010280040F1B50C0000270025D5
:104600000098002806D131480068400601D40020F7
:10461000E0700AE02D480068400604D5207800F0DC
:104620005FF9070001E00020E070009800280BD03F
:1046300020780004617809020143A0780843E178FA
:10464000090401430F0013E0207800F03DF9060053
:10465000607800F039F9F6B23104C0B206020E43B8
:10466000A07800F031F93043E178090401430F00EC
:10467000CA2015490860532013490860FFF750FF0E
:10468000002802D10020050015E07948384079491A
:104690000860FFF76FFF0D480068800609D4FFF738
:1046A00070FF002802D10020050004E00120050071
:1046B00001E001200500FF20034908602800C0B286
:1046C000F2BD00000C2800402428004008280040CB
:1046D0000021C17000210170002141700021817012
:1046E000704770B505000C000026624800686049FC
:1046F00001400E003000000C8006800E207030005B
:10470000000A4006400E607030004006400EA07067
:104710003000000C40210840E070002D0BD12078C3
:1047200000F0DEF82070607800F0DAF86070A078B1
:1047300000F0D6F8A07070BD0C280040F1B50C0058
:10474000002700250098002807D16078C00604D50E
:104750006078EF2101400A3161700098002807D08D
:10476000607800F0BDF80700A07800F0B9F8070005
:10477000009800280BD0E07800046178090201431A
:10478000A07808432178490301430F0013E0E07843
:1047900000F09AF80600607800F096F8F6B231045E
:1047A000C0B206020E43A07800F08EF830432178A4
:1047B000490301430F00CA203149086053203049A2
:1047C0000860FFF7ADFE002802D10020050015E0CB
:1047D0002A48384028490860FFF7CCFE294800687D
:1047E000800609D4FFF7CDFE002802D10020050085
:1047F00004E00120050001E001200500FF20204920
:1048000008602800C0B2F2BD012101700121817051
:10481000012141700021C170704770B505000C0086
:10482000002615480068154901400E003000000CB4
:10483000E0703000000AC006C00E607030008006D4
:10484000800EA0703000400B4007400F2070002DFC
:104850000DD1E07800F044F8E070607800F040F8A6
:104860006070A07800F03CF8A0702078207070BDD7
:104870007F7F7F0000280040042800403FFFFF00AA
:10488000242800400828004081B0002200920D4AF0
:104890000092009A04234343D2180092009A1160B8
:1048A00001B0704781B001000020009005480090E1
:1048B000009804224A43801800900098006801B0D4
:1048C000704700005028004000B50021C0B20A28FF
:1048D00002DB491C0A38F9E709010843C0B200BDF0
:1048E00000210200D2B212090A235A431100000724
:1048F000000F0818C0B270479D2102000AD002D4F0
:10490000491E9218FCD5C905100A1206524100D35F
:10491000012A4841704730B405004D400122D207BA
:1049200015404B180418240E30D01B0E34D0FF2C29
:1049300036D0FF2B3CD0E41800020902104311438B
:10494000000A090A9446C2B24A43000AC3B24B4362
:10495000000A4843110A5B18190A12061B0C1A4375
:10496000120A091801D44918641E080A7F3C23DB87
:10497000FE2C08DAE40509061143634699416041BB
:10498000284330BC7047FF20C005F9E728001B0E04
:10499000FF2BF6D1D043F4E72800FF2CF1D1F9E743
:1049A0004002F7D1FF2B01D14902F3D1E005E7E73F
:1049B000D8054902E4D0EDE743020020641CDFD1B2
:1049C0005B129B1CDCD9D805DAE7012252054B1893
:1049D00050D2D3424DD25B0D4BD030B41C05A14315
:1049E00055082943D40AE41E1B195B0801D300189B
:1049F00049411B059C466C19091B001849410018C8
:104A00004941641900239202491B07D46D081DD245
:104A1000091B641900184941491BF7D56D080AD2D2
:104A20000919641B00184941491BEFD56D08F7D3DC
:104A300001E0520817D0C01861419B1AAC41001820
:104A40004941801AA941F4D452080AD0C01AA141A0
:104A50009B186C4100184941801AA941E9D45208B9
:104A6000F4D15B1C6C415808E207104361086144B3
:104A700030BC70470020590DFBD0C943D342F8D851
:104A800002B500F05DFF02BD10B51B480068401C78
:104A90001949086019480068401C18490860FDF76A
:104AA00087FD002804D016480068401C144908609F
:104AB000FDF762FE002807D010480468FDF766FE87
:104AC000844201D3FDF727FE0E480068401E0D49C1
:104AD0000860002808D10C480068401C0A4908609A
:104AE000FA2080000749086010BD0448006870473C
:104AF0000348006870470000E4100020BC1000204C
:104B0000D41000207C010020D010002038B5050012
:104B10000C006C60FFF7E9FF286031BD10B50400A0
:104B2000FFF7E3FF2168401A401C6168814201D20F
:104B3000012000E00020C0B210BDFEE7024801499C
:104B40000860704700300040AAAA0000C0B24106C9
:104B5000490E014A11607047002C0040B7480068B8
:104B6000704780B5B6484088002805D000F00FF89F
:104B7000B4A0FFF76FF802E0B348FFF76BF81E210F
:104B8000B24800F0B2FD0020AD49488001BDFEB53D
:104B900000200090002400251F206946087201278C
:104BA00000266846007AF6B286424ED2F6B2082057
:104BB0007043A7490858019000200400F6B208206D
:104BC0007043A349085800780500EDB2002D09D0C4
:104BD000641CE4B2F6B2082070439D490858005D99
:104BE0000500F2E7012007000020C0B2E4B2A042B5
:104BF0000CD2C0B20199095CC0B2944A125C9142D5
:104C000002D00020070001E0401CEEE7E4B2002CD7
:104C100001D100200700FFB2002F14D0FFF79EFF44
:104C20000090B0A0FFF716F8F6B208204643884877
:104C3000801940688047FFF791FF0099411AAA4800
:104C4000FFF708F801E0761CABE7FFB2002F0ED1AA
:104C50007E4800780D2807D07C4800780A2803D0C9
:104C6000C748FEF7F7FF02E09EA0FEF7F3FFF7BD8F
:104C7000F3B581B00024002500200400A4B21E2C4E
:104C800072D2A4B27148005D20286BD16D1C6846B9
:104C9000007AEDB2854265D1A4B26C4800198078E3
:104CA00020280BD0A4B26948001980780D2805D0BF
:104CB000A4B26648001980780A2808D1A4B26348D3
:104CC0000019407800F012F90199087049E0A4B287
:104CD0005E480019C07820280BD0A4B25B480019A8
:104CE000C0780D2805D0A4B258480019C0780A2809
:104CF00013D1A4B255480019407800F0F7F8070026
:104D00000A204743A4B251480019807800F0EEF819
:104D10000600F6190198067023E0A4B24B4800196A
:104D2000407800F0E3F869460870684669460978FB
:104D3000642251430170A4B244480019807800F005
:104D4000D5F807000A204743A4B240480019C078AC
:104D500000F0CCF8060068460078C01936180198B3
:104D6000067004E0641C89E7002001990870F7BD13
:104D7000F3B582B00020002400216A4611700021A2
:104D8000012200236D466B7000230025280080B2AD
:104D90001E2850D280B22D4D2D5C202D49D1641C8F
:104DA0006D462D7BE4B2AC4243D180B2274D2D1825
:104DB0006D1C80B2254E3618761C01962E78202E5A
:104DC0000BD06D1C2E780D2E02D02E780A2E00D11D
:104DD00003E0019EAE1B062EF0DB6F46BC462F00A3
:104DE000019EBE1B67463E70019E36782D2E01D176
:104DF000012633006E4636783400DBB2E4B2A342BB
:104E00000ED26D1E6E462F78303F777089B292B207
:104E10006E467678564389190A267243641EECE77B
:104E2000DBB2012B01D10026711A00266F463E70BD
:104E300001E0401CABE7029D2980FFBDE41000208B
:104E4000F0100020433E0000389900083C1000207C
:104E500084930008F2B501000022002400200B001A
:104E600000252A0092B21E2A39D292B2C84DAD5CFA
:104E7000202D32D1641C6D462D78E4B2AC422CD189
:104E800092B2C34DAD186D78202D01D0012500E000
:104E9000002592B2BE4EB61876780D2E01D00126AE
:104EA00000E0002692B2BA4FBF187F780A2F01D0D7
:104EB000012700E00027EDB2F6B22E40FFB23740E6
:104EC000002F08D092B2B24DAD186D781D705B1CEA
:104ED000521C401CD4E7C0B202E0521CC2E7C0B270
:104EE000F2BD00000D0A0000E899000800B50100BD
:104EF000C9B2302906DBC9B23A2903DA30390800D1
:104F0000C0B214E0C9B2612906DBC9B2672903DA6D
:104F100057390800C0B20AE0C9B2412906DBC9B25C
:104F2000472903DA37390800C0B200E0002000BD8D
:104F300080B500206946087001216846FFF798FE99
:104F40006846007840B200F025FD01BD80B5002024
:104F50006946087000206946487001216846FFF7DD
:104F600087FE00A9491C6846007801F00CF86846E5
:104F7000427868460178D948FEF76CFE01BD000012
:104F80005499000880B500206946087000206946E1
:104F9000887000206946487001216846FFF768FE66
:104FA000022100A8801CFFF763FE684681786846EE
:104FB000007800F0DFFF00A9491C6846007800F087
:104FC000E2FF6846427868460178C448FEF742FE30
:104FD00001BD10B582B000206946487000206946C6
:104FE0000870012100A8401CFFF742FE022168461C
:104FF000FFF73EFE6846447868460078E4B2A04277
:1050000019D3E4B220000A21FCF74AFA002905D19D
:10501000E4B2002C02D0D7A0FEF71CFE00A9891C28
:105020002000C0B200F0AFFF68468178AC48FEF7C0
:1050300011FE641CE0E7CFA0FEF70CFE13BD80B5A7
:1050400001216846FFF714FE68460178DE4801F04A
:1050500045FB01BD80B5002001F0FAFB01BD7047A2
:1050600080B501F0BDF801BD80B50020694608702B
:1050700001216846FFF7FCFD68460078D3490870B7
:1050800001F0AEF801BD1FB50020009001A80C2171
:1050900000F00EFC012101A8FFF7DCFE6846007954
:1050A00030280AD101A84078782806D110220021A2
:1050B00001A801F07FFD040003E001A800F002FC5C
:1050C000040069462000C0B2FCF723FF009AE4B256
:1050D0002100DD48FEF7BEFD1FBD30B587B00121C0
:1050E0006846FFF7B7FE022103A8FFF7B3FE684644
:1050F000007830280AD168464078782806D11022F6
:105100000021684601F056FD050003E0684600F006
:10511000D9FB05006846007B30280AD103A84078F7
:10512000782806D11022002103A801F043FD0400D5
:1051300003E003A800F0C6FB040021002800C0B271
:10514000FCF7B8FE07B030BD80B501216846FFF717
:105150000FFE6846008880B2000A6946887068467B
:10516000008800A9891C4870E521EA20FCF797FD1A
:10517000022200A9891C0220FCF7C6FDDC21EA20DE
:10518000FCF78DFD68460088D449088001BD000009
:105190003C10002030B583B001216846FFF75AFE6D
:1051A000684600F095FB0022C14BFCF795FA00F031
:1051B00095FB0400FE218905200001F000FD01009F
:1051C000802000064440200001F084FD04002000FF
:1051D000002101F0D5FD09D08E21C9052000FFF77F
:1051E0009AFB01F0DDFD80B205000CE08E21C905BF
:1051F0002000FFF790FB8F21C90501F0E0FC01F0D2
:10520000CFFD80B205002800001269460870280012
:1052100069464870E521EA20FCF741FD0222694613
:105220000520FCF771FDDC21EA20FCF738FD2800A1
:10523000BA49888037BD7CB501216846FFF70AFE70
:10524000684600F045FB0022994BFCF745FA00F058
:1052500045FB06003000802109064840FEF7DEFFCE
:10526000A4A20CCAFCF738FA01F0B8FD00F036FB36
:1052700004002000FEF7D2FFA0A20CCAFCF72CFA13
:105280000022A04BFCF766F99FA20CCAFCF724FA97
:1052900000F024FB04002000002101F017FE04D2DE
:1052A000200001F07DFD050007E08721C9052000F1
:1052B00001F085FC01F074FD0500E521EA20FCF712
:1052C000EEFC2900C9B20720FCF7E9FCDC21EA204A
:1052D000FCF7E5FCEDB29148C58073BD109B00085A
:1052E000489D000880B569462420FCF712FE00980E
:1052F0008A49C86069462220FCF70BFE009887495E
:105300000861834885494861002084490886002057
:105310008249C86200208149088301207F490885AD
:1053200069462620FCF7F5FD0098002803D5009873
:10533000C143491C00910098FBF7B2FF0022754B56
:10534000FCF708F90022744BFCF7C6F9FBF760FF85
:1053500080B280214900FCF7A3F8704948806F486B
:1053600041880320FCF7A6FDFCF732FEFDF70CF8A0
:1053700001BD00000D0A000000B589B05748C06AA1
:1053800008905648008E07905448008B069053486A
:105390004069FEF743FF049005915048006903906F
:1053A0004E48C06802904D48008901904B48C08823
:1053B00000904A48838849484288484801885B48A9
:1053C000FEF748FC09B000BDD00E002019110020E6
:1053D00080B5FCF719FD514801880220FCF76AFDF1
:1053E00000204E49488000204C49888000204B49CD
:1053F000C88000204949088100204849C860002031
:105400004649086100204549486100204349088316
:1054100000204249088600204049C86201BD80B58D
:105420003F48FEF747FF3F494148FEF713FC01BDE7
:1054300080B502213C48FEF732F801BD80B502215B
:105440003948FEF729F801BD209B000880B50121ED
:105450006846FFF70DFC68460078002804D1022159
:105460003148FEF719F807E002212F48FEF717F838
:1054700068460078FCF790FB684601782D48FEF7F7
:10548000E9FB01BD10B5FDF70FF8FDF78AF8040040
:1054900021002948FEF7DEFB10BD10B5FDF72CF802
:1054A0000400E4B221002548FEF7D4FB10BD000043
:1054B0000000594080B5FCF74FFF21A0FEF7CAFB62
:1054C00001BD80B5FCF784FF0448038C0348C26922
:1054D0000248418B1B48FEF7BDFB01BD00000020C8
:1054E00010B5FCF775FB0400A4B221001648FEF7C6
:1054F000B1FB10BD83C0CAA145B6FB3F7B14AE47CC
:10550000E17A943F008066404AD8124DFB21094061
:1055100082E268410000104000408F4000000020FF
:1055200000FC00084806002000040048D09600084F
:10553000509D0008489C0008309B0008409B0008D4
:105540006F6B0000009A0008549C000880B500F0C2
:1055500001F801BD38B56421324800F0C6F80020DA
:105560000500ADB2042D0ED2ADB2142068432D4912
:1055700008180400ADB2142068432A4908181430F2
:1055800060606D1CEDE7ADB2142068432549081832
:1055900004000020606023482349086031BDFFB546
:1055A00083B0002601F0A6FC06001F480068070033
:1055B0001D480068002804D01B48006840681A494C
:1055C0000860300001F09AFC002F04D15A2006999F
:1055D0000870002023E003980090039804000498CA
:1055E000401E0190002005000198854206D20598D2
:1055F00024180098046000946D1CF5E700200099C1
:1056000008600398386003987860049838610498BB
:10561000F8600598B860002006990870380007B057
:10562000F0BD0000D80F0020E0100020F8B5040005
:105630000F00002601F05EFC0600206900280DD056
:1056400060680500286860602069401E20613000A5
:1056500001F054FC00203870280005E0300001F013
:105660004DFC5D2038700020F2BD70B505000C00C7
:10567000002601F03FFC06002869E968884204D34F
:10568000300001F03BFC5E2009E0686820606C603F
:105690002869401C2861300001F030FC002070BDFA
:1056A00070B505000C00002601F024FC06002868F7
:1056B000206068686060A868A060E868E0602869A9
:1056C0002061300001F01AFCE0682169401A606135
:1056D000002070BD00B592B2002A05D00B7803708F
:1056E000491C401C521EF6E700BD00B589B20029D6
:1056F00004D000220270401C491EF7E700BDFEE7FF
:1057000018B583B000240294002902D100940194BA
:1057100002E00090491E019103AB694606487844B7
:105720001630FAF7C7FC0099002900D00C70002849
:1057300000D4029804B010BD5542000000B50168C5
:10574000464A0A40026000210160002141600021B8
:1057500081600021C1604249884206D141490968FF
:105760000F220A433F490A6029E03F49884206D197
:105770003C490968F0220A433A490A601FE03B4964
:10578000884207D137490968F02212010A43354996
:105790000A6014E03649884207D132490968F0228C
:1057A00012020A432F490A6009E03249884206D1B1
:1057B0002C490968F02212030A432A490A6000BDF5
:1057C00030B40023026813001A002B4B13401A0058
:1057D0008B680C6A1C430B6923434C691C438B691F
:1057E0002343CC691C434D6A25438B6A2B431343E7
:1057F0000360CA6842600A6882604A68C26030BC5E
:10580000704700B5C9B2002904D0026801231343D0
:10581000036003E00268114B1340036000BD00B554
:10582000D2B2002A03D003680B43036002E003688E
:105830008B43036000BD00B5010000200F4A1268D1
:105840000A40002A02D00122100001E000221000CC
:10585000C0B200BD0349086070470000FEFF0000B1
:1058600008000240040002401C00024030000240D8
:1058700044000240580002400F80FFFF0000024039
:10588000130030B414001500103902D310393CC095
:10589000FCD2490700D30CC000D504C0890002D354
:1058A0000280801C002900D5027030BC70470000C7
:1058B0000022E5E738B505000C002100280001F0C2
:1058C00020FB32BD80B50A22002101F0CAFB02BDD7
:1058D00080B50022002101F091FC04BD0122520597
:1058E0004B18DA4201D9581570475B0D0722D201D7
:1058F0009B1A10D9FF2B1DD2DB050122D2070A40CB
:1059000013430903020D1143490AC200524100D951
:10591000491CC81870470AD1800A0A030243521270
:10592000921C04D9D3070B40D00518437047C80F09
:10593000C0077047C80F0002FF30C0057047FEE780
:105940001FB501F061FC212101601FBD10B50400ED
:10595000794804602000FBF7A3FC0022774BFBF79B
:10596000BBFEFBF767FC04002000000C82490968BD
:1059700088712000000A80490968C87120007E49AA
:105980000968087203227C480168891D062000F01E
:10599000B3FA10BD10B50400774801680931092039
:1059A00000F0F1FA744801684C314D2000F0EBFA38
:1059B00071480068407A000647D56F4800684C304F
:1059C00000788721014087291FD164B2052C01DAB4
:1059D0000520040064B2152C01DB14200400664885
:1059E0000068407A70210143634800684172624850
:1059F0000068407AF021014064B2601F0007000F88
:105A000008435D490968487242E064B2022C01DA39
:105A10000220040064B2122C01DB1120040056485D
:105A20000068407A7021014353480068417252482F
:105A30000068407AF021014064B2A01E0007000F08
:105A400008434D490968487222E064B20020C0430F
:105A5000844202DA0020C043040064B20F2C01DB50
:105A60000E20040044480068407A702101434248F7
:105A70000068417240480068407AF021014064B2F9
:105A80002000401C0007000F08433B49096848728A
:105A900039480068417A092000F06CFA2648047100
:105AA00010BD10B50400344801681D311D2000F000
:105AB0006AFA31480068407F0007000F2101014366
:105AC0002D48006841772C480068417F1D2000F078
:105AD00051FA1948447110BD10B50400E4B20D2C00
