:020000040800F2
:10000000D0170020F57600084174000863740008DA
:1000100000000000000000000000000000000000E0
:1000200000000000000000000000000067740008ED
:10003000000000000000000069740008395000084A
:100040004B39000800000000FB470008CF500008B3
:10005000EB720008A35600086F5D000865200008D9
:1000600000000000475F000821440008CF5F00083F
:1000700017610008576200080F63000800000000C5
:100080001F6300080000000000000000FB6F000874
:100090002F7300086B7400084F7500085B7500082B
:1000A0006D7800086F7800087178000885430008B3
:1000B00045420008F1B5A4B015001F00069104AC3C
:1000C0000020E0620AE00698249A904706900028F3
:1000D00000D103E3E06A401CE0626D1C297800292E
:1000E00001D1E06AFCE22529EDD100206061A06128
:1000F000E06120626062A06202E00100012008432A
:100100006D1C29782029F8D023290ED02B2904D062
:100110002D2907D030290BD00DE001000220084323
:1001200080B2EDE701000420F9E701000820F6E7BE
:1001300001001020F3E72A290ED139680A1D3A6020
:1001400009686163002905D54A4262630100042001
:10015000084380B26D1C12E0002161630AE0626B0B
:10016000734B9A4205D093009A18520051183039B7
:1001700061636D1C29780A00303A0A2AEFD3297886
:100180002E2903D00021C94321631DE06D1C29786D
:100190002A2906D139680A1D3A60096821636D1C55
:1001A00012E0002121630AE0226B614B9A4205D0E4
:1001B00093009A1852005118303921636D1C297828
:1001C0000A00303A0A2AEFD3208729785748784422
:1001D000FF305B3000F0B9FE002801D028786D1C9C
:1001E0003A216054605C682804D12978682901D1DB
:1001F000622005E06C2806D128786C2803D1712094
:100200003A2160546D1C15A820612A781000253809
:100210002AD01C3800D1CEE0001F022800D8CAE046
:10022000133800D1F2E0093800D1C4E0801E00D1BB
:1002300089E1401E00D132E1401E022800D8BAE018
:10024000001F00D12BE1401F00D18AE0401E00D1E9
:10025000DCE0401E23D0C01E0BD0801E00D1D5E0B4
:10026000C01E00D1D2E078E16069411C61612521A6
:1002700070E13868011D39600068E060226B002A77
:1002800002D500F06CFE08E0002100F070FE0028AE
:1002900002D0E168401A00E0206BA0616AE1386892
:1002A000011D396002680020C0430021104004AAEB
:1002B00003C215A8E0603C2204A803C802AB03C334
:1002C00002A803C8002904D1002802D1206B00280D
:1002D0001CD0521E02A803C80007000F3030C0B265
:1002E0003A2800DB273015A98B18187002A803C81C
:1002F00000090E073043090902AE03C602A803C86D
:1003000001D1002802D0E0689842E2D33C20801A54
:10031000A06115A98918E160216B88420CDA081ADE
:100320002062208F03490140218723E1EC72000005
:10033000FFFFFF7FEFFF0000002900D41AE1382102
:10034000615C14220A40102A00D013E1616B6269DB
:10035000891A226A891A0A1A012A00DA0AE1226233
:1003600008E13A20205C622817D0682806D06A2865
:100370000BD06C2818D0712807D015E03868011D03
:100380003960E16A00680180F4E03A68101D386065
:10039000E06AC117126803C2ECE03868011D3960D9
:1003A000E16A00680170E5E03868011D3960E16AC2
:1003B00000680160DEE03868C01D072188433860AE
:1003C00001000831396003C804AB03C3002904D518
:1003D0006069411C61612D210DE0208F810704D5EA
:1003E0006069411C61612B2105E0C00705D560698A
:1003F000411C6161202115AB1954606915A90818C9
:10040000E060110004A800F007FAB3E03A20235C92
:100410006C2B01D138680FE0712B01D1386802E0F4
:100420006A2B386808D1C01D072188433860010055
:100430000831396003C803E0011D396000680021FC
:1004400004AE03C6682B03D104A803C880B20BE036
:10045000622B03D104A803C8C0B205E0742B01D0FD
:100460007A2B04D104A803C8002104AB03C33820AD
:10047000205C00075ED504A803C8002901D100282C
:1004800058D020201043782854D16069302115AB12
:100490001954401C411C616115A90A544AE03A20D4
:1004A000205C62280CD0682810D06A281AD06C28EA
:1004B00022D0712816D074281ED07A280CD01BE0C8
:1004C0003868011D3960006840B219E03868011DC4
:1004D0003960006800B213E03868011D39600068B7
:1004E00000210EE03868C01D0721884338600100F4
:1004F0000831396003C804E03868011D39600068BC
:10050000C11704AB03C3002904DA6069411C6161AF
:100510002D210DE0208F810704D56069411C6161A8
:100520002B2105E0C00705D56069411C61612021D0
:1005300015AB1954606915A90818E060110004A8EA
:1005400000F0D0F816E06069411C616139680A1D4D
:100550003A60096815AA11540CE06069411C616198
:10056000252115AB1954002A04D06069411C616132
:1005700015A90A546D1C606B6169401A216A401A02
:10058000A169401A616A401AE169401AA16A401AD9
:1005900014903820205C400711D42020694608714F
:1005A000002609E0012301AA04A9249800F0B3FC65
:1005B000002800D092E0761C14988642F2DB66692F
:1005C00015A800900FE0009801780698249A9047AB
:1005D0000690002800D181E0E06A401CE0620098AB
:1005E000401C0090761E002EEDD130206946087127
:1005F000206A009008E0012301AA04A9249800F0D1
:100600008AFC00286AD1761C00988642F3DBA66932
:10061000E06800900EE0009801780698249A9047D0
:10062000069000285AD0E06A401CE0620098401C06
:100630000090761E002EEED1302069460871606A67
:10064000009008E0012301AA04A9249800F063FCAB
:10065000002843D1761C00988642F3DBE669A06946
:10066000E168081800900EE0009801780698249A36
:1006700090470690002831D0E06A401CE062009864
:10068000401C0090761E002EEED130206946087185
:10069000A06A009008E0012301AA04A9249800F0B0
:1006A0003AFC00281AD1761C00988642F3DB3820E9
:1006B000205C400700D411E520206946087100261F
:1006C00000E0761C1498864200DB07E5012301AAAE
:1006D00004A9249800F01FFC0028F2D00020C04399
:1006E00025B0F0BDF3B583B0006900906846027C88
:1006F0006F2A01D1082406E020211143782901D076
:100700000A2400E010243C25039803C806000F00CB
:10071000642A01D0692A07D1002905DA00200021C6
:10072000801BB94106000F00002F12D1002E10D1FE
:100730000398006B00280CD1082C3CD1039838306A
:100740000078000737D53B25302000993B310870F1
:1007500031E06D1E0195300039002200E31700F0F2
:1007600012FC3032D2B23A2A03DB6846007C5138A0
:10077000121800994A55300039002200E31700F0A2
:1007800002FC06000F0001D1002E05D00398C068BE
:10079000009949198842DCD3082C0CD103983830D1
:1007A0000078000707D50098405D302803D06D1E03
:1007B0003020009948553C20401B039988610099DE
:1007C0004919039AD1600399096B884209DA081A1A
:1007D000039908620398008F0E490140039801872E
:1007E00015E0002913D503993831097814220A40FD
:1007F000102A0CD10399496B039A5269891A039AFA
:10080000126A891A0D1A012D01DB0398056205B0E1
:10081000F0BD0000EFFF0000F3B591B007AD03C8D5
:1008200002AA03C212A80078202101430091612985
:100830000BD01198006B002801D5062003E004D1ED
:10084000672902D101201199086311984168480075
:10085000400DAA4A904225D1080310D11198006892
:1008600000280CD103201199886112A80078613802
:100870001A2842D3234878448A3000900BE00320A2
:100880001199886112A8007861381A2831D31E485E
:10089000784474300090032200991198C06800F0E9
:1008A000A7FBF8E1012817DA119800F0CFFB012827
:1008B00012DB002600270098612832D11198C06809
:1008C00030210170401C411C119AD16012A9097895
:1008D00061291FD178211EE011994968884A0A4090
:1008E00088491143119A51608749471A0026F643F7
:1008F000E1E7064878441430CCE7054878441030E6
:10090000BBE700BF286D00001C6D0000146D0000E7
:10091000186D00005821017011984069801C1199D0
:100920004861002E03D1002468468680A9E1009822
:10093000612800D09FE01198046B002C01D5212480
:1009400000E0641C24B2601C0090119803C804AA43
:1009500003C202A803C80022002300F099FB04A8E8
:1009600003C802D280221206514002AA03C2381FD5
:100970006946888000260E7707AF7F1C00E0FF1DC8
:100980000098012830DB02A803C80022002300F0F1
:1009900098FB29D21C2102A800F0ACFB02A803C8D6
:1009A00000F036FC05000098C01F009001280ADB0B
:1009B000280000F06BFC02000B0002A803C800F046
:1009C000E2FC02AA03C2FF1D072004E07F1E2907E4
:1009D000090F39702D11012D01DB401EF6D5401E87
:1009E000CDD47F1E3E70FAE707A8401C391A07AD28
:1009F0006D1CA14200DA0C0024B2200032D48842DF
:100A000005DA07A909184978082900DB0F2607A984
:100A1000091801E0641E491E401E0A78B242F9D04E
:100A20000F2E04D107A909184A78521C4A700028D1
:100A300006D507AD641C019800B2001D6946888088
:100A400024B2601E0ED429180A783032D2B23A2A63
:100A500003DB12AB1B783A3BD2180A70401E491ECA
:100A60000028F1D51198006B002800D409E1601E20
:100A70001199086305E102A803C80022002300F0D1
:100A800007FB06D202A803C880221206514002AA20
:100A900003C23FB281487843814900F001FD6946B5
:100AA00088800720019909B2421A00207D49012A55
:100AB00020DB049202AA30CA00260F000498C00767
:100AC00007D532003B002000290000F043FD040060
:100AD0000D000498401004903000390032003B00B3
:100AE00000F038FD06000F0004980028E6D102A8A7
:100AF00030C028E0544200266B4F18E0FF0700008A
:100B0000FFFF0F800000E03FFE030000E00707D575
:100B100004A803C832003B0000F01CFD06000F00D3
:100B2000641004A803C804AA0CCA00F013FD04AAA8
:100B300003C2002CEAD102A803C832003B0000F037
:100B4000CBFD02AA03C20098662803D1019800B227
:100B50000A3000E006201199096B08180490142847
:100B600001DB1320049030206946087707AC641C31
:100B70000498012841DB02A803C800F05BFB0600D3
:100B800008340594042430000A2100F08CFC0F0086
:100B900030000A2100F087FC06000598401E0690F0
:100BA0003037077030000A2100F07DFC0F00300064
:100BB0000A2100F078FC06000698401E05903037A8
:100BC0000770641EDFD1059C08340498083804902F
:100BD0000128CDDB02A803C800F02CFB00F060FB6D
:100BE00002000B0002A803C800F0CDFB00222F4B2F
:100BF00000F0B0FC02AA03C2BDE707A8401C201AFF
:100C000007AD6D1C6A4605E0401E019909B2491EF8
:100C100091806D1C29783029F6D00099662903D17E
:100C2000019909B2491C04E0652901D1012100E0C4
:100C30000021119A126B541824B2A04200DA040069
:100C400024B221001DD4814204DA685C352801DB1E
:100C5000392000E030206A1800E0641E521E491E50
:100C600013788342F9D0392802D1685C401C68545B
:100C7000002906D56D1E641C019800B2401C69460F
:100C80008880019800B2009023B22A0012A801784F
:100C9000119800F00DF813B0F0BD0000977500003A
:100CA000A0860100000024400000F03F84D7974157
:100CB000F6B587B004001D00266B012D02DA012570
:100CC000A1A00890202008430E9F662801D17F1C18
:100CD00014E067287CD13FB20320C04387427BDB0E
:100CE000B74279DA7F1C3820205C000702D4B54275
:100CF00000DA2E003FB2F61B00D50026E068009017
:100D0000A16940183FB2012F24DA491C3022027039
:100D1000012E03DA3820205C000703D52E20009A2C
:100D20005054491CA1617842864200DA77423FB2B2
:100D300078426062F619AE4200DA35002DB2E56104
:100D40002A000899A069009B181800F051F9701B3F
:100D5000A062CAE0BD4216DA2A00089900F048F9FC
:100D6000A0694019A061791B6162012E03DA382164
:100D7000615C090705D52E21E2681154E069401C29
:100D8000E061A662B1E03A00089900F031F9A0698B
:100D9000C019ED1B012E03DA3821615C090703D568
:100DA0002E21E2681154401CA0612DB2AE4200DA3F
:100DB00035002DB22A000898C119A069E3681818F7
:100DC00000F016F9A0694019A061701B60628CE008
:100DD000612911D1702012E0B54204DA3820205C7C
:100DE000000700D42E00761E00D50026672901D109
:100DF000652004E0452002E0412902D150206946E7
:100E00000877A169481CE2680092089A1278009B52
:100E10005A540899491C012E05DA3822A25C12079F
:100E200001D4A06116E02E22009B1A54401CA06140
:100E3000012E0FDB6D1E2DB2AE4200DA35002DB251
:100E40002A00009B181800F0D3F8A0694019A0618F
:100E5000701B6062A069E16808186946097F01702B
:100E6000401C3FB2390004D42B210170401C089073
:100E700004E02D220270401C08904F42002503AE72
:100E800008E00A2201A800F088FC02983070019F57
:100E90006D1C761C39B20129F3DA022D0BDA684693
:100EA000007F20210143652905D130200899087071
:100EB0000898401C0890002D0FD130200899087028
:100EC0000898401C08900AE06D1E03A8405D303071
:100ED000089908700898401C0890012DF4DA0898C9
:100EE000A169E2685118401AE0613820205C1421A1
:100EF000014010290DD16069A1694018616A40184C
:100F0000E1694018A16A4018616B884201DA081A49
:100F1000206209B0F0BD79B50C0016001D0000205C
:100F200005E0E06A401CE0620020761C6D1E002D8A
:100F300008D03178A068009A9047A0600028F0D1CE
:100F40000020C04376BD00003000C9B200E0401C64
:100F500002788A4202D0002AF9D1002070470100AD
:100F600000E0491C0A78002AFBD1081A7047C9B270
:100F700001E0401C521E002A03D003788B42F8D1B6
:100F8000704700207047124224D0994228D970B58A
:100F900000251B4202D00C00002109E0002401269C
:100FA00049186441944200D3A41A7641F8D3310021
:100FB000012601E0764109D2001864416D41A41A6E
:100FC0009D41F7D2A4185D41B619F5D33000220037
:100FD0002B0070BD1B42D8D108B500F0EFFB08BD57
:100FE00001D19042D3D202000B00002100207047B3
:100FF000124207D08B0706D00B78491C0370401CA7
:10100000521EF7D87047830706D00B78491C03702F
:10101000401C521EF9D1704770B4103A03D378C9FE
:10102000103A78C0FBD2530701D318C918C001D5B4
:1010300008C908C0D20704D30B880380891C801C10
:10104000002A01D50B78037070BC704738B40100DA
:101050004B68802212061A4001201B031B0B4B60B9
:101060000BD10B68002B08D10DE00B686400DD0F7D
:1010700025434D605B000B60401E4C68E302F4D5D5
:1010800023031B0B4B604B681A434A6032BC70470A
:1010900030B4012464054D00EC420BD85D00EC42F5
:1010A00008D80C001C4364000443144304D2994242
:1010B00000D1904230BC7047FCD08B42FAD18242C2
:1010C000F8E730B4012464054D00EC420BD85D0014
:1010D000EC4208D80C001C4364000443144304D2BF
:1010E0008B4200D1824230BC7047FCD09942FAD189
:1010F0009042F8E770B504000D0060684000400DB4
:101100003F4EB04207D16068000302D1206800283A
:1011100016D0022070BD002804D12000FFF796FFF2
:1011200001286BDA012D0DDB311A8D420AD360687C
:10113000002802D50020334901E00020310503C416
:10114000012070BD4142A942616806DA2E4A0A4078
:10115000281800051043606047E080221206114005
:1011600062681203120B80235B0313436360401E0B
:101170002D1800202A003532352A02D36160206004
:1011800070BD00221E23DB439D4204DA2035226815
:10119000636823606060684211D0521E9241D2435E
:1011A000D20F20231B1A25689D402A432568C5407D
:1011B00066689E402E4326606368C3406360606833
:1011C000084360601148824206D2802000068242B5
:1011D0000ED12078C0070BD52068401C2060206805
:1011E000002805D16068401C60600020C04370BDCD
:1011F00060688842F9D120680028F6D1002070BDCF
:10120000FF0700000000F0FFFFFF0F8001000080DB
:10121000F4464A1805D200F00FF801D580174008AF
:10122000604700F009F80121C907884200D9080089
:10123000404260474A1812D2400DC90208430121BA
:10124000C9070843520D40210901521A521C06D405
:1012500052421F3201D4D0407047C017704700205F
:10126000704738B4012100220368001D002B0BD009
:101270000468001D0C4202D04D466D1E64192260A8
:10128000241D1B1FF0D0FAE732BC7047010009D5BE
:10129000F446404200F006F80122D20711436047AD
:1012A000010000BF42221201D21E004207D002D428
:1012B000521E0018FCD5C10A400512058918704756
:1012C000F0B40125ED070F005F404FD48B4200D1F1
:1012D000824205D98446100062468C461900634656
:1012E000DF184C18640D7F0D3AD0661C760537D098
:1012F000E61B352E34DCDB022B43DB0A0C0DC90266
:101300002943C912202E0DDB1700203E06D01F00F6
:10131000F741F3405F400026012A7741C018714130
:101320000DD217E01700F741F2405740F3415A4001
:10133000B340F3405A400026801859410AD3A21CFA
:1013400052050FD0C207012F724117004008CB078A
:1013500018434908641C24054208AF4170416141AB
:10136000F0BC7047641C21050020F9E76B4010E0D9
:101370006B40ABE7F742F3D1E943F1E72442EFD109
:1013800000200021ECE7F0B40125ED070F005F40DD
:10139000EED40C00871A9C4105D2C01BA141D21982
:1013A000634169406B40AE0ADF184C18F442E1D249
:1013B000640D7F0DE2D0E61B362ED1DCDB022B4321
:1013C000DB0AA4460C0DC9022943C90A012E28DCF8
:1013D00004D1D6075208DF073A435B08EF0A76428A
:1013E0009041994114D039423BD1B619404149410D
:1013F000761C394204D1761C001849413942FAD092
:10140000B9436746B74208D9A41B24052143A7E77F
:101410000042EAD13642E8D1A2E7E40AE10700201F
:101420009EE7202E0BDD203E1F00F340F7415F407A
:10143000012A002257417E42984191410BE017005A
:10144000F741F2405740F3415A40B340F3405A400D
:101450007E42904199410A0303D2641EB61940416D
:1014600049410027641E24054208AE41784161418C
:10147000F0BC7047F446002804D4494200F013F849
:10148000404260474042002905D45FD000F00BF88D
:10149000404249426047494200F005F849426047EE
:1014A00003460B43E6D40022030A8B420BD2030906
:1014B0008B4219D243088B422ED2411A00D20146E8
:1014C000524110467047FF2209023FD012068B425C
:1014D00005D3121209028B4201D312120902030929
:1014E0008B4219D300E0090AC3098B4201D3CB0117
:1014F000C01A524183098B4201D38B01C01A524159
:1015000043098B4201D34B01C01A524103098B425C
:1015100001D30B01C01A5241C3088B4201D3CB0047
:10152000C01A524183088B4201D38B00C01A52412A
:1015300043088B4201D34B00C01A5241884200D36A
:10154000401A5241CFD201461046704708B500F00C
:1015500037F908BDF0B50E005E400125ED072E40BD
:10156000B446AE0ADF184C18F44208D2F7420ED245
:10157000640D01D07F0D12D100206146F0BD05D170
:10158000F74201D87F0D05D10020C143F0BDFBD14A
:10159000640DF9D00020C143490549088FE0E419E2
:1015A000C902DB0229432B43DB0A460DC00231434B
:1015B0008E4630B487B295B27D432E0CADB2140C7A
:1015C0007C43A419260C240425439CB27C43A41913
:1015D000190C7943270CC919A4B20F043C43090C18
:1015E000000C97B247432E0CBE193543ADB2170C11
:1015F0004743360CBF19A6B2BF193E043543240C2D
:101600003E0C36199FB24743BF19BCB23E0C891934
:101610001F0C47437F183E043443390C704680B298
:1016200097B247432E0CBE193543ADB2170C474352
:10163000360CBF19A6B2BF193E043543240C3E0C2C
:1016400036199FB24743BF19BCB23E0C89191F0C13
:1016500047437F183E043443390C77463F0C90B221
:1016600078432E0C80190604ADB22E43050CA0B2AF
:101670002D18120C7A435019020C80B2240CA418B5
:101680009AB27A43121914042043120C89181B0CC5
:101690007B43C91830BCEF0A394203D1B619404127
:1016A0004941641E6F12BF0DE41B0BDBFF19BC42E6
:1016B00011DA240500274208AE41784161416646AF
:1016C0003143F0BD641C05D1401C6141CF0201D300
:1016D0004908F4E750E75DE7F0B40E005E400125ED
:1016E000ED072E40B446AE0ADF184C18F4423BD248
:1016F000F74241D2640D43D07F0D38D0E41BC902BC
:10170000DB0229432B43CF0ADB0A0600B61A9F41AE
:1017100004D2641EB6197F41B6185F416812800D6D
:1017200024180018844222DAE80C0021B6197F41FF
:10173000B61A9F4102D2B6185F413F1C4041494151
:10174000F4D3241C21DD2405B6197F41B61A9F412C
:1017500005D33743C60737430026012F7041614147
:1017600066463143F0BC7047FCD1F74205D20020F9
:10177000C14349054908F3E704D00020C143F1E71C
:101780007F0DFAD000206146ECE72442FAD1401CDC
:1017900061410F03F6D30020E2E77CB504000E00A0
:1017A000150030002900FFF77BFE00904543701BB9
:1017B0000190684603C803C476BD0206704703075C
:1017C0007047010094480068704710B5012000F090
:1017D000FEFEFFF7F7FF0400FFF7F4FF2100891C6E
:1017E0008842F9D3002000F0F2FEFFF7EBFF04007F
:1017F000FFF7E8FF2100891D8842F9D310BD10B51D
:101800000400FFF7E2FF854885490860002000F0EA
:10181000BBF8E4B2002C28D08148006840788021D1
:1018200001437F48006841707D480068417801208D
:1018300000F0A6FE012000F0A7F800208B490870F8
:1018400000208A4948700020884988700020874914
:10185000C870002085490871002084494871834878
:1018600003C800F0B7F800F075F910BDF0B597B0F7
:1018700005000C0002A87E495022FFF7CDFB6A4606
:10188000EDB20820684302A9081803C803C2083A49
:10189000E4B22000FFF704FD02000B0000208021CD
:1018A000C90501F019FA6A460CCAFFF715FF0600D0
:1018B0000F003000390017B0F0BDF0B589B004005A
:1018C0006946E4B22000801C48826A4887796846ED
:1018D0006849497A417468466649497E0174654899
:1018E000C679F6B23000001DFFF7D0FC02900391DC
:1018F0006846418A08204843FFB204217943421ACE
:101900002C326846417C14204143501AFFF7BEFC3C
:1019100000900191FFB26846017C02204143781A91
:1019200004214843FFF7B2FC02000B000098019924
:10193000FFF7D2FE01F0E8FB029A039BFFF70AFED5
:1019400006AA03C2083A06A803C8FFF773FC0500FD
:10195000002D02D00835280000E0082009B0F0BDB5
:1019600080B5FF20FFF7A9FF3221FFF79CFDC0B231
:1019700002BDA9480068704780B529480168413117
:10198000422000F006FE01BD10B5040024480068A6
:101990004078F821014021432148006841702048E7
:1019A00000684178012000F0EBFD10BD80B5A14832
:1019B00001680C310C2000F0ECFD9E480068007BB3
:1019C000C0B2400902BD9C480021405670479B4868
:1019D00003C8704703B581B06846007901A949780A
:1019E000014301A88078084301A9C97801439148BF
:1019F00000683F30017001A8007901A949790143CD
:101A00008C4800684030017002228A4801683F31EA
:101A1000402000F06FFD07BD900F0020F40D002066
:101A2000B40F002080B56946192000F0B2FD684669
:101A30000078000610D568460078C143491C0800AC
:101A400080108006800EBB490870BA4800214056BD
:101A50004142B848017005E068460078C0B280088D
:101A6000B4490870B3480021405602BD780F0020E9
:101A70003073000800000020F8B56E4801681A3184
:101A80001A2000F086FD324800686D4988422BD24A
:101A9000694800214056002816D566480068807EB7
:101AA000FFF7FEFB0022674BFFF70AFC04000D0066
:101AB000614800214056FFF7E9FB22002B00FFF7A9
:101AC000FFFB06000F003AE05A480068807EFFF7EF
:101AD000E7FBA8A20CCAFFF73DFD0022594BFFF718
:101AE000EFFB06000F002AE0534800214056002873
:101AF00016D550480068807EFFF7D2FB00228C4B41
:101B0000FFF7DEFB04000D004B4800214056FFF7B5
:101B1000BDFB22002B00FFF7D3FB06000F000EE0F9
:101B200044480068807EFFF7BBFB92A20CCAFFF717
:101B300011FD00227E4BFFF7C3FB06000F003000B3
:101B40003900F4BD8D48007870478C4908707047A3
:101B50000000002080B5FFF70FFF6F2288490120A9
:101B600000F0E7FC20203349096808733148006819
:101B7000017B0C2000F004FD0020FFF705FF8148E9
:101B8000006801F0EDFA7F48807901F0AFFB7D48F5
:101B9000C07901F0DFFB7B48007A01F0F9FB79485E
:101BA000407901F088FB7748407A01F029FC7648BB
:101BB00001F096FC7348007E01F03CFC7148C0695E
:101BC00080B201F000FC6F4881796E484079FFF7E0
:101BD0004DFE00226D4BFFF774FA03D8012001F08F
:101BE000A2FC02E0002001F09EFC002001F05BFC62
:101BF000002001F02FFC04206249085601F0D4FABD
:101C0000FFF7AEFE5F4908730120FFF79EFF00203B
:101C100000F078F901BD0000B80F002038B50400CD
:101C20000D00EDB22A002100594801F0EFFCAF4849
:101C3000057031BDB40F0020C70F0020700F0020C9
:101C4000008F4233008064C010B504004D48807A94
:101C5000012827D1A3480068C07BA24909684873BE
:101C6000A0480068417B0D2000F08AFC4548407A7E
:101C7000012806D19B480068223000789C490870F2
:101C80000AE0984801681331132000F082FC95485F
:101C90000068C07C96490870954801783C4800F07F
:101CA0008CFC2CE08F4801681031102000F071FC92
:101CB0003448407A012806D18A48006822300078EA
:101CC0008B4908700AE0874801681331132000F03F
:101CD00060FC84480068C07C8549087081480068C1
:101CE000007C8049096848737E480068417B0D206C
:101CF00000F046FC7E480178254800F05EFC01209B
:101D000000F001F810BD10B504001E48807A0128CB
:101D100003D103201949087004E002201749087014
:101D200000F00AF87348047000207349087010BD71
:101D300000A063C0C70F002080B5012180200002F1
:101D400000F06EFC01218020C00000F069FC0D480D
:101D5000C07A00280CD06948007804214843BB4968
:101D6000085801F0FDF901218020000100F058FC25
:101D700001BD00001B9E5E29CB10F13F540B0020DB
:101D8000F50D002000000020FF030000000030409F
:101D9000540A002038B505000C000120FFF7F4FDBF
:101DA000FF20504909684874FF21122000F0E8FB29
:101DB00000219D20000200F033FC4B48C07A00282F
:101DC00025D048480068407CF5210140454800681E
:101DD00041744548007B43490968243108704148F3
:101DE00001681C311C2000F0D4FB44480078042119
:101DF00048439649085801F0B3F90220FFF7C4FDA3
:101E000040209349087000209149887013E03648BB
:101E1000006801F0A5F933480068407CF7210140D3
:101E200030480068417400202E4909682431087048
:101E30004020874908702B4800682430017824200E
:101E400000F09EFB27480068417C112000F098FBC1
:101E50007F4803C8FFF7BEFD2248006822300470A7
:101E60002048006822300178222000F089FB002001
:101E70001C49096888731B480068817B0E2000F0AC
:101E80007FFB18480068807B16490968487315482D
:101E90000068417B0D2000F073FB0720FFF755FE23
:101EA0002100C9B22800FFF7B9FE2100C9B2694874
:101EB00000F079FB01218020000200F0B1FB0A480C
:101EC000C07A002804D001218020000100F0A8FB86
:101ED0000320FFF759FD0A4A86215F4801F0C4FC40
:101EE00031BD0000B40F002000000020560B002080
:101EF000550B0020530B0020570B0020C80F00206B
:101F0000540B002010B504000120FFF73DFDFF2019
:101F100053490968487452480068407C8F21014049
:101F20004F48006841740020494908700120484921
:101F3000C8704A48C07A00281FD04848007B4849EA
:101F400009682431087046480068407CFD21014042
:101F5000434800684174424801681C311C2000F06D
:101F600018FBB9480078042148433849085801F063
:101F7000F7F800203649887008E03848006801F01A
:101F8000EFF8002036490968243108703348807A18
:101F900001281DD132480068417C112000F0F0FA80
:101FA0002F48006824300178242000F0E9FA2848FE
:101FB00003C8FFF70FFDFFF7DCFC2849C86127487D
:101FC000C06980B201F0FFF90620FFF7DDFC25E0D3
:101FD00023480068C07B224909684873204800688C
:101FE000417B0D2000F0CCFA1D480068417C112097
:101FF00000F0C6FA1A48006824300178242000F066
:10200000BFFA134803C8FFF7E5FC20201349C86155
:10201000202001F0D8F90520FFF7B6FC02208B49FB
:1020200008700E48C07A002804D0012180200001E9
:1020300000F0F6FA01218020000200F0F1FA0121FF
:102040008020C00000F0ECFA10BD000074700008A1
:10205000780F0020540A00203000002000000020EB
:10206000B40F002080B58020000201F0B4FC0028ED
:1020700000D18CE08020000201F0BCFC8020000137
:1020800001F0B8FC71480078072804D00B286AD00A
:102090000E281DD07BE000218020000200F0C0FA55
:1020A00000218020000100F0BBFA0821122000F07E
:1020B00067FA674801F086FD08206449087001202E
:1020C000FFF762FC614A8621624801F0CDFB5EE0C9
:1020D00000219D20000200F0A3FA5D4801F072FD8E
:1020E0004021122000F04CFA5B48016812311220A6
:1020F00000F04FFA58480068807C800620D52021E7
:10210000122000F03DFAFFF7B7FC544A03C2083A28
:10211000FFF788FC524908700020FFF7F4FD4F4894
:102120000CC808384F4801F03DFFFFF74CFC40B2A7
:1021300001004D4801F036FF4C4801F033FF11E03B
:10214000FFF79AFC454A03C2083AFFF76BFC444983
:10215000087047480078FFF777FD3C4A86213D48E4
:1021600001F082FB13E00421122000F009FA802123
:1021700049009020C00502F060FA012806D1012133
:10218000122000F0FDF90020FFF7BCFEFFE78020E1
:10219000400101F020FC002803D08020400101F024
:1021A00029FC8020000101F016FC00282DD08020A1
:1021B000000101F01FFC284801681231122000F0D4
:1021C000E8F925480068807C80071ED5022112208E
:1021D00000F0D6F9FFF7EAFB264908701E480168AF
:1021E0001C311C2000F0D5F9174800781A490968FD
:1021F000097F40188006800E3221FFF751F9042034
:1022000041431D48405800F0ABFF8020C00001F062
:10221000E2FB002816D08020C00001F0EBFB00217B
:102220008020C00000F0FCF91021122000F0A8F975
:1022300006480078022802D10E20044908700120C7
:102240000E49087001BD0000C80F0020540B00208B
:102250000C0F002030000020B40F0020700F002071
:10226000C70F0020B8770008C4770008D0770008AF
:10227000590B0020B200002074700008570B00209A
:10228000C0B204214143BA4A5158898AC0B20222DD
:102290004243974B9A5A4A40C0B204214143B44B3F
:1022A00059588A827047F0B583B006000F001400B9
:1022B00001213088002802D03E2803D0AEE0002162
:1022C0003E203080C9B2002901D10120ABE0FFB22D
:1022D000862F00D086E02078072805D1FA21C90092
:1022E000A44801F050FCEAE72078082803D1002038
:1022F000FFF708FEE3E720780E2808D1FA21C9008D
:102300009C4801F040FC9C4801F04CFED7E7207847
:102310000228D4D1994800780028D0D00120FFF7B6
:10232000AFFF002095490870B1480088401CB049B3
:102330000880FFF74CFB02000B00AE4801F032FEB4
:10234000FFF741FB40B20100AB4801F02BFEA8486B
:10235000008880214900FFF7A3F80091A448008875
:1023600080214900FFF79CF803001D00A348008866
:1023700080214900FFF794F80A002B0001921D000C
:102380009E48008880214900FFF78AF801002B0051
:10239000019A9B4801F006FE00259A480078EDB2AC
:1023A000854207D2EDB29848415D98A001F0FAFD50
:1023B0006D1CF2E796A001F0F5FD96480078002824
:1023C00000D17CE78A48008880B2000A92490870F0
:1023D00087480088904948708A4801788E48FFF7FE
:1023E000D9FC6CE7FFB2882F00D068E761488442CF
:1023F00000D064E7FFF7A6FB072802D1874801F069
:10240000D1FDFFF79FFB0E2802D1C24801F0CAFDA3
:1024100000F0F8F90020FFF775FD50E700200100FB
:10242000002030800320FEBD70B504000D001600B2
:1024300001212088002802D0E8281AD03BE0EDB224
:10244000812D04D1002E02D03078B3490870B348F2
:10245000007800280AD0B24801F0A4FD0020AF495E
:102460000870FA21C900AF4801F08DFB0021E82077
:102470002080C9B2002901D1012021E0EDB2882DD0
:10248000E5D15E480088401C5C4908805B480088B4
:1024900080B2000A60490870584800885E49487058
:1024A0009D4801785C48FFF775FCFA21C9009D48FA
:1024B00001F069FBCBE70020010000202080032011
:1024C00070BD10B504000221CD4802F089F9002842
:1024D000F9D02100C9B2CA4802F068F90121C84800
:1024E00002F07EF90028F9D0C54802F064F910BD69
:1024F00060780008F8B505000C001700802149013C
:10250000CB4802F0ACF880202843C0B2FFF7D9FFD7
:102510000026F6B2FFB2BE4205D2F6B2A05DFFF7CA
:10252000D0FF761CF5E780214901C14802F094F8FC
:10253000F1BDF8B505000C00170080214901BC4829
:1025400002F08DF82800C0B2FFF7BBFF0026F6B2FC
:10255000FFB2BE4206D2FF20FFF7B3FFF6B2A0558E
:10256000761CF4E780214901B14802F075F8F1BD0D
:10257000800000200C0F00207C770008530B002007
:1025800013B50400012201A92000C0B2FFF7B2FF79
:1025900013BD38B504000D00012229002000C0B28F
:1025A000FFF7C7FF31BD38B504000D002A00D2B2D5
:1025B00021000020FFF79EFF31BD38B504000D005B
:1025C0002A00D2B221000020FFF7B3FF31BD10B5C1
:1025D0000400E4B2012C05D100228021954802F0CC
:1025E00040F804E001228021924802F03AF810BD40
:1025F000BE0F00208877000894770008BC0F0020E9
:10260000B4760008550B0020540A002025782000DD
:102610000D0A0000C00F00205C0D0020C4760008E9
:1026200030B583B005000C000095002069460871A4
:1026300008206946487168468471684601F086F949
:1026400037BD00B583B001218C20C00302F0D4F95E
:1026500000219D200002FFF7E3FF80204001009051
:1026600001206946087101206946C8710320694646
:10267000487100206946887169466D4801F07EFF07
:102680000220694608710020694688710320694666
:10269000487100206946C871E02000020090694638
:1026A000634801F06BFF00220D21614801F0E2FF59
:1026B00000220E215E4801F0DDFF00220F215C4860
:1026C00001F0D8FF802000900120694608710320A6
:1026D000694648710020694688716946554801F08D
:1026E0004DFF01228021534801F0BBFF9D200002D5
:1026F000009000206946087102206946C8710320D5
:102700006946487169469020C00501F037FF07BD52
:1027100000000000D4760008AC000020AD000020CE
:10272000887500081C0F002080B50121012002F0EF
:1027300073F98020000201F05DF98020400101F072
:1027400059F98020000101F055F98020C00001F006
:1027500051F90F21002002F02FFA0C21002002F085
:102760002BFA0B21002002F027FA0A21002002F0A8
:1027700023FA00219D200002FFF752FF01BD00B5A2
:1027800085B0802149012A4801F066FF00211C48DC
:1027900001F0F6FF1A4801F0A5FF01218020C001D9
:1027A00002F04BF90020694608808220400069460B
:1027B0004880E020C0006946888000206946C880C3
:1027C00000206946088180208000694648811020E9
:1027D0006946888100206946C881072069460882C9
:1027E0006946074801F09CFF80214901044801F037
:1027F000D5FF0121024801F0C3FF05B000BD000074
:102800000038004080B5FFF71CFFFFF7B8FF01BD9F
:1028100080B5094801F0D6F9FFF7F4FFFFF784FF10
:102820000120FEF7ECFF054801F0BCFB01BD0000F4
:1028300000040048001400480C0F0020A077000896
:102840005365742063757272656E742074696D656A
:102850003D253032642D253032642D253032642000
:10286000253032643A253032643A253032640D0A1C
:102870000000000000000000F8B50FB48CB00EA8F6
:1028800003C804AA03C20D984000400D784988424D
:102890000CD10020694608800D98000304D10C98E3
:1028A000002801D1012518E0022516E0012808DAE8
:1028B0000CA8FEF7CBFB012803DB002569460D8041
:1028C0000BE00D99BE4A0A40C34911430D91694678
:1028D000BC4A801A08800025ED43002104A802F0BC
:1028E0009FF904001698002802D00020169908804D
:1028F000002C06D10EA80CC80020002102F0D6F949
:1029000015D0002D16D5009E36B2012E16D10CA87A
:1029100003C80022B04B02F0C9F908D0012C0DD138
:102920000CA80CC80020A84902F0C0F92ED1002044
:10293000A649B9E1022D03D10CA804E0012C5CDB0F
:10294000022C02D10EA803C8AEE1012D1CD10D98B6
:1029500000280F9802D400284CD535E0002809D46F
:10296000002C47D10021C94304A802F059F90028DE
:1029700040D53CE0002C27D10021C94304A802F037
:102980004FF9002820D51BE0012C0AD1009E36B259
:102990000F98002802D4012E2CDA15E0012E13DA4C
:1029A00028E00F98002812D4002C0DD10021C94333
:1029B00004A802F035F9002806D50D98002803D5A3
:1029C0000020802109066FE1002000216CE102F067
:1029D0007FF922210160002C0CD10021C94304A8F9
:1029E00002F01EF9002805D50D98002802D5002018
:1029F000AE4959E10020B74956E10D98002809D5A4
:102A0000002C07D502F064F9212101600020C043A9
:102A1000410849E10CA803C800220023FEF751FB3E
:102A200002D269468A800DE00CA803C880221206F3
:102A300051400CAA03C20021C94304A802F0F0F8D7
:102A400069468880012E15D10CA803C898A20CCA2B
:102A5000FEF71EFB0ED2002400265C4F0CA80CC80B
:102A600000208021C905FEF775FD0CAA03C21CE0F9
:102A7000FF0700000CA80CC800208F49FEF76AFD74
:102A80000022554BFEF71CFCFEF7C2FB0400203C65
:102A90002000FEF7FBFB0022884BFEF75BFD0022C7
:102AA0004D4BFEF70DFC06000F0060018EA10818CB
:102AB00006900CA803C832003B00FEF764FC0AAA8B
:102AC00003C20CA803C832003B00FEF7F9FB02006A
:102AD0000B000AA803C8FEF7FFFD08AA03C208A856
:102AE0000CC808A803C8FEF735FD04000D000AA8AD
:102AF00003C80CAA03C22000290002F0F1F822004A
:102B00002B00FEF727FD0CAA0CCAFEF73CFC0400C4
:102B10000D0000202D4932003B00FEF734FC00225E
:102B20008023DB05FEF716FD22002B00FEF7C8FB15
:102B300008AA0CCAFEF70EFD02000B000CA803C881
:102B4000FEF7BEFB08AA03C208A803C85EA20CCA0F
:102B5000FEF7C2FD04AA03C2009800B2FEF796FB7E
:102B600006000F00069803C832003B00FEF7A8FBE2
:102B700004AA0CCAFEF7A4FB04AA03C20EA80CC840
:102B800004A803C8FEF7E6FC02AA03C202A803C811
:102B900000224B4BFEF77CFA72D302A803C8012235
:102BA000484BFEF78EFA6ED902A803C80022002314
:102BB000FEF76EFA02A80CC80AD2002002490DE006
:102BC000FFFF0F80FE0300000000E0BF0000F03FA9
:102BD0000020014902E000BF0000E03FFEF770FB6B
:102BE000FEF716FB040008A803C80EAA0CCAFEF7DD
:102BF000B1FC02AA03C20698083003C8069A103234
:102C00000CCAFEF75DFB0EAA0CCAFEF7A3FC2EA2AF
:102C10000CCAFEF79FFC02AA0CCAFEF751FB02AADF
:102C200003C2069803C832003B00FEF749FB0EAA18
:102C30000CCAFEF78FFC06000F002000FEF726FBF3
:102C400002000B0030003900FEF79DFB1EA20CCAEB
:102C5000FEF780FC02AA0CCAFEF732FB02AA03C2EE
:102C60001698002801D00480002400940022184BFC
:102C700002A802F087F8002802D0012803D00AE059
:102C80000020002101E00020124902AA03C202F044
:102C90001FF822210160019800B2002802A803C891
:102CA00002D080221206514011B0F0BD0000F0FFAA
:102CB000CD3B7F669EA0E63F000050400000903F65
:102CC0000000E0C00000E040EF39FAFE422EE63F8F
:102CD0000000F03F0000F07F10B582B000240094A7
:102CE000FFF7CAFD1CBD0000000000000000F0BF9F
:102CF00000000000000000800000000000000080D4
:102D00000000000000000000000000C05294EEBF70
:102D100000000048204E51BE000000F86467BCBCB3
:102D20000000000000000000000000208133EDBF23
:102D300000000080B3DB14BE000000506706A3BC97
:102D40000000000000000000000000D0E9DCEBBF44
:102D500000000008C39259BE00000080B0D3B8BC88
:102D6000000000000000000000000070F98FEABFC2
:102D7000000000C0A51028BE000000E8BFC0B0BC25
:102D8000000000000000000000000070284CE9BFB7
:102D900000000060134B42BE000000C03D20B8BCE4
:102DA000000000000000000000000050FA10E8BF22
:102DB000000000C05FF62BBE000000905C71A7BC55
:102DC000000000000000000000000020FCDDE6BF65
:102DD000000000C0F8F154BE00000018E9F6B9BCCC
:102DE0000000000000000000000000D0C3B2E5BFFA
:102DF00000000070E43254BE00000050DB06B4BC9A
:102E0000000000000000000000000010EF8EE4BF92
:102E100000000020F36252BE000000C02A879ABC66
:102E20000000000000000000000000B02272E3BFBC
:102E3000000000F0E8E056BE00000028352DBDBCC3
:102E40000000000000000000000000000A5CE2BF7B
:102E5000000000B0FA8E41BE00000040AE6FBDBC65
:102E6000000000000000000000000000564CE1BF20
:102E7000000000F015CD5FBE00000000141C90BCE7
:102E8000000000000000000000000040BD42E0BF64
:102E900000000030F93457BE000000E06C1E93BC07
:102EA0000000000000000000000000E0F57DDEBF33
:102EB000000000B08A535EBE00000080DA77AABC32
:102EC0000000000000000000000000C09D81DCBF89
:102ED00000000000FFA226BE0000006057E2B0BC68
:102EE000000000000000000000000060F98FDABF61
:102EF000000000580A8151BE000000F05F60B8BCBD
:102F000000000000000000000000000098A8D8BFEA
:102F1000000000607A7F45BE000000D05433A3BC9F
:102F20000000000000000000000000600FCBD6BFD2
:102F3000000000D091CB40BE000000406D1BA0BC43
:102F40000000000000000000000000A0FBF6D4BF5D
:102F500000000098C5CE52BE000000003A397EBC89
:102F60000000000000000000000000E0FE2BD3BFC6
:102F70000000004073872BBE00000000926879BCFF
:102F8000000000000000000000000040C069D1BF48
:102F900000000058F16353BE00000080438D7CBCEC
:102FA000000000000000000000000080D85FCFBFDC
:102FB000000000181F8354BE000000B03F42A2BCB6
:102FC00000000000000000000000008067FCCBBF94
:102FD00000000060FAFF53BE00000050E00DB8BCD6
:102FE00000000000000000000000000098A8C8BF1A
:102FF000000000607A7F35BE000000C0543393BCEF
:10300000000000000000000000000000DC63C5BFFD
:1030100000000058D6FF54BE00000000396490BC88
:103020000000000000000000000000C0AD2DC2BF85
:1030300000000080A45915BE000000E0484BABBC66
:103040000000000000000000000000801A0BBEBF5E
:1030500000000050BF3C5ABE000000A0B364B6BCE4
:1030600000000000000000000000008004D6B7BF90
:1030700000000040BBCF36BE0000008076CEA8BC6A
:1030800000000000000000000000008032BBB1BF63
:10309000000000402A0043BE00000028C60CBDBC52
:1030A0000000000000000000000000009473A7BFB3
:1030B000000000182B3B59BE000000C0E55DA5BC18
:1030C000000000000000000000000000EE4397BF79
:1030D000000000A0E6C340BE00000020958DB5BCF6
:1030E0000000000000000000000000000000008060
:1030F00000000000000000800000000000000080D0
:1031000000000000000000004A00520DFF239B0059
:103110009B1CD21A19DD35239B1A1EDD1300153BAB
:1031200009DA9B41DB0AD340094201D4401E5941D0
:103130000020994370470022D243DA40094202D46A
:10314000002380185941904370470B0D5B0500D058
:10315000024901D30121C907002070470000F03F58
:1031600010B50400794804602000FEF799F80022A9
:10317000774BFEF7B1FAFEF75DF804002000000C73
:103180008249096888712000000A80490968C8716D
:1031900020007E490968087203227C480168891D65
:1031A0000620FFF7A7F910BD10B5040077480168A5
:1031B00009310920FFF7EDF9744801684C314D20C1
:1031C000FFF7E7F971480068407A000647D56F4875
:1031D00000684C3000788721014087291FD164B2F4
:1031E000052C01DA0520040064B2152C01DB142043
:1031F000040066480068407A702101436348006813
:10320000417262480068407AF021014064B2601F58
:103210000007000F08435D490968487242E064B244
:10322000022C01DA0220040064B2122C01DB11200E
:10323000040056480068407A7021014353480068F2
:10324000417252480068407AF021014064B2A01EE9
:103250000007000F08434D490968487222E064B234
:103260000020C043844202DA0020C043040064B25C
:103270000F2C01DB0E20040044480068407A7021C6
:10328000014342480068417240480068407AF0219A
:10329000014064B22000401C0007000F08433B4976
:1032A0000968487239480068417A0920FFF768F9CF
:1032B0002648047110BD10B50400344801681D3162
:1032C0001D20FFF766F931480068407F0007000FB6
:1032D000210101432D48006841772C480068417F57
:1032E0001D20FFF74DF91948447110BD10B50400B9
:1032F000E4B20D2C02DB0C20040004E0E4B2062C46
:1033000001DA06200400E4B2062C03D1052000F007
:1033100026F902E0032000F022F91C4801681E3162
:103320001E20FFF736F919480068807F0007000F5C
:103330002101014315480068817714480068817FA6
:103340001E20FFF71DF90148847110BD0000002008
:1033500080844E4010B504000C4801681D311D20CA
:10336000FFF717F909480068407FF121014060002C
:10337000084306490968487704480068417F1D20D2
:10338000FFF7FEF85548C47110BD0000B40F0020CF
:1033900010B50400504801681E311E20FFF7F9F8EF
:1033A0004D480068807FFB210140A00008434A4946
:1033B0000968887748480068817F1E20FFF7E0F899
:1033C0004648047210BD10B504000222424801684C
:1033D00020312020FFF7ADF8200080B2000A3E49DE
:1033E00009682031087020003B49096821310870C4
:1033F00002223948016820312020FFF77BF810BDF8
:1034000010B50400344801681D311D20FFF7C1F8D4
:1034100031480068407FFE21014021432E4800686A
:1034200041772D480068417F1D20FFF7A9F82B4800
:10343000447210BD10B504002748006822300470A3
:1034400025480068223001782220FFF799F82348A8
:10345000047610BD10B504001F4801684C314D20A2
:10346000FFF797F81C48016809310920FFF791F828
:1034700019480068407A000608D5E4B2012C0AD148
:103480008720154909684C31087004E084201249EE
:1034900009684C310870104800684C3001784D20A4
:1034A000FFF76EF810BD10B504000B480168093134
:1034B0000920FFF76EF808480068407A4006400E81
:1034C000204305490968487203480068417A092089
:1034D000FFF756F810BD0000B40F002000000020D8
:1034E00010B5040002222B4801681E311E20FFF790
:1034F00020F828480068807FFC210140A4B2200009
:1035000000128007800F084322490968887720004D
:1035100020490968C87702221E4801681E311E2012
:10352000FEF7E8FF10BD10B504001A480168263107
:103530002620FFF72EF81748006826300078F7217C
:103540000140E0000843134909682631087011481A
:103550000068263001782620FFF712F810BD10B55C
:1035600004000C48016830313120FFF712F8094897
:10357000006830300078F821014021430548006898
:103580003030017003480068303001783120FEF798
:10359000F7FF10BDB40F002010B502000C480B005F
:1035A000591E9BB2002B0DD003009BB21B0A80B2A8
:1035B00014784440E0B202246043064C205A58403C
:1035C000521CECE703000248584080B210BD0000D6
:1035D000FFFF0000E06C000830B5030018000C008D
:1035E00015006A1EADB2002D04D025780570641C4C
:1035F000401CF5E730BD10B503001400621EA4B2F4
:10360000002C02D019705B1CF7E710BD30B50B0021
:10361000040015006A1E002D04D01D7825705B1C67
:10362000641CF6E730BD010070B505000E00A64829
:1036300000680400AC4203D0002C01D02468F9E7F4
:10364000AC420DD0A048006828609F48056001206A
:10365000A8730020A88132008121280000F036F9EB
:1036600070BDF8B505000F00A948066896480068C7
:103670000400AC4203D0002C01D02468F9E7002CF0
:103680003AD0280000F058F900281CD00020A87378
:103690008D4800680400002C08D0A54204D02A0000
:1036A0008721200000F029F82468F4E7A8680028A2
:1036B00009D0BD4207D0964805600022832128002A
:1036C0000C30AB68984780480068854205D17E4839
:1036D000006800687C4908600CE07B4800680400D2
:1036E000002C07D02068A84202D12868206001E0A1
:1036F0002468F5E786480660F1BDF8B504000D00C2
:103700001600A07BC0071CD5A068002819D08048EF
:1037100004600220A07332002900C9B220000C30DE
:10372000A36898470700022F04D0032F02D0EDB200
:10373000832D04D121002000FFF793FF01E0012039
:10374000A073F1BD8A206949087000207149087092
:103750007149087000205C4908606D490860704735
:1037600010B500206D490870574800680400002C0F
:103770000DD0E07B002808D00120A0730020E0736A
:10378000002282212000FFF7B8FF2468EFE710BD78
:1037900080B561480078002856D05E4800780C213A
:1037A00048435F49085C5F4908705A4800780C211B
:1037B00048435B49081840685B49086055480078F1
:1037C0000C214843564908188068584908605148F8
:1037D0000078401C2021FDF763FE4E4801704E48E2
:1037E0000078401E4C4908705048006800281BD1E2
:1037F000354800684E4908604D480068002823D0CD
:1038000046480078002801D0FFF7AAFF4648026822
:103810004448017846480068FFF76FFF4448006855
:10382000006843490860E7E73E480078812803D1F3
:1038300001203E49096888733B480268394801788D
:103840003A480068FFF759FF01BD80B5334800785A
:10385000002801D0FFF784FFFFF79AFF2E48007879
:103860002E490978401802BD70B504000D001600FD
:1038700029480078202801D1012024E0254800783B
:10388000254909784018C0B22021FDF709FE2948D2
:103890000170284800780C21484321490D542548DF
:1038A00000780C2148431E490818466021480078DA
:1038B0000C2148431A490818846017480078401CB6
:1038C00015490870002070BDA00F0020F8B5050054
:1038D0000F0016000E48046832003900C9B22800F3
:1038E000FFF70BFF0A480460F1BD0000C10F002084
:1038F00000B500280AD0817B012902D0817B0229F2
:1039000004D10121C1730121044A117000BD0000DE
:10391000A40F0020C30F0020C20F0020C40F0020FE
:10392000D4080020C50F0020A80F0020AC0F0020F5
:10393000B00F0020C60F002000B5807B002801D00A
:10394000012000E00020C0B200BDFEE700B500216C
:103950002A4A11008279002A36D0284A1268036860
:103960009A43264B1A60264A126803689A43244BEE
:103970001A60027989180A68036813430B60214AA8
:10398000126803689A431F4B1A601F4A1268036843
:103990009A431D4B1A604279102A0CD1194A1268B9
:1039A00003681343174A1360174A126803681343E6
:1039B000154A13600EE0114A1100427989180A680D
:1039C000036813430B6005E0027989180A680368ED
:1039D0009A430A6000BD00B5010000200B4A12683E
:1039E0000A40002A02D00122100001E0002210004B
:1039F000C0B200BD054908607047000000040140E6
:103A000004040140080401400C0401401404014076
:103A100070B57E480068002803D100207C4908600A
:103A20001DE001F031FB05007848006806003068B1
:103A300071684018401B0400B668002E0CD0306836
:103A400071684018401BA04204D230687168401869
:103A5000401B0400B668F0E728196D49086070BD86
:103A6000F4B506000F0001213088002802D0592843
:103A700006D05CE0002065490860002159203080B4
:103A8000C9B2002901D1012056E0FFB2872F24D10D
:103A900000985E49096800290AD05C490968C9682C
:103AA000814205D1594909688968584A1160F0E78F
:103AB0005649096800290FD0544909680D00A968C2
:103AC000002909D0A968C968814203D1A968896819
:103AD000A960F4E7AD68F2E7CFE7FFB2822FCCD15F
:103AE00000200400494800680500002DC5D02800CA
:103AF00001F0DEFA002817D02A008821E868FFF7D5
:103B0000B3FE00280ED10020E860002C02D0A86887
:103B1000A06002E0A8683D4908600020A860FFF7A7
:103B200077FFDDE700F009F82C00AD68DDE7002045
:103B30000100002030800320F2BD80B53548FFF73A
:103B4000D7FE01BD38B50400FFF7F7FFE068002895
:103B50000ED02E4800680500002D09D0A54205D1E1
:103B60002D480068E060FFF753FF0BE0AD68F3E716
:103B700029480068E06025480068A0602348046088
:103B8000FFF746FF31BD38B505000C0021002800C5
:103B900001F086FA2800FFF7D5FF31BD00B51B48BC
:103BA0000068002801D0012000E00020C0B200BD64
:103BB00080B5FFF7F3FF002802D01548006800E049
:103BC000002002BD38B5040010480068844207D1C7
:103BD0000E48006880680D490860FFF719FF0FE084
:103BE0000A4800680500002D04D0A868A04201D052
:103BF000AD68F8E7002D03D0A068A860FFF708FFC4
:103C00000020A0600020E06031BD0000840F002093
:103C1000880F002020000020A40F002038B50500E8
:103C20000C002100280001F03BFAFFF7F1FE31BD46
:103C3000674800687047C0B202214143654A515A43
:103C4000C0B204224243C54B9A5811857047C0B296
:103C5000022141435F4A515AC0B204224243BF4B42
:103C60009A589161704770B504000E00150001214B
:103C70002088002802D0642803D078E00021642046
:103C80002080C9B2002901D1012075E0F6B2862E4C
:103C900036D12878002809D14F4841880420414373
:103CA0000A3189B24D48FFF76EFFE7E7287801280F
:103CB000E4D02878042805D1982149004848FFF726
:103CC00062FFDBE72878052802D101F0BDFBD5E7CC
:103CD0002878082804D19D21A148FFF754FFCDE79B
:103CE0002878092803D19E48FFF76CFFC6E728789B
:103CF0000C28C3D10D209B49087001F0D6FCBDE70C
:103D0000F6B2882EBAD1354885420FD102209649A5
:103D10000870964800F046F90120FFF798FF002050
:103D200000F068F81421924800F022FA2C488542ED
:103D30000FD100208F49088006208F49087000208D
:103D4000FFF785FF002000F055F817218B4800F0A1
:103D50000FFA8348854291D10A20894908700120D1
:103D600000F048F81621874800F002FA86E70020A4
:103D7000010000202080032070BD80B500F001F814
:103D800001BD80B5002069460870C82189007E48C1
:103D900001F0E3FFFA217D4801F0DFFF00207C49BC
:103DA000087000207A4948706B461022322176480C
:103DB00001F02DFF7749086068460078002801D09F
:103DC00001F0FCFE684600780028EDD101BD00003E
:103DD000900F002060780008940F00202C0F002026
:103DE0003C0F002080B5002000F004F8012000F016
:103DF00001F801BD10B588B004000121E4B204202F
:103E00006043654A1258E4B204206043634B18587B
:103E1000104300F0F1FD0121012000F0FDFD012122
:103E2000C020C00000F0B8FEE4B2002C08D101218F
:103E3000E4B2042060435A4A105800F0FEFD07E047
:103E40000121E4B204206043554A105800F0E4FD1B
:103E5000E4B2C048025DE4B2BF48015D89B2E4B299
:103E600004206043BD4B185800F004FCE4B2BC4889
:103E7000025DE4B2BB48015D89B2E4B20420604354
:103E8000B94B185800F0F6FBE4B202206043B74982
:103E9000085A00900220694608710320694648715B
:103EA00000206946887101206946C8716946E4B2FC
:103EB00004206043A94A105800F060FBE4B20220DD
:103EC0006043C549085A00906946E4B20420604343
:103ED000A54A105800F052FBE4B204206043BF49E9
:103EE0000858029080204001039000200490802018
:103EF000C0000590002007900C20069002A9E4B2B3
:103F000004206043CB4A105801F032FF0122CA4915
:103F1000E4B204206043C74B185801F0BDFF0121F3
:103F2000E4B204206043C34A105801F088FFE4B2B1
:103F3000012C11D100218020800000F02DFE0122F3
:103F40008021E4B204206043BA4B185801F098FF76
:103F50000121012000F050FD08B010BD80000020BC
:103F60004C0F0020B1000020AE0000208076000839
:103F7000D0750008980F0020AF000020E8750008F9
:103F8000B000002000760008B0010020B60000203C
:103F9000B4000020D00400204878000850780008C1
:103FA000407800080FB4F0B5BBB0002069464880E7
:103FB0000024002069464870002508AE00206946AC
:103FC0000870002741A80190019B409AC82108A8C9
:103FD00001F0BAFF040068464480A4B2002C00D16E
:103FE000B0E0A4B2C92C00D3ACE0A4B220000C21F4
:103FF000FDF759FA002908D0A4B220000C21FDF7E2
:1040000052FA401C6946487006E0A4B220000C2118
:10401000FDF749FA6946487000200500FFF708FEE1
:10402000070068464078EDB285426CD2FFF700FE8B
:10403000C01B652867D201F0A5FF7F2001F0AAFF11
:1040400002A97E48006801F063FE69460870684670
:1040500000780028E5D106980028E2D06946774824
:10406000006801F01BFE7649097805225143744A25
:104070005118891C001D01F095FF68460078002842
:10408000CFD1A4B20D2C17D36D4800780521484339
:104090006B490818801C01F08FFF0C22310001F0E1
:1040A00051FE0C206649097805225143644A511893
:1040B00088710C3C0C3615E06148007805214843B6
:1040C0005F490818801C01F077FF220092B231008E
:1040D00001F038FE20005A49097805225143584A18
:1040E00051188871FFF7A4FD07006D1C5448007833
:1040F000401C5349087052480078322891DB002058
:104100004F4908708DE79E48007808281AD008208B
:104110009B4908704A484078052148434849081897
:10412000801C01F049FF4649497805225143444A21
:104130005118897989B200F01BF8914A8621B0485C
:10414000FFF792FB684640883BB00499F0BC05B08D
:1041500008470000C2170008BA17000890000020A6
:1041600026360008BE170008980000206478000872
:1041700030B58BB005000C00A4B2002C2AD0A4B23C
:10418000C92C01DBC82004009E4801F021FF9E4895
:104190000090019510200290A4B203940020049096
:1041A00080200590002006900020079000200890B5
:1041B00080204001099000200A906946914801F052
:1041C00049FF01220A218F4801F073FF01218D4828
:1041D00001F061FF0BB030BD687800083878000846
:1041E00038B505000C00A4B2002C22D0A4B2FF2CDC
:1041F00001DDFF20040000208449088083484480BA
:104200008348854205D0220092B22900804801F0FF
:1042100099FD00207F4908707E4A86217848FFF783
:1042200023FB0120FFF707FD01227B49AD4801F088
:1042300033FE31BD8800002005010500D0040020B8
:10424000B400002080B57549A64801F047FE00285B
:104250006ED00020FFF7EFFCA3480088FF2802DBA8
:104260000020A14908809F4801F0FEFD9E49098871
:104270009E4A50549C480088002808D104209C493C
:1042800008709B4A86215E48FFF7EEFA04E0982109
:1042900049009848FFF7C2FC93480088002808D0DE
:1042A000401E052815D9801F03D0401E012810D9B3
:1042B00015E08D4800888D49085C682803D00020EF
:1042C0008949088004E088480088401C86490880A5
:1042D0002EE085480088401C8349088028E08248F9
:1042E00000888249497A0B3188421CDB7E4800886D
:1042F0007E49085C16280FD105207D4908707D484D
:10430000FFF760FC7A4A86213D48FFF7ADFA764810
:104310000088401C744948800020734908800020B0
:10432000FFF795FC04E070480088401C6E49088047
:1043300039496C4801F0D2FD002820D0334800886C
:104340000100491C314A118080B23149095C89B2AF
:10435000644801F085FD2D4800882C494988884231
:104360000DD37B48FFF72EFC01202A49087001205D
:10437000FFF76DFC002228495A4801F08DFD01BD70
:10438000B000002010B52549724801F0A7FD0028B3
:1043900035D0704801F068FD04006F4800881E2881
:1043A00002DB00206C490880E4B2082C09D16A487D
:1043B0000088002823D068480088401E664908808D
:1043C0001DE06548008865490C5463480088401C1E
:1043D00061490880E4B20D2C02D0E4B20A2C0ED15F
:1043E0000C205F4908705E4A86210548FFF73CFAB9
:1043F000594800885849488000205749088010BD16
:10440000500000201C00024028380140940F00207A
:104410005C0B0020AE00002007010700050105002D
:1044200010B50024202001F050FE00284AD02020A2
:1044300001F05AFE4B484078052148434949081885
:10444000801C01F0B9FD001F01004748006801F021
:1044500044FC0400E4B2002C34D142484078401CB3
:10446000404948703F484078322802DB00203D49EF
:1044700048703C4840783B49097888421AD0082067
:104480003A490870374840780521484335490818AB
:10449000801C01F091FD3349497805225143314A8E
:1044A0005118897989B2FFF763FE9D213048FFF7E3
:1044B000B5FB07E009202D4908702C4A86212D48BC
:1044C000FFF7D2F9802001F000FE002808D08020FC
:1044D00001F00AFE0A20254908702548FFF772FB03
:1044E00010BD000000440040980F00205C0C00202C
:1044F000AF0000203C0F002080B5002069460880F6
:104500000121684601F0DEF968460088002801D0E4
:10451000012000E0002069460988FF2901DA012115
:1045200000E00021C0B2084211D00020694609888D
:1045300080B2884206D20100491C80B20E4A115452
:10454000401CF3E7684601880B48FFF749FE01BDB0
:104550002C0F0020003801409C0F0020EC0E0020A2
:10456000B1000020B4000020D0040020B0000020E2
:104570004C0F0020500000205C0B0020F0B5002202
:104580000023002400252A00102A55D20125954039
:104590002B000D681D402C009C424BD10D79012D44
:1045A00002D00D79022D1DD186680327BC46150067
:1045B00002277D436746AF40BE43866086684F79D9
:1045C000BC46150002277D436746AF4037438760EE
:1045D000858801269640B543858085888E799640EA
:1045E0002E43868006680327BC46150002277D43BC
:1045F0006746AF40BE43066006680F79BC461500AB
:1046000002277D436746AF4037430760C6680327EC
:10461000BC46150002277D436746AF40BE43C660D7
:10462000C668CF79BC46150002277D436746AF4078
:104630003743C760521CA7E7F0BD00B50200002059
:10464000138A89B20B40002B02D00123180001E02D
:1046500000231800C0B200BD89B281617047018596
:10466000704700B5D2B2002A02D089B2816100E061
:10467000018500BDF8B400230024D2B20D006D07FF
:104680006D0F042675431600AE40330089B20D004D
:10469000ED10042675434519009589B20D00ED1003
:1046A0000426754345192F6A0F25AC460D006E0789
:1046B000760F04256E436546B540AF43009D2F62DB
:1046C00089B20D00ED100426754345192D6A1D436E
:1046D0002C0089B20D00ED100426754345192C629B
:1046E000F1BC704710B50400364884420AD101215C
:1046F0008020400100F0B4F900218020400100F04A
:10470000AFF90CE03048844209D101218020C0017A
:1047100000F0B6F900218020C00100F0B1F910BD11
:1047200030B40023028813001A00C1239B011340F8
:104730001A000B88CC891C43CB8823430C891C436B
:104740004D8925438B892B431343038082881300B3
:104750001A001E4B13401A008B88134383800A8A69
:104760000282028813001A00194B13401A004B886A
:1047700013430380828B174C1440848330BC7047F2
:1047800000B5C9B2002904D0028840231343038036
:1047900003E00288104B1340038000BD82880F4B5A
:1047A0001340838082880A4382807047002202007F
:1047B0000C32117070470100002008000C300078A6
:1047C000704700000030014000380040FFF000005A
:1047D000FBFF0000FFF70000BFFF0000FFEF00003D
:1047E00000B50200002013890B4202D001231800FB
:1047F00001E000231800C0B200BDFEE700211C4A02
:1048000011701B490870704700B5C0B2002807D06E
:1048100015490968802252040A4313490A6005E0D9
:1048200011490968684A0A400F490A6000BD00B58D
:10483000C0B2002807D00C490968802212030A433D
:1048400009490A6005E0084909686A4A0A400649B8
:104850000A6000BD0021054A12681100032291433D
:104860000143024A116070470010024004100240E8
:1048700002100240FCB50400002500260020019033
:10488000002000900027754800680C2101400D00B1
:104890002800002804D0042805D0082806D027E0E6
:1048A000A148206026E08748206023E06B4800682C
:1048B000F021890301400E00684800688021490208
:1048C00008400190B60CB61C0198002803D1954809
:1048D000704320600BE0954800680007000F401C03
:1048E000009078480099FCF7DEFD7043206001E0FD
:1048F0008D48206059480068F02101400D002D09C5
:104900009548405D07002068F840606053480068A3
:10491000E021C90001400D002D0A8F48405D0700CD
:104920006068F840A0605E480068C00502D48B480B
:10493000E0600AE049480068400403D4A0684008E9
:10494000E06002E0A0688008E0605548006840062A
:1049500002D48348206102E0802000022061504898
:104960000068C00602D47048606101E020686061A0
:104970004B4800688007800F002802D1A068A06122
:104980001AE0474800688007800F012802D120689C
:10499000A06111E0424800688007800F022803D11F
:1049A00080200002A06107E03D4800688007800F7A
:1049B000032801D15C48A061F3BD6A49096801433D
:1049C000684A116070470000FFFFFFFE00B5C0B2EB
:1049D000002807D063490968802212020A4361490E
:1049E0000A6005E05F4909685F4A0A405D490A605C
:1049F00000BD0000FFFFF7FF00B5C9B2002905D0D8
:104A00005A4A12680243594B1A6004E0574A126826
:104A10008243564B1A6000BD00B5C9B2002905D0CB
:104A2000534A12680243524B1A6004E0504A12681B
:104A300082434F4B1A6000BD000000B5C9B2002987
:104A400005D04C4A126802434A4B1A6004E0494AB6
:104A500012688243474B1A6000BD000004100240F8
:104A600000B5C9B2002905D0434A12680243424B3F
:104A70001A6004E0404A126882433F4B1A6000BD4E
:104A800000B5C9B2002905D03C4A126802433B4B2D
:104A90001A6004E0394A12688243384B1A6000BD3C
:104AA0003010024000B5C9B2002905D0344A12784E
:104AB0000243334B1A7004E0314A12788243304B80
:104AC0001A7000BD0024F40010B50100002200237C
:104AD00000200C00E4B26409E4B22200002A03D1F1
:104AE000284C246823000EE0012A03D11D4C2468C1
:104AF000230008E0022A03D1234C2468230002E0AB
:104B0000224C24682300C9B2CC06E40E22001C000B
:104B1000D440E40702D50124200001E00024200055
:104B2000C0B210BD00093D0000127A002C100240F6
:104B300000B501000020164A1268C9B20A40002AD6
:104B400002D00122100001E000221000C0B200BD1E
:104B5000104908707047000060000020809FD50059
:104B60001280000020100240FF7FFFFF141002405F
:104B7000181002401C1002400C100240101002409D
:104B8000091002400010024024100240341002407C
:104B9000081002400A10024000B5C9B2002905D031
:104BA0001D4A126802431C4B1A6004E01A4A12683C
:104BB0008243194B1A6000BD30B400220F238C07CA
:104BC000A40F04256C43A3401A00C9B20B009B102C
:104BD00004246343114CE3589343C9B20C00A4105E
:104BE00004256C430D4D2B51C9B20B009B100424BE
:104BF00063430A4CE458C0B28D07AD0F04235D43F4
:104C00000300AB402343C9B20C00A41004256C433D
:104C1000024D2B5130BC704700000140080001409C
:104C200042685200520D1F4B9A4209D14168090354
:104C300004D10068002801D101207047022070478C
:104C400043685B0002D10368002B28D0164B9A1AE8
:104C5000521A012A23DB352A07DB4168802212061B
:104C6000114041600021016016E00121D306DB0EF6
:104C70009940491E920608D542680A404168514051
:104C8000416003681343002103E003680B4001689F
:104C900059400160002B02D00020C0437047002023
:104CA000704700BFFF0700003304000090420ED1A0
:104CB000A4460C001C430128644107D0994205D149
:104CC0004C006415641C644000D30C0364467047B8
:104CD00080B5024801F01EFA02BD0000A8000020C5
:104CE00038B504000D0019A003C822002B00FCF702
:104CF00031FC18A20CCAFCF7E3FA22002B00FCF7E7
:104D000029FC16A20CCAFCF7DBFA22002B00FCF7E8
:104D100021FC14A20CCAFCF7D3FA22002B00FCF7EA
:104D200019FC12A20CCAFCF7CBFA22002B00FCF7EC
:104D300011FC10A20CCAFCF7C3FA22002B00FCF7EE
:104D400009FC0EA20CCAFCF7BBFA34BDF7DE29BF82
:104D5000D8F8C23FF4B3FECC1A99C33F62CB68D9EE
:104D60006F46C73FC6C912DAC471CC3F4AE98A947C
:104D70002449D23FF75F97999999D93FBC5555552A
:104D80005555E53FF1B586B014001D0003C801F08C
:104D9000C3F906002000290001F0BEF9310006D554
:104DA00000284AD4022805D1069830C024E0022EFB
:104DB000F8D121E000280AD1069803C800228A4BC6
:104DC000FFF774FF0FD0069830C0002002E10128E1
:104DD00014D1069803C80022804BFFF767FF02D06A
:104DE000069830C050E0FFF773FF212101600020DA
:104DF000C0434108069A03C20220EBE0002E069849
:104E00000ED130C00C990698FCF774F9040002D05A
:104E1000012C00D0DDE0FFF75BFF22210160D8E02C
:104E200003C80022704BFFF741FF11D12000290079
:104E3000FCF790FB069A03C226E0069803C804AA72
:104E400003C204A803C80022654BFCF721F908D26D
:104E5000002320002900FCF77DFB069A03C20020F6
:104E6000B8E004A803C801225E4BFCF72AF90DD86C
:104E700000225D4B20002900FCF76CFB069A03C260
:104E8000FFF726FF222101600120A3E004A803C848
:104E900056A20CCAFCF75EFB00220023FCF7F8F8D0
:104EA00001D2544B00E0634BFCF70AFAFCF7B0F96F
:104EB0000290FCF7EBF906000F004FA20CCAFCF7BA
:104EC00049FB02000B0004A803C8FCF75CFA009041
:104ED00001914BA20CCA30003900FCF73BFB0200E9
:104EE0000B0000980199FCF74EFA06000F0046A24D
:104EF0000CCAFCF7E6F807D80022454BFCF7C8F8C7
:104F000002D22000290054E032003B00FCF722FBD3
:104F10006A4603C2684603C83EA20CCAFCF71AFBE5
:104F20003EA20CCAFCF7CCF902000B00684603C88D
:104F3000FCF710FB04AA03C2684603C839A20CCAD6
:104F4000FCF708FB39A20CCAFCF7BAF902000B0007
:104F5000684603C8FCF7FEFA0022364BFCF7B0F9AE
:104F600002000B0030003900FCF7F4FA06000F00D5
:104F700004A80CC83000FCF7A3F90022164BFCF77C
:104F80009FF90090019104A803C832003B00FCF790
:104F9000FAF90022104BFCF793F902000B0000987D
:104FA0000199FCF799FB02000B0020002900FCF797
:104FB000D1FA069A03C202980C9941180698FCF798
:104FC00099F8040001D0012C03D1FFF781FE2221C2
:104FD0000160200007B0F0BD0000F03F0000F0FFCE
:104FE00000C89CC000C89C400000F07FFE822B657A
:104FF0004715F73F0000E0BF000000F8422EE63FF3
:10500000F2E4D5BCE7E84B3EFEFFFFFFFFFF8FBC9D
:105010000000903C112E5781A03F503F5843128C06
:105020008F71BC3F4BE8A541B752013F0BBDF3DA8E
:10503000E8708C3F0000E03F10B515480068401C48
:105040001349086013480068401C12490860FEF7C5
:10505000A5FD002807D00F480468FEF7A9FD84428B
:1050600001D3FEF76AFD0C480068401E0A4908603B
:10507000002808D109480068401C08490860FA2047
:1050800080000549086010BD0248006870470000B4
:10509000900F0020680F0020A0000020800F00204B
:1050A00038B505000C006C60FFF7EEFF286031BDDD
:1050B00010B50400FFF7E8FF2168401A401C616842
:1050C000814201D2012000E00020C0B210BDFEE705
:1050D00000B5BFF34F8F644864490860BFF34F8F3A
:1050E000FEE730B58BB004006148009000256048B1
:1050F00001F030F804283BD1E00709D55D4800886D
:10510000694608715B48008880B2000A01A94870AE
:10511000A00703D55748807801A98870600703D598
:105120005448C07801A9C870E00603D551480079F9
:1051300001A90871200705D51E22794901A8401D43
:10514000FEF74AFA232101A8FEF726FA05002800F7
:1051500001A923310870280080B2000A01A9243176
:105160000870252201A9684601F076F8C0B200E077
:1051700001200BB030BD10B58CB03D480090002030
:105180003C49088000203B49887003203949C87099
:105190000020384908711E2200216148FEF72BFAD1
:1051A00034480088694608713248008880B2000A95
:1051B00001A948702F48807801A988702D48C078CF
:1051C00001A9C8702B48007901A908711E2200218D
:1051D00001A8401DFEF70FFA232101A8FEF7DCF914
:1051E0000400200001A923310870200080B2000AC9
:1051F00001A9243108701E4800F0ACFF042804D136
:10520000252201A9684601F027F80CB010BD70B541
:1052100001008A4D8C1E8A4B2000441E80B200285B
:105220000DD0280080B2000AADB21E786E40F5B2F3
:1052300002267543834E755B45405B1CECE72800F6
:105240007E4D4540187802005B1C92B2187880268B
:105250007600704312185B1CADB292B2954201D138
:10526000002000E0012070BD0400FA050CED00E014
:1052700000FC0008C80E002010B50200002000232A
:10528000DBB2C9B28B4204D2DBB2D45C00195B1C26
:10529000F6E7C0B210BD30B50400A4B220008021F2
:1052A000FCF7FEF80500A4B220008021FCF7F8F816
:1052B000002900D06D1C2800C0B230BDF0B504003C
:1052C000E4B2601E0821FCF7EBF8A5490D18E4B222
:1052D000601E0821FCF7E4F8A14908184679012767
:1052E000E4B2601E0821FCF7DBF88F4037436F7192
:1052F000F0BD70B50400E4B2601E0821FCF7D0F8E0
:105300009749081845790126E4B2601E0821FCF788
:10531000C7F88E40354201D0012000E0002070BD6A
:10532000CD0E002038B58E480088FFF7B4FF04008A
:105330000025EDB2E4B2A5420AD22800401CC0B25A
:10534000FFF7D7FF002801D1012002E06D1CF0E734
:10535000002032BDF8B504000E001500E4B2601E56
:105360000821FCF79DF88021C900484334494018C2
:105370000090E4B2812C01D181200400002080B291
:105380008021C900884207DA009980B2095C80B2A6
:10539000B64A1154401CF2E70027FFB2EDB2AF420B
:1053A0000ED2E4B2601E0821FCF77AF88020414357
:1053B000FFB2C819AD49FFB2F25D0A547F1CECE799
:1053C000009800F0C7FE042806D18022D200A74929
:1053D000684600F041FF00E00220F2BD10B58AB03F
:1053E0005F480088694608705D48008880B2000AFE
:1053F000694648705A488078694688705848C0782D
:105400006946C87056480079694608711E22984955
:105410006846401DFEF7E0F80024E4B2232C07DACA
:10542000E4B26846015D9348FEF7BCFD641CF4E7F6
:1054300091A0FEF7B7FD0AB010BD0000FFFF00000D
:1054400000800008E06C000810B58C48007A4549DF
:1054500008708A48407A4349487089484149486001
:105460008648407A85490818807A3E4908723D4846
:1054700041780A31C9B28148FFF7FEFE3949097AFD
:10548000C0B288426AD137480078002866D13548D2
:105490004068C0787B49887032484068407831491C
:1054A0004968897880225200514340180400200046
:1054B00080B2FFF7F0FE7349897888424ED3714875
:1054C000007928494968097888420BD16D48C0782D
:1054D000012806D16B488078FFF70BFF01280BD11C
:1054E0003CE03BE0674804801E484068007865491E
:1054F000087100206349C8701A4840680279194849
:105500004168491D5F488078FFF724FF002825D1B6
:105510005C48C078002802D101205A49C870594817
:105520008078FFF7CBFEFFF7FDFE002811D155482C
:105530000088FFF76CFE002808D102205149C8708E
:105540001F20FFF7CEFD00F0A7F807E0FFF713FEDE
:1055500004E01F20FFF7C5FDFFF740FF10BD00006E
:10556000C80E00205C0F002000B589B046480078C6
:10557000694608764448407806A9487042488078D1
:1055800006A988704048C07806A9C8703E480079CE
:1055900006A908713C48407906A948713A488079C3
:1055A00006A988713848C07906A9C8713648007ABA
:1055B00006A9087206A8C079059006A8007A04908A
:1055C00006A80079039006A84079029006A8807981
:1055D000019006A88078009006A8C3786846027EED
:1055E00006A841782948FEF7DDFC2948007869467D
:1055F00008762748407806A948702548807806A98B
:1056000088702348C07806A9C8702148007906A987
:1056100008711F48407906A948711D48807906A97C
:1056200088711B48C07906A9C8711948007A06A973
:10563000087206A8C079059006A8007A049006A80A
:105640000079039006A84079029006A8807901901D
:1056500006A88078009006A8C3786846027E06A84F
:1056600041780C48FEF79EFC09B000BDD404002030
:10567000CD0E0020E87700080A0000005C0C002036
:10568000660C0020C80E0020047700088073000814
:10569000AC770008B073000880B572B6FFF718FD4C
:1056A00001BDFEE7BA480068704780B5B948827806
:1056B000C1780906090C0A43002A05D000F011F848
:1056C000B5A0FEF76FFC02E0B448FEF76BFC1E21AC
:1056D000B34800F042FBAF4800218170090AC17055
:1056E00001BDFEB500200090002400251020694671
:1056F0000872012700266846007AF6B286424ED22A
:10570000F6B208207043A749085801900020040011
:10571000F6B208207043A349085800780500EDB29E
:10572000002D09D0641CE4B2F6B2082070439D49F4
:105730000858005D0500F2E7012007000020C0B214
:10574000E4B2A0420CD2C0B20199095CC0B2944A42
:10575000125C914202D00020070001E0401CEEE7FD
:10576000E4B2002C01D100200700FFB2002F14D0BA
:10577000FFF798FF00908CA0FEF714FCF6B208200B
:1057800046438848801940688047FFF78BFF00999F
:10579000411A8648FEF706FC01E0761CABE7FFB233
:1057A000002F0ED17E4800780D2807D07C48007865
:1057B0000A2803D09D48FEF7F5FB02E07AA0FEF729
:1057C000F1FBF7BDF3B581B00024002500200400F3
:1057D000A4B21E2C72D2A4B27148005D20286BD1F5
:1057E0006D1C6846007AEDB2854265D1A4B26C4862
:1057F0000019807820280BD0A4B26948001980785D
:105800000D2805D0A4B26648001980780A2808D16E
:10581000A4B263480019407800F0CAF801990870F2
:1058200049E0A4B25E480019C07820280BD0A4B289
:105830005B480019C0780D2805D0A4B2584800195B
:10584000C0780A2813D1A4B255480019407800F056
:10585000AFF807000A204743A4B2514800198078E6
:1058600000F0A6F80600F6190198067023E0A4B22D
:105870004B480019407800F09BF86946087068466C
:1058800069460978642251430170A4B24448001962
:10589000807800F08DF807000A204743A4B2404802
:1058A0000019C07800F084F8060068460078C01936
:1058B00036180198067004E0641C89E700200199FD
:1058C0000870F7BDF3B582B00020002400216A46BD
:1058D00011700021012200236D466B70002300250A
:1058E000280080B21E2850D280B22D4D2D5C202D74
:1058F00049D1641C6D462D7BE4B2AC4243D180B2E9
:10590000274D2D186D1C80B2254E3618761C019639
:105910002E78202E0BD06D1C2E780D2E02D02E78D6
:105920000A2E00D103E0019EAE1B062EF0DB6F466F
:10593000BC462F00019EBE1B67463E70019E367816
:105940002D2E01D1012633006E4636783400DBB2AD
:10595000E4B2A3420ED26D1E6E462F78303F7770B0
:1059600089B292B26E467678564389190A267243F6
:10597000641EECE7DBB2012B01D10026711A002670
:105980006F463E7001E0401CABE7029D2980FFBDE1
:10599000900F00209C0F0020433E0000B8740008C8
:1059A000EC0E00203C7100080D0A00007075000824
:1059B00000B50100C9B2302906DBC9B23A2903DAC1
:1059C00030390800C0B214E0C9B2612906DBC9B29F
:1059D000672903DA57390800C0B20AE0C9B2412981
:1059E00006DBC9B2472903DA37390800C0B200E044
:1059F000002000BD10B58AB00020C0B2252807DA0B
:105A0000C0B26649415CC0B26A461154401CF4E71A
:105A10000024E4B2252C07DAE4B26846015D60A0F8
:105A2000FEF7C0FA641CF4E70AB010BDD474000895
:105A300080B500206946087001216846FFF7C2FE64
:105A40006846007840B2FDF7AFFB01BD80B500208D
:105A50006946087000206946487001216846FFF7D2
:105A6000B1FE00A9491C68460078FCF792FD684623
:105A70004278684601784B48FEF794FA01BD80B53C
:105A80000020694608700020694688700020694639
:105A9000487001216846FFF795FE022100A8801C8E
:105AA000FFF790FE6846817868460078FCF768FD4D
:105AB00000A9491C68460078FCF76BFD68464278EF
:105AC000684601783748FEF76DFA01BD10B582B01F
:105AD000002069464870002069460870012100A82E
