:020000040800F2
:10100000601B002035C2000805BD000827BD000890
:1010100000000000000000000000000000000000D0
:101020000000000000000000000000002BBD0008D0
:1010300000000000000000002DBD0008195000084D
:1010400063430008000000004F4A0008D353000823
:1010500027BA0008F19500089F610008F59600087E
:10106000000000004F63000853630008413100088E
:10107000EB710008CB990008279A000800000000D7
:10108000179D00080000000000000000CD130008BC
:101090006F9E0008D3A90008DFB600086BBA0008ED
:1010A0002FBD0008EFBE0008FBBE0008A5300008F9
:1010B000652F000880B500F00FFB00F039FA00F052
:1010C00007FA00F0AFF901BDF8B5050068467A49A6
:1010D0000A68026000248022D2002900774801F0CB
:1010E00094F86946754801F0E4F80400002C16D025
:1010F0007248201AC01C0700E0788021490048434C
:10110000217940180600390089B26C4801F049F88D
:10111000B6B2B04201D1012002E0002000E0002080
:10112000F2BDF0B585B004000F000025684610211F
:1011300001F0F4F8E4B204206043A24909585F4882
:1011400001F0B7F80500002D01D100203BE000269A
:10115000F6B20F2E1ADAE4B2042060439949085817
:1011600001F0DEF8F6B22818805D3B280ED0E4B21C
:10117000042060439349085801F0D2F8F6B22818C9
:10118000805DF6B269468855761CE1E7E4B2052C2D
:1011900005D0E4B2062C02D0E4B20A2C04D1684691
:1011A00001F0C6F838600DE0E4B2072C06D16846BD
:1011B00001F0C4F801F0C8F8386003E0684601F0B7
:1011C000B7F83880012005B0F0BDE0B501218020DE
:1011D000400001F02AFA8020800069460881002042
:1011E0006946488078486946088028200190002098
:1011F000694688726946AC4801F0A6FA0121AA48FE
:1012000001F08EFB01220121A74801F07DFB07BD03
:1012100070B504000D00160001212088002804D0BC
:10122000B3225200904217D03FE0EDB2812D0BD196
:10123000764801F04FFD7648008E76490860754883
:101240000168754801F046FD7449754802F0DFF801
:101250000021B32040002080C9B2002905D0EDB2A2
:10126000882D02D16E48864201D0012022E000F094
:1012700062FF00F0D9FE66484088642102F032F92E
:101280006349098E634A1268891A814209D300F0C2
:101290001EFE5F48008E5F490860844801F01AFD19
:1012A000D2E7834801F016FDCEE7002001000020C0
:1012B0002080032070BD000054C4000848070020AF
:1012C000F8B505000F00160001242888002804D076
:1012D000FF21923188420AD06EE000F015FB4F49A1
:1012E000744802F094F80024FF2092302880E4B281
:1012F000002C05D0FFB2882F02D16E48864201D063
:1013000001205EE06C4801F0E5FC414800790128CD
:101310004FD16A480078012830D1694801F0DAFCE1
:10132000684800F0C4FB6849088067480088FC21D1
:101330008900884211DB654801F0CCFC00F074FEA6
:1013400000F06AFD5F4802F033F904282AD1122226
:10135000B9495C4802F0C3F924E05B4800880028E2
:1013600020D1B64801F0B6FC00F05EFE00F054FD5E
:101370001222B149534802F0B2F913E0B04801F02B
:10138000A9FC00F051FE00F047FD4E4802F010F9B4
:10139000042807D11222A8494A4802F0A0F90120E6
:1013A000464908700021B34802F0F0F9FFF70DFF3D
:1013B00002E0C7A001F08EFC00200400002028807D
:1013C0000320F2BDF800002080BB000080B50121A1
:1013D000354801F0A9FA002815D00121324801F062
:1013E0009FFA00F091FDBB4801F074FC00212E48EB
:1013F00001F0EDF9002283219E4802F0E7FA002176
:10140000D24802F0C3F901BD0000000074BE00081C
:10141000C00000202013002068BF000830750000C5
:101420008812002000B589B001218020800201F0DF
:10143000DBF801218020800001F0E6F8002000F0B8
:10144000F3FFC34802F065FB0120009003206946CA
:10145000087100206946C87169469020C00502F0F5
:10146000A1FB0121BA4802F03BFB082002900020BA
:1014700002A9087100200490002005900020069029
:101480000020079002A9B24802F012FB04220121B9
:10149000AF4802F033FBC6480068802109020143CF
:1014A000C348016009B000BD0020004080BF0008B3
:1014B000A4BD00089812002098BF000888020020F0
:1014C000E4C1000800F8000854130020C4BD00085F
:1014D00000B585B001218020800201F085F88020D0
:1014E00040000290002002A90871012002A9C871E1
:1014F000032002A9487102A99020C00502F052FB06
:10150000082002F057FC0821002002F07BFC80201C
:101510004000009000206946087108206946487123
:10152000012069468871684602F0F0FB05B000BDF5
:1015300000B58BB001218020C00201F055F80121D7
:10154000C020C00201F060F8C0208000009002209E
:101550006946087100206946887103206946487110
:1015600001206946C8716946B14802F01BFB02229E
:101570000921AF4802F092FB02220821AC4802F098
:101580008DFB8020800002A90881002002A94880EC
:10159000002002A98872302069460881FA20800064
:1015A000039002A9C24801F0CFF802A9D24801F085
:1015B000CBF8602069468882002005A98881012037
:1015C00005A94880042005A98880002005A9C881B4
:1015D0008020400005A90882002005A94882FA2041
:1015E0008000079005A9B24801F01BF905A9C2487F
:1015F00001F017F90821AE4801F078F90821BE483A
:1016000001F074F90121AA4801F0D3F80121BA4888
:1016100001F0CFF80121A64801F0D9F80121B64820
:1016200001F0D5F80121A24801F0E8F80121B24803
:1016300001F0E4F80BB000BD4807002090BE0008A0
:10164000D8BC000830B50400E4B2652C01DB64208E
:1016500000E02000A3490870E4B2FA208000604353
:10166000642101F03FFF05009F480560A348056025
:1016700030BD00009401002010B50421344802F070
:101680008FFA334802F069FA0421314802F06DFA0A
:101690000028F9D02E4802F05BFA2D4802F062FAD9
:1016A0000400A4B2200002F0EBFB90A20CCA02F0EE
:1016B000F7FB00228F4B02F0F3FB0022904B02F06D
:1016C000B1FC02F011FD0400200080B210BD00004A
:1016D0000D0A0000B0BF000800B585B001218020D0
:1016E000C00200F081FF01200090002069460871CF
:1016F00001206946C87103206946487169464C4813
:1017000002F050FA02200090012069460871002082
:10171000694688716946464802F044FA012002F0A1
:1017200049FB0021012002F06DFB01200290002006
:1017300002A90871082002A94871012002A9887134
:1017400002A802F0E3FA05B000BD0000A4010020E9
:101750000024014070B506000C008025354340216F
:10176000684802F0A1FD0028F9D0EDB2290089B245
:10177000644802F05BFD4021624802F095FD0028BC
:10178000F9D0E4B2210089B25E4802F04FFDEDB21B
:10179000E4B22819C54340215A4802F085FD0028CB
:1017A000F9D0EDB2290089B2564802F03FFD70BD74
:1017B0000C240140F4B582B007000E006846802179
:1017C0003943017068460078040040214D4802F01A
:1017D0006BFD0028F9D06846017889B2494802F0CB
:1017E00025FD00256846007AEDB2854210D24021E1
:1017F000444802F059FD0028F9D0EDB2715D89B27C
:10180000404802F013FDEDB2705D24186D1CE9E74D
:101810002000C0B2C44340213A4802F045FD0028F0
:10182000F9D0E4B2210089B2364802F0FFFCF7BDDE
:1018300000040048F5B581B00E00684604794021E7
:10184000304802F031FD0028F9D06846017989B2AC
:101850002C4802F0EBFC00256846007AEDB2854288
:101860000FD22021274802F01FFD0028F9D025487B
:1018700002F0E0FCEDB27055EDB2705D24186D1C05
:10188000EAE720211F4802F00FFD0028F9D01D488B
:1018900002F0D0FC07002000C0B2C443FFB2E4B2A3
:1018A000A74201D1012000E00020C0B2FEBD00002F
:1018B0000048014080B50021124802F0A6FC042136
:1018C0009020C00502F0DFF9192000F08BFC042104
:1018D0009020C00502F0D4F9142000F083FC01F040
:1018E00017F901BDF20000203448014066666666C3
:1018F00066660A4000408F40004401403444014085
:10190000000090400044004080B5FFF7D3FF00F096
:10191000DBF901BD00B50100C9B20A00D21F012ADE
:1019200015D91B3A022A15D9121F022A15D9D21E1F
:10193000042A0FD9D21F022A0CD9521F0AD00B3AFF
:10194000032A04D9121F08D03B3A03D008E0012231
:10195000100007E00322100004E00422100001E060
:1019600002221000C0B200BD70B582B005000C00AC
:101970006846002101602000000E694608702000C2
:10198000000C694648702000000A694688702000F3
:101990006946C8702800C0B2FFF7BCFF0600E52109
:1019A000EA20FFF7D7FE3200D2B2F6B270426946A3
:1019B0000918091D2800C0B2FFF7FCFEDC21EA204F
:1019C000FFF7C8FE73BD7CB505000C00684600211A
:1019D000002206C00838EDB2802D01DB002050E067
:1019E0002800C0B2FFF796FF06003200D2B2694667
:1019F0002800C0B2FFF71EFF012841D1F6B2012E28
:101A000003D168460078207037E0F6B2022E09D183
:101A10006846007880214900484369464978401863
:101A200020802AE0F6B2032E0FD16846007880218C
:101A30004902484369464978802252005143401880
:101A4000694689784018206017E0F6B2042E14D158
:101A500068460078802149044843694649788022D5
:101A600052025143401869468978802252005143FE
:101A700040186946C978401820603000C0B200E0C4
:101A8000002076BD38B50024002000900025EDB27E
:101A9000182D08DA69462800C0B2FFF794FF0098B5
:101AA00024186D1CF3E7A4B2E04380B232BD00B548
:101AB00001000023180080B2382809DA80B212230E
:101AC0004343CB5C1A00D2B2FF2A01D0401CF2E79C
:101AD0001223584380B200BD30B591B0C822002116
:101AE000764800F0A1FB7648806902F021FC0E9058
:101AF0000F917448C0690C90714840690B9071480F
:101B000080690A906E48006909906E4840690890A3
:101B10006B48808907906B48006906906848807A16
:101B200005906848C068049065480089039065483E
:101B3000806802906248C0880190624840680090C6
:101B40005F4803795F480268B1495C4802F00AFCCB
:101B50005A4800F0E5FB0400210089B2574800F024
:101B600020FB0500280080B2000AA4B253490855A2
:101B70002800A4B25149091948700020A4B24F4965
:101B800009198870A34801F013FD04280CD1220024
:101B9000D21C92B249499F4801F0A1FD002806D00D
:101BA000D74801F097F802E0D54801F093F811B05A
:101BB00030BD80B5424801880220FFF7D5FE40487D
:101BC000C1880320FFF7D0FE3D4801890520FFF7BB
:101BD000CBFE3B48817A0720FFF7C6FE3848818B51
:101BE0002020FFF7C1FE69462D20FFF7ECFEFFF72E
:101BF00049FF334988620098C00307D43048806A9F
:101C0000009989B2884201D10120009001BD70B5D0
:101C10000500ADB22C00002C4ED412222749ADB2E3
:101C2000B848281802F0D6FC2448C07B802149001F
:101C300048432249097C401806000F211F4800F044
:101C4000B0FAB6B2B04235D11C48407A8021490082
:101C500048431A49897A40181949888317484079B6
:101C600000214143154880790022424388181349D6
:101C7000C979802252004A4380181049097A4018D5
:101C80000F4908860D48C07A8021490448430B4912
:101C9000097B80225202514340180849497B802227
:101CA0005200514340180549897B40180449486354
:101CB000012002E0123CAEE7002070BD4807002082
:101CC000C0000020F800002038B55248FFF7FCF9AA
:101CD000012800D096E099490020FFF722FA002859
:101CE00000D18BE0CB480079012800D08DE09449E9
:101CF0000120FFF716FA93490220FFF712FA9249E2
:101D00000320FFF70EFA91490520FFF70AFAC249AE
:101D10000620FFF706FAC1490720FFF702FAC0487C
:101D2000FFF7C5FE0400A4B2FC208000844261DA03
:101D3000A4B2002C5ED01222BA49A4B27148201875
:101D400002F048FCB748C07B802149004843B549B0
:101D5000097C401805000F21B24800F022FAADB20C
:101D6000A84237D10120C8490870AE48407A802186
:101D700049004843AB49897A4018A6498883A94855
:101D8000407900214143A7488079002242438818C6
:101D9000A449C979802252004A438018A149097A8E
:101DA00040189C4908869F48C07A802149044843CE
:101DB0009C49097B80225202514340189949497B32
:101DC00080225200514340189649897B401891491E
:101DD00048631AE0200080B2FFF719FF012804D100
:101DE0000120A9490870C0B20FE00020A649087080
:101DF000C0B20AE00020A449087006E0002085492E
:101E0000087102E0002083490871FFF7D2FE31BD5E
:101E100048BC000800FC00081CB56946002002F020
:101E2000C4FF01A9002002F024FF6846C0787D4964
:101E30000870684640787B494870684680787949E0
:101E40008870684600797749C87001A8407875495C
:101E500008710020734948710020724988716D48EB
:101E6000008E80B2000A6F49C8716A48008E6D49C1
:101E700008726848808B80B2000A6A4948726548D7
:101E8000808B684988726348406B000E6549C87250
:101E90006048406B000C634908735E48406B000A61
:101EA000604948735B48406B5E4988730F215D4809
:101EB00000F077F90400200080B2000A5949C87385
:101EC00020005849087400205649487413BD10B5C5
:101ED000FFF7A2FF5248FFF7EAFD0400A4B2A748AB
:101EE000844204DB4E4801F063FB00200400122210
:101EF0004C49A4B24A48201801F0F1FB10BD000083
:101F0000E4BD0008EEF7000810B582B04448FFF7C2
:101F1000CEFD040069462020FFF755FD3D4988832A
:101F200000F082F8FFF778FFA4B23D482018009037
:101F300012223C49009801F0D2FB13BDC4000020DE
:101F4000C6000020C8000020CA000020D0000020E9
:101F500038B569462420FFF736FD0098000201D508
:101F6000002014E07F48006901F08AFF02000B00A6
:101F70000020834902F056F804000D00009801F09B
:101F80007FFF22002B0001F08BFF02F0ADF87549B6
:101F9000C88369462220FFF716FD0098000201D58C
:101FA000002018E06F48406901F06AFF02000B0052
:101FB0000020744902F036F804000D00009801F08A
:101FC0005FFF22002B0001F06BFF00226E4B01F03F
:101FD00067FF02F09BF86349086269462620FFF715
:101FE000F2FC0098002803D50098C143491C0091D9
:101FF000009802F049FF5B49896902F054FF02F042
:1020000097F90022614B02F00DF802F06DF8554986
:10201000888431BDC0000020D4000020D8000020FA
:1020200000F800084807002038B569462020FFF76F
:10203000CAFC00984B49888369462A20FFF7C3FCF5
:102040004848008E00994018464908864548008E49
:1020500002F01AFF02F06CF900224B4B01F020FF56
:1020600004000D003F48408801F00AFF02000B0009
:102070002000290001F0D6FF02F048F83949C86273
:102080003848C06A32BD0000880200207CB569462D
:102090002620FFF798FC01A92820FFF794FC009860
:1020A000002803D50098C143491C0091009802F014
:1020B000EBFE2C49896902F0F6FE02F039F90022A4
:1020C000324B01F0AFFF02F021F800900198002898
:1020D00003D50098C143491C0191019802F0D4FE38
:1020E0002049896902F0DFFE02F022F90022274B25
:1020F00001F098FF02F00AF8019001980199484315
:102100000099009A5143401801F0BAFE02F025FFF1
:1021100004000D00009801F0B3FE00221C4B01F0FA
:10212000BFFE22002B0001F07DFF01F0DDFF060065
:102130003000C0B276BD10B502F0A2FF154901F023
:10214000D4F900280BD002F09BFF06494C6B1149D3
:1021500001F0CBF920180349486302F094FF0148CD
:10216000406B10BDC000002000B50B48007800286F
:1021700001D1002000E0012000BD0000DE030000CE
:102180000030A1400000E03F00408F4080842E419D
:102190000000594060EA0000F20000200E4800688C
:1021A000704710B502000D480B00591E9BB2002B62
:1021B0000DD003009BB21B0A80B214784440E0B2F9
:1021C00002246043064C205A5840521CECE703009E
:1021D0000248584080B210BD28130020FFFF0000C5
:1021E0007CB3000838B504000025FFF7D7FF0500D1
:1021F000FFF7D4FF401BA4B2A04205D202F058FF63
:102200007F2002F05DFFF3E731BD30B50300180019
:102210000C0015006A1EADB2002D04D025780570A3
:10222000641C401CF5E730BD10B503001400621EAD
:10223000A4B2002C02D019705B1CF7E710BD30B5BA
:102240000B00040015006A1E002D04D01D782570B7
:102250005B1C641CF6E730BD10B503001400621E61
:10226000002C03D00C001C705B1CF7E710BD10B5F0
:10227000020000200023DBB2C9B28B4204D2DBB2E1
:10228000D45C00195B1CF6E7C0B210BD30B503008A
:102290000020C0B2D2B2904209D2C0B21C5CC0B21F
:1022A0000D5CAC4201D0002002E0401CF1E70120AF
:1022B00030BD38B505000C002100280002F008FFF1
:1022C00032BD38B4012100220368001D002B0BD061
:1022D0000468001D0C4202D04D466D1E6419226038
:1022E000241D1B1FF0D0FAE732BC7047130030B436
:1022F00014001500103902D310393CC0FCD2490734
:1023000000D30CC000D504C0890002D30280801C19
:10231000002900D5027030BC704700000022E5E7BC
:10232000010000E0491C0A78002AFBD1081A704716
:1023300080B50A22002102F07AFF02BD80B500229A
:10234000002103F041F804BD012252054B18DA4286
:1023500001D9581570475B0D0722D2019B1A10D97D
:10236000FF2B1DD2DB050122D2070A4013430903CC
:10237000020D1143490AC200524100D9491CC81834
:1023800070470AD1800A0A0302435212921C04D9F0
:10239000D3070B40D00518437047C80FC0077047DC
:1023A000C80F0002FF30C00570470268531C03606D
:1023B0001170704700212A4A11702949087070472E
:1023C00000B5C0B2002807D0154909688022520420
:1023D0000A4313490A6005E011490968764A0A4030
:1023E0000F490A6000BD00B5C0B2002807D00C49F3
:1023F0000968802212030A4309490A6005E0084976
:102400000968784A0A4006490A6000BD0021054A69
:1024100012681100032291430143024A1160704780
:10242000001002400410024088490968884A0A40A6
:1024300086490A608549096882B20A4383490A606D
:1024400006490968834A0A4004490A600349096841
:102450000200120C0A4301490A6070473010024022
:1024600002100240FCB50400002500260020019067
:10247000002000900027754800680C2101400D00E5
:102480002800002804D0042805D0082806D027E01A
:102490009348206026E07948206023E06B4800687C
:1024A000F021890301400E0068480068802149023C
:1024B00008400190B60CB61C0198002803D187484B
:1024C000704320600BE0874800680007000F401C45
:1024D00000906A48009901F008F87043206001E01C
:1024E0007F48206059480068F02101400D002D0907
:1024F0008748405D07002068F840606053480068E6
:10250000E021C90001400D002D0A8148405D07000F
:102510006068F840A06050480068C00502D47D485B
:10252000E0600AE049480068400403D4A06840081D
:10253000E06002E0A0688008E0604748006840066C
:1025400002D47548206102E08020000220614248E8
:102550000068C00602D46248606101E020686061E2
:102560003D4800688007800F002802D1A068A06164
:102570001AE0394800688007800F012802D12068DE
:10258000A06111E0344800688007800F022803D161
:1025900080200002A06107E02F4800688007800FBC
:1025A000032801D14E48A061F3BD5C49096801438D
:1025B0005A4A116070470000FFFFFFFE00B5C0B22D
:1025C000002807D055490968802212020A4353495E
:1025D0000A6005E051490968514A0A404F490A60BA
:1025E00000BD0000FFFFF7FF00B5C9B2002905D00C
:1025F0004C4A126802434B4B1A6004E0494A126885
:102600008243484B1A6000BD00B5C9B2002905D00D
:10261000454A12680243444B1A6004E0424A126879
:102620008243414B1A6000BD000000B5C9B20029C9
:1026300005D03E4A126802433C4B1A6004E03B4A14
:1026400012688243394B1A6000BD0000041002403A
:10265000FFBFFFFFFFFEFFFF3010024000B5C9B211
:10266000002905D0324A12780243314B1A7004E037
:102670002F4A127882432E4B1A7000BD0024F400BA
:1026800010B501000022002300200C00E4B2640910
:10269000E4B22200002A03D1264C246823000EE075
:1026A000012A03D11D4C2468230008E0022A03D12B
:1026B000214C2468230002E0204C24682300C9B286
:1026C000CC06E40E22001C00D440E40702D501240D
:1026D000200001E000242000C0B210BD00093D0030
:1026E00000127A002C10024000B501000020144AAC
:1026F0001268C9B20A40002A02D00122100001E08B
:1027000000221000C0B200BD0E49087070470000E2
:10271000E4010020809FD5001280000020100240BC
:10272000FF7FFFFF14100240181002401C100240EF
:1027300009100240001002402410024034100240F0
:10274000081002400A10024000B5002203881A0057
:10275000264B984206D08023DB05984202D0244BBA
:10276000984205D11300554A1A4013004A881A436B
:10277000204B984205D01300514A1A4013000A8991
:102780001A4302804B68C3620B880385174B98423B
:1027900008D0194B984205D0474B984202D0494B7C
:1027A000984201D18B7A03860123838200BD416266
:1027B000704700B5C9B2002904D0028880231343B2
:1027C000038003E00288424B1340038000BD00B544
:1027D000C9B2002904D0028801231343038003E017
:1027E00002883D4B1340038000BD0000002C0140D7
:1027F00000040040001000400040014000B5C9B294
:10280000002907D04422825A80231B02134344220A
:10281000835205E04422825A5204520C4423C2528D
:1028200000BD70B5002200230024058C2A4E2E40E6
:102830000684058C2B0085882C00058B2A0015004A
:102840001E4A2A401500254A2A4015000A882A43B4
:102850001D001D4B2B401D008B892B431D004B88F9
:102860002B431F4DA84208D01E4DA84205D0124D43
:10287000A84202D0134DA84217D11D00154B2B4082
:102880001D00CB892B431D00104B2B401D008B8856
:102890002B432500144C2C402500194C2C402500BE
:1028A0000C8A2C4325004C8A2C43848002838D683B
:1028B0004563038470BD0000004401408FFF0000A9
:1028C000FFFC000000480140FDFF0000FBFF00008E
:1028D0007FFF0000F7FF0000FEFF0000FCFF00008C
:1028E000002C014000400140FFFE00000022038B4D
:1028F0001A001300034A1A400A430283704700007B
:10290000FFFD0000F7FF000000B5D2B2002A03D09F
:1029100083890B43838102E083898B43838100BDDC
:1029200089B2CA430282704730B5020000200023FA
:102930000024158A0D402B0095890D402C009BB278
:10294000002B05D0A4B2002C02D00125280001E004
:1029500000252800C0B230BD664800687047C0B28C
:1029600002214143644A515AC0B204224243634B9C
:102970009A5811857047C0B2022141435E4A515AAC
:10298000C0B2042242435D4B9A589161704770B5C2
:1029900004000E00150001212088002802D06428C0
:1029A00003D075E0002164202080C9B2002901D144
:1029B000012072E0F6B2862E33D12878002809D1A2
:1029C0004F484188022041430A3189B24D4800F006
:1029D0001EFDE7E728780128E4D02878042805D1EF
:1029E00097214900484800F012FDDBE728780528C8
:1029F000D8D02878082804D19D21444800F007FD4C
:102A0000D0E72878092803D1404800F01FFDC9E726
:102A100028780C28C6D10D209E49087002F0DDFCF4
:102A2000C0E7F6B2882EBDD1364885420FD10220CC
:102A300099490870994800F04DF90120FFF79BFF74
:102A4000002000F06DF81421954800F021FA2E487E
:102A500085420FD1002093490880062092490870D2
:102A60000020FFF788FF002000F05AF817218F4858
:102A700000F00EFA2548854294D10A208C4908704E
:102A8000012000F04DF816218A4800F001FA89E78C
:102A90000020010000202080032070BD80B500F0E0
:102AA00001F801BD80B5002069460870C821890081
:102AB000814803F06AFBC8214900804803F065FBA8
:102AC00000207F49087000207D4948706B46102225
:102AD0003221794803F0B3FA7A49086068460078F1
:102AE000002801D003F082FA684600780028EDD172
:102AF00001BD00002813002058C400082C0200204B
:102B00002C130020C8120020D8120020E812002048
:102B100080B5002000F004F8012000F001F801BDAC
:102B200010B588B004000121E4B204206043664A75
:102B30001258E4B204206043644B18581043FFF766
:102B400053FD01210120FFF75FFDE4B2002C08D105
:102B50000121E4B2042060435D4A1058FFF765FD8F
:102B60000CE00121E4B204206043594A1058FFF7F9
:102B70004BFD01218020800001F034F9E4B2BD4812
:102B8000025DE4B2BC48015D89B2E4B20420604356
:102B9000BA4B185801F082F8E4B2B948025DE4B2C9
:102BA000B848015D89B2E4B204206043B64B1858BE
:102BB00001F074F8E4B202206043B449085A00906E
:102BC000022069460871032069464871E4B2002C6E
:102BD00003D101206946887102E0002069468871AE
:102BE00001206946C8716946E4B204206043A34AE3
:102BF000105800F0D7FFE4B202206043BE49085AE3
:102C000000906946E4B2042060439F4A105800F0E7
:102C1000C9FFE4B204206043B849085802908020FC
:102C200040010390002004908020C0000590002007
:102C300007900C20069002A9E4B204206043C54A24
:102C4000105801F07BFAE4B2012C08D10122C249EC
:102C5000E4B204206043BF4B185801F003FB01218C
:102C6000E4B204206043BB4A105801F0CEFAE4B24B
:102C7000012C0CD101228021E4B204206043B54B29
:102C8000185801F0E3FA01210120FFF7ADFC08B06C
:102C900010BD00008C0200208902002060C10008E5
:102CA00010C00008301300208A02002028C000084D
:102CB0008B02002040C00008240400209402002061
:102CC000900200204407002034C400083CC40008DF
:102CD0002CC400080FB4F0B5BBB000206946488092
:102CE0000024002069464870002508AE002069468F
:102CF0000870002741A80190019B409AC82108A8AC
:102D000003F04EFA040068464480A4B2002C00D1BF
:102D1000A8E0A4B2C92C00D3A4E0A4B220000C21E6
:102D200000F0E3FB002908D0A4B220000C2100F041
:102D3000DCFB401C6946487006E0A4B220000C2170
:102D400000F0D3FB6946487000200500FFF704FE41
:102D5000070068464078EDB2854266D2FFF7FCFD79
:102D6000C01B652861D202F0A3F97F2002F0A8F908
:102D700002A97A48006803F0E3F9694608706846DA
:102D800000780028E5D106980028E2D0694673480B
:102D9000006803F09BF9001D71490978082251432E
:102DA0006F4A51184860684600780028D1D1A4B213
:102DB0000D2C15D30C2231006948007808235843A4
:102DC000674B1818406803F0D5F90C20644909785E
:102DD00008225143624A511808720C3C0C3613E029
:102DE000220092B231005E480078082358435C4BC1
:102DF0001818406803F0BEF92000594909780822E4
:102E00005143574A51180872FFF7A6FD07006D1C81
:102E100053480078401C52490870514800783228C5
:102E200097DB00204E49087093E79D4800780828FA
:102E300018D008209A49087049484078082148432A
:102E400047490818017A89B245484078082250431A
:102E5000434A1018406800F01BF8914A8621B04898
:102E600000F0B4FD684640883BB00499F0BC05B062
:102E7000084700003A410008AE3A00084C02002022
:102E80002E430008E6400008540200205CC40008FD
:102E900030B58BB005000C00A4B2002C2AD0A4B22F
:102EA000C92C01DBC82004009E4803F097F99E4816
:102EB0000090019510200290A4B203940020049089
:102EC00080200590002006900020079000200890A8
:102ED00080204001099000200A906946914803F043
:102EE000BFF901220A218F4803F0E9F901218D4839
:102EF00003F0D7F90BB030BD60C4000824C400084B
:102F000038B505000C00A4B2002C22D0A4B2FF2CCE
:102F100001DDFF20040000208449088083484480AC
:102F20008348854205D0220092B22900804803F0F0
:102F300021F900207F4908707E4A8621784800F0F8
:102F400045FD0120FFF70BFD01227B49C64801F03A
:102F500089F931BD44020020050105004407002025
:102F60009002002080B57549BF4801F0ABF90028F8
:102F70006ED00020FFF7F3FCA1480088FF2802DB99
:102F800000209F490880B84801F054F99C490988FD
:102F90009C4A50549A480088002808D104209A4935
:102FA0000870994A86215E4800F010FD04E09721E0
:102FB0004900964800F076FA91480088002808D029
:102FC000401E052815D9801F03D0401E012810D9A6
:102FD00015E08B4800888B49085C682803D00020E6
:102FE0008749088004E086480088401C844908809E
:102FF0002EE083480088401C8149088028E08048F2
:1030000000888049497A0B3188421CDB7C48008863
:103010007C49085C16280FD105207B4908707B4845
:1030200000F014FA784A86213D4800F0CFFC74483D
:103030000088401C724948800020714908800020A7
:10304000FFF799FC04E06E480088401C6C4908803A
:103050003949854801F036F9002820D033480088E6
:103060000100491C314A118080B23149095C89B2A2
:103070007D4801F0DBF82D4800882C4949888842BA
:103080000DD37A4800F0E2F901202A4908700120A6
:10309000FFF771FC00222849734801F0E3F801BDF5
:1030A0008B02002010B52549714801F00BF900286A
:1030B00035D06F4801F0BEF804006E4800881E2825
:1030C00002DB00206B490880E4B2082C09D1694872
:1030D0000088002823D067480088401E6549088082
:1030E0001DE06448008864490C5462480088401C14
:1030F00060490880E4B20D2C02D0E4B20A2C0ED153
:103100000C205E4908705D4A8621054800F05EFC8F
:10311000584800885749488000205649088010BD0B
:10312000D401002044000240283801402C13002024
:10313000D00D0020890200200701070005010500CD
:1031400010B500248020800103F0C5F8002846D087
:103150008020800103F0CEF8494840780821484398
:10316000474908184168091F4648006802F0CDFF2A
:103170000400E4B2002C32D141484078401C404960
:1031800048703F484078322802DB00203C494870B4
:103190003B4840783A490978884218D008203A4993
:1031A0000870374840780821484335490818017AA3
:1031B00089B23348407808225043314A1018406899
:1031C000FFF766FE9D21314800F06CF907E0092009
:1031D0002D4908702C4A86212D4800F0F7FB8020ED
:1031E000000203F078F8002809D08020000203F0E4
:1031F00081F80A2024490870244800F027F910BDFE
:1032000030130020D00E00208A020020D8120020A7
:1032100080B50020694608800121684602F0E4F983
:1032200068460088002801D0012000E0002069469F
:103230000988FF2901DA012100E00021C0B208421B
:1032400011D000206946098880B2884206D2010068
:10325000491C80B20F4A1154401CF3E768460188AC
:103260000C48FFF74DFE01BD00440040C81200208D
:103270000038014034130020581200208C02002036
:1032800090020020440700208B020020E81200205A
:10329000D4010020D00D002070B57E4800680028C1
:1032A00003D100207C4908601DE001F0E6FE050026
:1032B000784800680600306871684018401B0400B8
:1032C000B668002E0CD0306871684018401BA042D0
:1032D00004D2306871684018401B0400B668F0E7FB
:1032E00028196D49086070BDF4B506000F00012172
:1032F0003088002802D0592806D05CE000206549BB
:103300000860002159203080C9B2002901D1012074
:1033100056E0FFB2872F24D100985E490968002942
:103320000AD05C490968C968814205D159490968D0
:103330008968584A1160F0E75649096800290FD09A
:10334000544909680D00A968002909D0A968C9680D
:10335000814203D1A9688968A960F4E7AD68F2E702
:10336000CFE7FFB2822FCCD100200400494800688B
:103370000500002DC5D0280002F0DAFF002817D084
:103380002A008821E86800F021FB00280ED10020E7
:10339000E860002C02D0A868A06002E0A8683D495F
:1033A00008600020A860FFF777FFDDE700F009F86C
:1033B0002C00AD68DDE700200100002030800320F4
:1033C000F2BD80B5354800F045FB01BD38B50400BD
:1033D000FFF7F7FFE06800280ED02E4800680500D0
:1033E000002D09D0A54205D12D480068E060FFF707
:1033F00053FF0BE0AD68F3E729480068E06025481B
:103400000068A06023480460FFF746FF31BD38B56F
:1034100005000C002100280002F082FF2800FFF7C1
:10342000D5FF31BD00B51B480068002801D0012040
:1034300000E00020C0B200BD80B5FFF7F3FF002818
:1034400002D01548006800E0002002BD38B5040035
:1034500010480068844207D10E48006880680D4912
:103460000860FFF719FF0FE00A4800680500002D0B
:1034700004D0A868A04201D0AD68F8E7002D03D0C1
:10348000A068A860FFF708FF0020A0600020E060AF
:1034900031BD0000181300201C13002084010020FF
:1034A0003C13002038B505000C002100280002F074
:1034B00037FFFFF7F1FE31BDF446002804D449423E
:1034C00000F013F8404260474042002905D45FD025
:1034D00000F00BF8404249426047494200F005F8CD
:1034E0004942604703460B43E6D40022030A8B425D
:1034F0000BD203098B4219D243088B422ED2411AB8
:1035000000D20146524110467047FF2209023FD0C7
:1035100012068B4205D3121209028B4201D31212FA
:10352000090203098B4219D300E0090AC3098B423F
:1035300001D3CB01C01A524183098B4201D38B01C5
:10354000C01A524143098B4201D34B01C01A524168
:1035500003098B4201D30B01C01A5241C3088B42AD
:1035600001D3CB00C01A524183088B4201D38B0098
:10357000C01A524143088B4201D34B00C01A52413A
:10358000884200D3401A5241CFD2014610467047BC
:1035900008B502F0DDFE08BD00B529480068000648
:1035A00005D528482849086028482749086000BDF3
:1035B00038B504000425B020000300F06DF80500C4
:1035C000EDB2042D18D11E480068022101431C48A9
:1035D00001601F4804601A480068402101431848F0
:1035E0000160B020000300F057F80500144800689F
:1035F00002218843124908602800C0B232BD70B56C
:1036000005000C000426B020000300F045F8060079
:10361000F6B2042E11D10A4800680121014308487E
:1036200001602C80B020000300F036F8060004484A
:10363000006801218843024908603000C0B270BDB3
:10364000102002402301674504200240AB89EFCDE2
:10365000142002400F490860704700B504200D494E
:103660000968C90702D5012108000FE00949096866
:10367000C90602D50221080008E006490968490781
:1036800002D50321080001E004210800C0B200BDFA
:10369000000000000C20024038B504000425FFF7AC
:1036A000DCFF0500EDB2012D06D1002C04D0FFF7A0
:1036B000D4FF0500641EF5E7002C01D105200500AC
:1036C0002800C0B232BD200080B5FFF765FF35206D
:1036D000FFF7C0FF01BD80B5FFF7F6FF01BDF8B5EC
:1036E00005000E00170072B60024BFB23800022198
:1036F000FFF7F8FEA4B2844223DAA4B202206043AA
:10370000305CA4B2022161437118497880225200D2
:103710005143401869460880684601882800FFF731
:103720006EFF04280AD1288869460988884202D099
:1037300062B6022029E0AD1C641CD6E762B6012007
:1037400023E0BFB238000221FFF7CCFE002902D1EE
:1037500062B6002019E06846BFB2F119491E097827
:103760000180684601882800FFF749FF04280AD134
:10377000288869460988884202D062B6022004E09F
:1037800062B6002001E062B60120F2BD70B505000E
:103790000E00A64800680400AC4203D0002C01D003
:1037A0002468F9E7AC420DD0A048006828609F4823
:1037B00005600120A8730020A88132008121280023
:1037C00000F036F970BDF8B505000F00A94806688D
:1037D000964800680400AC4203D0002C01D0246855
:1037E000F9E7002C3AD0280000F058F900281CD046
:1037F0000020A8738D4800680400002C08D0A54262
:1038000004D02A008721200000F029F82468F4E77A
:10381000A868002809D0BD4207D09648056000225C
:10382000832128000C30AB689847804800688542A7
:1038300005D17E48006800687C4908600CE07B4840
:1038400000680400002C07D02068A84202D1286834
:10385000206001E02468F5E786480660F1BDF8B510
:1038600004000D001600A07BC0071CD5A06800282E
:1038700019D0804804600220A07332002900C9B228
:1038800020000C30A36898470700022F04D0032FB4
:1038900002D0EDB2832D04D121002000FFF793FF69
:1038A00001E00120A073F1BD8A2069490870002061
:1038B000714908707149087000205C4908606D49C1
:1038C0000860704710B500206D49087057480068BF
:1038D0000400002C0DD0E07B002808D00120A0734C
:1038E0000020E073002282212000FFF7B8FF246847
:1038F000EFE710BD80B561480078002856D05E48DB
:1039000000780C2148435F49085C5F4908705A48B9
:1039100000780C2148435B49081840685B490860FF
:10392000554800780C214843564908188068584982
:10393000086051480078401C2021FFF7D3FD4E4815
:1039400001704E480078401E4C490870504800688D
:1039500000281BD1354800684E4908604D48006872
:10396000002823D046480078002801D0FFF7AAFF9E
:10397000464802684448017846480068FFF76FFFF0
:1039800044480068006843490860E7E73E4800781B
:10399000812803D101203E49096888733B480268A9
:1039A000394801783A480068FFF759FF01BD80B5F2
:1039B00033480078002801D0FFF784FFFFF79AFF13
:1039C0002E4800782E490978401802BD70B50400D1
:1039D0000D00160029480078202801D1012024E09C
:1039E00025480078254909784018C0B22021FFF702
:1039F00079FD29480170284800780C214843214965
:103A00000D54254800780C2148431E49081846608B
:103A1000214800780C2148431A4908188460174847
:103A20000078401C15490870002070BD3813002034
:103A3000F8B505000F0016000E4804683200390082
:103A4000C9B22800FFF70BFF0A480460F1BD00006F
:103A50005713002000B500280AD0817B012902D02D
:103A6000817B022904D10121C1730121044A117013
:103A700000BD00003C130020591300205813002003
:103A80005A130020480B00205B1300204013002035
:103A900044130020481300205C13002000B5807BF5
:103AA000002801D0012000E00020C0B200BD0206C5
:103AB00030B40023C26813001A00374B13401A00B9
:103AC0000B680C7964031C438B682343CC681C434C
:103AD0000D6925434B692B431343C36030BC7047CA
:103AE00000B5C9B2002904D0826801231343836062
:103AF00003E0826802231343836000BD10B40023F7
:103B0000846A0C4384620724A3431343436110BCBB
:103B1000704730B501000020002300228C6880250A
:103B20002D0625438D608C6880252D062C402200B3
:103B30005B1CF0242402A34201D0002AF3D18C683C
:103B4000002C02D40C6C200001E00024200030BDC9
:103B5000816810220A4382607047816804220A4308
:103B600082607047006C80B2704730B50200002060
:103B70000023CC0104D59468084D25402B0001E0BA
:103B8000146823000B4202D00124200001E000242D
:103B90002000C0B230BD000003D2FFFFFFFFFFFED8
:103BA00001607047F0B500220023002400252A00A0
:103BB000102A55D2012595402B000D681D402C0080
:103BC0009C424BD10D79012D02D00D79022D1DD1D2
:103BD00086680327BC46150002277D436746AF4031
:103BE000BE43866086684F79BC46150002277D4338
:103BF0006746AF4037438760858801269640B543C6
:103C0000858085888E7996402E43868006680327B6
:103C1000BC46150002277D436746AF40BE430660A1
:103C200006680F79BC46150002277D436746AF4002
:103C300037430760C6680327BC46150002277D434B
:103C40006746AF40BE43C660C668CF79BC46150024
:103C500002277D436746AF403743C760521CA7E742
:103C6000F0BD00B502000020138A89B20B40002B82
:103C700002D00123180001E000231800C0B200BDEB
:103C800089B2816170470185704700B5D2B2002AC0
:103C900002D089B2816100E0018500BDF8B4002343
:103CA0000024D2B20D006D076D0F04267543160077
:103CB000AE40330089B20D00ED100426754345195E
:103CC000009589B20D00ED100426754345192F6A41
:103CD0000F25AC460D006E07760F04256E43654632
:103CE000B540AF43009D2F6289B20D00ED10042650
:103CF000754345192D6A1D432C0089B20D00ED1046
:103D00000426754345192C62F1BC704700B50021AB
:103D10002A4A11008279002A36D0284A126803689C
:103D20009A43264B1A60264A126803689A43244B2A
:103D30001A60027989180A68036813430B60214AE4
:103D4000126803689A431F4B1A601F4A126803687F
:103D50009A431D4B1A604279102A0CD1194A1268F5
:103D600003681343174A1360174A12680368134322
:103D7000154A13600EE0114A1100427989180A6849
:103D8000036813430B6005E0027989180A68036829
:103D90009A430A6000BD00B5010000200B4A12687A
:103DA0000A40002A02D00122100001E00022100087
:103DB000C0B200BD05490860704700000004014022
:103DC00004040140080401400C04014014040140B3
:103DD0000021244A12681100032291430143214A21
:103DE0001160704700B5C9B2002905D01D4A12689C
:103DF00002431C4B1A6004E01A4A12688243194BB2
:103E00001A6000BD30B400220F238C07A40F0425D4
:103E10006C43A3401A00C9B20B009B1004246343F7
:103E2000114CE3589343C9B20C00A41004256C4311
:103E30000D4D2B51C9B20B009B10042463430A4C57
:103E4000E458C0B28D07AD0F04235D430300AB40BF
:103E50002343C9B20C00A41004256C43024D2B511E
:103E600030BC70470000014008000140010009D546
:103E7000F446404200F006F80122D20711436047A1
:103E8000010000BF42221201D21E004207D002D41C
:103E9000521E0018FCD5C10A40051205891870474A
:103EA000F0B50E005E400125ED072E40B446AE0A87
:103EB000DF184C18F44208D2F7420ED2640D01D03C
:103EC0007F0D12D100206146F0BD05D1F74201D827
:103ED0007F0D05D10020C143F0BDFBD1640DF9D0A9
:103EE0000020C143490549088FE0E419C902DB02FB
:103EF00029432B43DB0A460DC00231438E4630B4C2
:103F000087B295B27D432E0CADB2140C7C43A4193C
:103F1000260C240425439CB27C43A419190C794334
:103F2000270CC919A4B20F043C43090C000C97B22A
:103F300047432E0CBE193543ADB2170C4743360C20
:103F4000BF19A6B2BF193E043543240C3E0C3619E6
:103F50009FB24743BF19BCB23E0C89191F0C47439F
:103F60007F183E043443390C704680B297B2474301
:103F70002E0CBE193543ADB2170C4743360CBF1992
:103F8000A6B2BF193E043543240C3E0C36199FB22D
:103F90004743BF19BCB23E0C89191F0C47437F1819
:103FA0003E043443390C77463F0C90B278432E0CD4
:103FB00080190604ADB22E43050CA0B22D18120CC8
:103FC0007A435019020C80B2240CA4189AB27A4396
:103FD000121914042043120C89181B0C7B43C918B6
:103FE00030BCEF0A394203D1B61940414941641E41
:103FF0006F12BF0DE41B0BDBFF19BC4211DA240565
:1040000000274208AE417841614166463143F0BD28
:10401000641C05D1401C6141CF0201D34908F4E77B
:1040200050E75DE7F0B40E005E400125ED072E403D
:10403000B446AE0ADF184C18F4423BD2F74241D2E4
:10404000640D43D07F0D38D0E41BC902DB02294345
:104050002B43CF0ADB0A0600B61A9F4104D2641E26
:10406000B6197F41B6185F416812800D24180018F8
:10407000844222DAE80C0021B6197F41B61A9F412A
:1040800002D2B6185F413F1C40414941F4D3241C81
:1040900021DD2405B6197F41B61A9F4105D3374368
:1040A000C60737430026012F704161416646314300
:1040B000F0BC7047FCD1F74205D20020C14349054E
:1040C0004908F3E704D00020C143F1E77F0DFAD09F
:1040D00000206146ECE72442FAD1401C61410F0305
:1040E000F6D30020E2E70307F4464A1805D200F0B1
:1040F0000FF801D580174008604700F009F801214A
:10410000C907884200D90800404260474A1812D2C5
:10411000400DC90208430121C9070843520D40213F
:104120000901521A521C06D452421F3201D4D04007
:104130007047C0177047002070470100F0B589B084
:1041400006000F00002500200090002430680121A7
:1041500088433060706804002000384C0440200020
:10416000BC6804437460306804002000344C044090
:104170007868F968014338690843204304003460D3
:10418000B068040020002F4C044020007C690443E8
:10419000B46001A8FEF766F92348864202D1079869
:1041A000009001E003980090306800040ED500985C
:1041B000022148433968FFF798F905000098022169
:1041C00048433968FFF791F90C0009E00098396815
:1041D000FFF78BF9050000983968FFF786F90C00A6
:1041E00038684008844200D36D1C3068000408D54C
:1041F000280040084007400F04002800124D0540E9
:1042000025432800B08109B0F0BD00B5C9B200292E
:1042100004D0026801231343036003E00268012312
:104220009A43026000BD000000380140CA05D20D6B
:1042300002857047808CC005C00D7047FFCFFFFF1F
:10424000F3E9FFFFFFFCFFFFF0FF000000B5D2B273
:10425000002A03D083680B43836002E083688B43AA
:10426000836000BDF0B50023002400250026060071
:104270000F00BFB23F0ABFB23B00CFB23C000127E4
:10428000A7403D00022B01D1361D02E0032B00D1D7
:104290000836D2B2002A03D037682F43376002E0D5
:1042A0003768AF433760F0BD00B502000020D36926
:1042B0000B40002B02D00123180001E0002318005E
:1042C000C0B200BDF0B50300002400250026002088
:1042D0000A0092B2120A92B21600CAB21500012761
:1042E0002A003D009540012E03D12A001D6815408B
:1042F00008E0022E03D12A005D68154002E02A0082
:104300009D6815400A00120C1400012722003C0091
:1043100094402200DC691440002D04D0002C02D00F
:104320000122100001E000221000C0B2F0BD010027
:10433000012212060118CA420AD28A420DD8382236
:10434000120609098918C20FD207114340077047A6
:1043500000D049080909014301E0C10FC907002045
:104360007047FEE70CB41CB5040004A8019000944B
:1043700001AB0A006946084878441C3001F0EAFFA6
:104380000021009A1170002801D40098001B02B08F
:10439000019910BC03B0084713E0FFFF00B5BFF35D
:1043A0004F8FAE48AE490860BFF34F8FFEE70278EB
:1043B00080235B005A434378D218CA8082788023D6
:1043C0005B005A43C378D2184A80027980235B008D
:1043D0005A434379D2180A80827980235B005A437A
:1043E000C379D2188A80027A0A73020009328A607D
:1043F000704770B504000E001500012120880028C8
:1044000002D07D2803D094E000217D202080C9B215
:10441000002901D1012091E0F6B2862EF4D1B948ED
:104420000560B949B7480068FFF7C1FFB648C088C2
:10443000B649C979802252005143B44A127A891888
:10444000884203D1B248FEF745FCDDE7AE488088DC
:10445000AD490988884203D3AE48FEF73BFCD3E759
:10446000CF48807A002820D1AB48FEF733FCA6481D
:10447000027B0932A3480168A848FDF7E0FE03F07B
:1044800085F88C220021C648FDF7E6FE0120C449CC
:1044900088729D48C088C24908819B480088C049ED
:1044A00048800120BF490870AEE7BD48807A0128E6
:1044B0003ED1BB4800899449C98888421AD19248A4
:1044C000808800F0AEF9012803D1B748FEF702FC5E
:1044D0009AE7B3498C4800F032F8B24800780128D6
:1044E00007D10020AF49087087498C48FFF75FFF6C
:1044F000DFE789E7BC48FEF7EDFB8348027B093222
:10450000804801688548FDF79AFE00F0F1F803F055
:104510003DF80120A24988727B48C088A0490881E3
:10452000794800889E49488001209E4908706BE7C1
:104530006AE70020010000202080032070BD38B50C
:1045400004000D00A0886988491E884206DA207B95
:1045500040280FD0BE48FEF7BDFB3AE0A08869882E
:10456000491E884206D1207B402803DBB848FEF76D
:10457000B1FB2EE0A188C148FEF7ACFB227BA1680D
:10458000A08800F081F9A08800F030F900F062F90D
:1045900001281BD1BA48FEF79DFB608800F0C0F8E7
:1045A00000280DD10220A872280000F05BF8B54861
:1045B000FEF790FB6420FDF715FE00F043FA08E0DB
:1045C00000F096F8CD48FEF785FB02E0280000F0E9
:1045D00049F831BD10B500239BB292B2934205D287
:1045E0009BB2C45C9BB2CC545B1CF5E710BD70B5AC
:1045F0000500C34C20788021490048436178401869
:104600002881A078802149004843E178401828801B
:104610002079802149004843617940186880A07959
:10462000A8728720205C8021490048438821615C72
:104630004018E88080222100C91D28000B30FDF7BA
:10464000FEFD87212800FDF7ACFDE988884201D1F5
:10465000012600E000263000C0B270BD0400FA055B
:104660000CED00E010B5A4B00400208980214900C1
:10467000FEF738FF69460870208980214900FEF75F
:1046800031FF68464170208880B2000A6946887010
:1046900020886946C870608880B2000A694608713F
:1046A0006088694648713E48807A694688718022F0
:1046B00094496846C01DFDF7C2FD87216846FDF795
:1046C00070FDE080E08880B2000A6946873108709A
:1046D000E0886946883108708948FEF769FF042838
:1046E00004D1892269468648FEF7F9FF24B010BD3F
:1046F00080B58C2200212A48FDF7AEFD2848FFF73F
:10470000B1FF01BD081300207812002044C2000848
:1047100070C0000884C0000884C100086810002030
:10472000F1B582B0784D68460089861E00243000BD
:10473000461E80B2002813D001226946200002F0F4
:10474000C0FE641C280080B2000AADB26946097838
:104750006940C9B2022251436C4A555A4540E6E7C6
:104760002800694D454001226946200002F0A9FE5B
:10477000641C684600788021490041430F000122F3
:104780006946200002F09DFE641C684600783F18D0
:10479000ADB2BFB2BD4201D1002000E00120FEBD9C
:1047A000F81000205613002098C0000880B502F0D1
:1047B0009BFD5748FFF71BFF5548807A00280AD019
:1047C000022807D00DD252480088002801D1FFF7F7
:1047D0008FFF08E007E08C2200214D48FDF73CFDEB
:1047E00001E0FFF785FF01BD30BD0008F0B5040012
:1047F000A4B220000821FEF775FE45490D18A4B2A9
:1048000020000821FEF76EFE41490818C67A0127EC
:10481000A4B220000821FEF765FE8F403743EF72F7
:10482000F0BD70B50400A4B220000821FEF75AFEC6
:1048300037490818C57A0126A4B220000821FEF7DE
:1048400051FE8E40354201D0012000E0002070BDB5
:10485000ACC0000810B500242D484088A4B28442A2
:1048600009D2200080B2FFF7DCFF002801D1002030
:1048700002E0641CF0E7012010BD000004BE000847
:1048800008BF0008C0C00008F8B504000E001500FD
:10489000A4B24027674372B6EDB22A003100380057
:1048A00002F01AFE62B6F1BD10B519480189194827
:1048B000FEF710FA164841881748FEF70BFA14481D
:1048C000817A1648FEF706FA114801881448FEF767
:1048D00001FA1448FEF7FEF90024A4B2802C08DA8D
:1048E000A4B20B480019C17A50A0FEF7F3F9641C7A
:1048F000F3E74FA0FEF7EEF910BD0000D4C00008AA
:1049000000F4000803110020FFFF00007CB3000842
:10491000F8100020E8C0000820BF000894C100087B
:10492000FCC0000810C1000800B589B041480078FB
:10493000694608763F48407806A948703D48807827
:1049400006A988703B48C07806A9C8703948007924
:1049500006A908713748407906A948713548807919
:1049600006A988713348C07906A9C8713148007A10
:1049700006A9087206A8C079059006A8007A0490D6
:1049800006A80079039006A84079029006A88079CD
:10499000019006A88078009006A8C3786846027E39
:1049A00006A841782448FEF795F92448007869461E
:1049B00008762248407806A948702048807806A9E1
:1049C00088701E48C07806A9C8701C48007906A9DE
:1049D00008711A48407906A948711848807906A9D3
:1049E00088711648C07906A9C8711448007A06A9CA
:1049F000087206A8C079059006A8007A049006A857
:104A00000079039006A84079029006A88079019069
:104A100006A88078009006A8C3786846027E06A89B
:104A200041780748FEF756F909B000BD202564001B
:104A30000D0A000044C20008E8BB00087CC300085F
:104A400018BC000880B572B6FFF7A8FC01BDFEE7F0
:104A500038B504000025CA2048490860532047495A
:104A6000086000F025F8002802D10020050019E0B8
:104A70004348006840218843414908604048006835
:104A8000216801433E480160A0683E4908603D48F6
:104A900000686168090401433A48016000F032F897
:104AA00001200500FF20354908602800C0B232BD52
:104AB00080B50020009000200021664A126852064E
:104AC0001CD40022D243634B1A60624A126840230E
:104AD0001A401100009A521C0092009A8023DB01B8
:104AE0009A4201D00029F0D05A4A1268520602D5E3
:104AF0000122100004E00022100001E00122100059
:104B0000C0B202BD70480068802188436E490860C9
:104B1000704780B50020009000200021184A1268DC
:104B2000920602D50122100026E0CA22134B1A6019
:104B30005322124B1A60474A1268A0239A43454BEE
:104B40001A60444A126820231A401100009A521C2D
:104B50000092009A80231B029A4201D00029F0D0D3
:104B60003C4A1268920602D50122100001E00022A0
:104B70001000FF22014B1A60C0B202BD2428004081
:104B80000828004010280040F1B50C00002700253F
:104B90000098002806D131480068400601D4002062
:104BA000E0700AE02D480068400604D5207800F047
:104BB0005FF9070001E00020E070009800280BD0AA
:104BC00020780004617809020143A0780843E17865
:104BD000090401430F0013E0207800F03DF90600BE
:104BE000607800F039F9F6B23104C0B206020E4323
:104BF000A07800F031F93043E178090401430F0057
:104C0000CA2015490860532013490860FFF750FF78
:104C1000002802D10020050015E079483840794984
:104C20000860FFF76FFF0D480068800609D4FFF7A2
:104C300070FF002802D10020050004E001200500DB
:104C400001E001200500FF20034908602800C0B2F0
:104C5000F2BD00000C280040242800400828004035
:104C60000021C1700021017000214170002181707C
:104C7000704770B505000C00002662480068604966
:104C800001400E003000000C8006800E20703000C5
:104C9000000A4006400E607030004006400EA070D2
:104CA0003000000C40210840E070002D0BD120782E
:104CB00000F0DEF82070607800F0DAF86070A0781C
:104CC00000F0D6F8A07070BD0C280040F1B50C00C3
:104CD000002700250098002807D16078C00604D579
:104CE0006078EF2101400A3161700098002807D0F8
:104CF000607800F0BDF80700A07800F0B9F8070070
:104D0000009800280BD0E078000461780902014384
:104D1000A07808432178490301430F0013E0E078AD
:104D200000F09AF80600607800F096F8F6B23104C8
:104D3000C0B206020E43A07800F08EF8304321780E
:104D4000490301430F00CA2031490860532030490C
:104D50000860FFF7ADFE002802D10020050015E035
:104D60002A48384028490860FFF7CCFE29480068E7
:104D7000800609D4FFF7CDFE002802D100200500EF
:104D800004E00120050001E001200500FF2020498A
:104D900008602800C0B2F2BD0121017001218170BC
:104DA000012141700021C170704770B505000C00F1
:104DB000002615480068154901400E003000000C1F
:104DC000E0703000000AC006C00E6070300080063F
:104DD000800EA0703000400B4007400F2070002D67
:104DE0000DD1E07800F044F8E070607800F040F811
:104DF0006070A07800F03CF8A0702078207070BD42
:104E00007F7F7F0000280040042800403FFFFF0014
:104E1000242800400828004081B0002200920D4A5A
:104E20000092009A04234343D2180092009A116022
:104E300001B0704781B0010000200090054800904B
:104E4000009804224A43801800900098006801B03E
:104E5000704700005028004000B50021C0B20A2869
:104E600002DB491C0A38F9E709010843C0B200BD5A
:104E700000210200D2B212090A235A43110000078E
:104E8000000F0818C0B270479D2102000AD002D45A
:104E9000491E9218FCD5C905100A1206524100D3CA
:104EA000012A4841704730B405004D400122D20725
:104EB00015404B180418240E30D01B0E34D0FF2C94
:104EC00036D0FF2B3CD0E4180002090210431143F6
:104ED000000A090A9446C2B24A43000AC3B24B43CD
:104EE000000A4843110A5B18190A12061B0C1A43E0
:104EF000120A091801D44918641E080A7F3C23DBF2
:104F0000FE2C08DAE4050906114363469941604125
:104F1000284330BC7047FF20C005F9E728001B0E6E
:104F2000FF2BF6D1D043F4E72800FF2CF1D1F9E7AD
:104F30004002F7D1FF2B01D14902F3D1E005E7E7A9
:104F4000D8054902E4D0EDE743020020641CDFD11C
:104F50005B129B1CDCD9D805DAE7012252054B18FD
:104F600050D2D3424DD25B0D4BD030B41C05A1437F
:104F700055082943D40AE41E1B195B0801D3001805
:104F800049411B059C466C19091B00184941001832
:104F90004941641900239202491B07D46D081DD2B0
:104FA000091B641900184941491BF7D56D080AD23D
:104FB0000919641B00184941491BEFD56D08F7D347
:104FC00001E0520817D0C01861419B1AAC4100188B
:104FD0004941801AA941F4D452080AD0C01AA1410B
:104FE0009B186C4100184941801AA941E9D4520824
:104FF000F4D15B1C6C415808E2071043610861441E
:1050000030BC70470020590DFBD0C943D342F8D8BB
:1050100002B502F0C1FA02BD10B51F480068401C7D
:105020001D4908601D480068401C1C490860FDF7C8
:105030009BF8002804D01A480068401C18490860F2
:10504000FEF7F0F9002807D014480468FEF7F4F9D9
:10505000844201D3FEF7B5F912480068401E114999
:105060000860002808D110480068401C0E490860FC
:10507000FA2080000B49086010BD0848006870479E
:1050800007480068704700B5054800680749FEF703
:105090002CFA0348016000BD281300200C130020E7
:1050A00014130020680200201013002060EA0000A2
:1050B000024801490860704700300040AAAA000079
:1050C000C0B24106490E014A11607047002C0040F1
:1050D00078B40A78002A08D114E05B1C1E78A64236
:1050E0000AD001E0002C0CD0401C04789442F9D185
:1050F000002806D003000D006D1C2C78002CECD18C
:1051000000E0002072BC7047FAB585B007001600B9
:10511000002B01D0002018603C0000E0641C2078C7
:10512000010009390529F9D32028F7D02D2801D00D
:105130002B2803D169460870641C02E02B206946C5
:105140000870002E42D4012E40D0252E3EDA012ECA
:105150000ADB102E16D12078302813D16078202158
:10516000014378290ED10AE02078302801D00A26A0
:1051700008E0607820210143782902D11026A41C80
:1051800000E00826049400E0641C20783028FBD05E
:105190000025039428A06946487008E002956946F6
:1051A0004978401AC0B2019075432D18641C2178CB
:1051B000080041381A2800D2203132001EA002F027
:1051C000F1F90028EAD10498A04205D105980028F9
:1051D00000D00760002028E00398201A20A1895DF4
:1051E000401A17D4012808DA0198281A05D331008B
:1051F000FEF77BF9029988420CD002F0DFF92221F8
:1052000001600698002802D0012006990860002558
:10521000ED4305E0684600782D2801D1684205007D
:105220000598002800D00460280007B0F0BD80B5C4
:105230000023FFF769FF02BD303132333435363792
:1052400038396162636465666768696A6B6C6D6E44
:105250006F707172737475767778797A00000000D8
:1052600000002115110E0D0C0B0B0A0A0909090982
:1052700009080808080808080707070707070707B5
:105280000707070707000000FDB588B00D000446BA
:1052900008A802F09BF901900A99002902D0002188
:1052A0000A9A116008218843012835D10220009014
:1052B00004AB2A000899200002F01EFA040004D171
:1052C0000020002102AA03C21DE00598FEF7CEFDD2
:1052D00002AA03C2022C16DB04AD0835641E02A824
:1052E00003C80022354BFEF7DBFD06000F002868DF
:1052F000FEF7BCFD32003B0002F0E4FA02AA03C252
:105300002D1D641EEBD10A9B09980499421802A82E
:1053100003C802F0F5FB45E0022836D1009004AB4B
:105320002A000899200002F0C7FC040004D10020E4
:10533000002102AA03C21DE00598FEF797FD02AA0C
:1053400003C2022C16DB04AD0835641E02A803C894
:1053500000221B4BFEF7A4FD06000F002868FEF795
:1053600085FD32003B0002F0ADFA02AA03C22D1DFA
:10537000641EEBD1049902A802F0AEFD0A9B099AC3
:1053800002A803C802F0BCFB0CE0032802D10020F5
:105390000C4907E0042803D10020C043410801E084
:1053A0000020002102AA03C20198000702A803C836
:1053B00002D58022120651400BB0F0BD65CDCD4123
:1053C0000000B0410000F07F80B50023FFF75CFFD4
:1053D00004BDFEE7B7480068704780B5B64840880E
:1053E000002805D000F00FF8B4A0FDF773FC02E030
:1053F000B348FDF76FFC1E21B24800F0C6FE002046
:10540000AD49488001BDFEB5002000900024002574
:10541000212069460872012700266846007AF6B204
:1054200086424ED2F6B208207043A7490858019030
:1054300000200400F6B208207043A3490858007801
:105440000500EDB2002D09D0641CE4B2F6B20820CC
:1054500070439D490858005D0500F2E701200700F0
:105460000020C0B2E4B2A0420CD2C0B20199095CE3
:10547000C0B2944A125C914202D00020070001E0C1
:10548000401CEEE7E4B2002C01D100200700FFB27F
:10549000002F14D0FFF79EFF0090B0A0FDF71AFC7C
:1054A000F6B2082046438848801940688047FFF7D5
:1054B00091FF0099411AAA48FDF70CFC01E0761C07
:1054C000ABE7FFB2002F0ED17E4800780D2807D041
:1054D0007C4800780A2803D0C748FDF7FBFB02E0B0
:1054E0009EA0FDF7F7FBF7BDF3B581B000240025C2
:1054F00000200400A4B21E2C72D2A4B27148005D38
:1055000020286BD16D1C6846007AEDB2854265D1CA
:10551000A4B26C480019807820280BD0A4B2694846
:10552000001980780D2805D0A4B26648001980784B
:105530000A2808D1A4B263480019407800F012F993
:105540000199087049E0A4B25E480019C07820288B
:105550000BD0A4B25B480019C0780D2805D0A4B2C6
:1055600058480019C0780A2813D1A4B25548001928
:10557000407800F0F7F807000A204743A4B25148EA
:105580000019807800F0EEF80600F6190198067010
:1055900023E0A4B24B480019407800F0E3F86946D4
:1055A0000870684669460978642251430170A4B2C4
:1055B00044480019807800F0D5F807000A204743D6
:1055C000A4B240480019C07800F0CCF80600684644
:1055D0000078C01936180198067004E0641C89E749
:1055E000002001990870F7BDF3B582B000200024B7
:1055F00000216A4611700021012200236D466B7064
:1056000000230025280080B21E2850D280B22D4DE4
:105610002D5C202D49D1641C6D462D7BE4B2AC423B
:1056200043D180B2274D2D186D1C80B2254E3618FF
:10563000761C01962E78202E0BD06D1C2E780D2E08
:1056400002D02E780A2E00D103E0019EAE1B062E5A
:10565000F0DB6F46BC462F00019EBE1B67463E70C6
:10566000019E36782D2E01D1012633006E46367804
:105670003400DBB2E4B2A3420ED26D1E6E462F7828
:10568000303F777089B292B26E4676785643891968
:105690000A267243641EECE7DBB2012B01D100261F
:1056A000711A00266F463E7001E0401CABE7029D78
:1056B0002980FFBD2813002034130020433E000042
:1056C00020BE00085812002058B70008F2B50100AB
:1056D0000022002400200B0000252A0092B21E2A7E
:1056E00039D292B2C84DAD5C202D32D1641C6D46CA
:1056F0002D78E4B2AC422CD192B2C34DAD186D7886
:10570000202D01D0012500E0002592B2BE4EB61832
:1057100076780D2E01D0012600E0002692B2BA4F15
:10572000BF187F780A2F01D0012700E00027EDB2D3
:10573000F6B22E40FFB23740002F08D092B2B24DE1
:10574000AD186D781D705B1C521C401CD4E7C0B2B4
:1057500002E0521CC2E7C0B2F2BD00000D0A000018
:1057600038BF000800B50100C9B2302906DBC9B254
:105770003A2903DA30390800C0B214E0C9B261290D
:1057800006DBC9B2672903DA57390800C0B20AE05C
:10579000C9B2412906DBC9B2472903DA3739080003
:1057A000C0B200E0002000BD80B50020694608704E
:1057B00001216846FFF798FE6846007840B202F083
:1057C0003DFC01BD80B50020694608700020694697
:1057D000487001216846FFF787FE00A9491C68460A
:1057E000007803F0F6F96846427868460178B048D8
:1057F000FDF770FA01BD00003CBE000880B5002036
:105800006946087000206946887000206946487023
:1058100001216846FFF768FE022100A8801CFFF7FF
:1058200063FE684681786846007803F0C9F900A9EC
:10583000491C6846007803F0CCF96846427868460F
:1058400001789B48FDF746FA01BD10B582B00020F3
:1058500069464870002069460870012100A8401C74
:10586000FFF742FE02216846FFF73EFE6846447895
:1058700068460078E4B2A04219D3E4B220000A21BD
:10588000FDF730FE002905D1E4B2002C02D0C7A0FC
:10589000FDF720FA00A9891C2000C0B203F099F995
:1058A00068468178C248FDF715FA641CE0E7BFA09E
:1058B000FDF710FA13BD80B501216846FFF714FE0D
:1058C00068460178BB4803F02FFD01BD80B500207C
:1058D00003F0E4FD01BD704780B503F0A7FA01BDF8
:1058E00080B500206946087001216846FFF7FCFD7D
:1058F00068460078B049087003F098FA01BD1FB5FA
:105900000020009001A80C21FCF708FD012101A84E
:10591000FFF7DCFE6846007930280AD101A84078FC
:10592000782806D11022002101A803F069FF0400A5
:1059300003E001A8FCF7FCFC040069462000C0B2AB
:10594000FCF741F8009AE4B22100D348FDF7C2F910
:105950001FBD30B587B001216846FFF7B7FE0221B1
:1059600003A8FFF7B3FE6846007830280AD16846DE
:105970004078782806D110220021684603F040FFC5
:10598000050003E06846FCF7D3FC05006846007B91
:1059900030280AD103A84078782806D110220021A7
:1059A00003A803F02DFF040003E003A8FCF7C0FCEC
:1059B000040021002800C0B2FBF7D6FF07B030BDBD
:1059C00080B501216846FFF70FFE6846008880B267
:1059D000000A694688706846008800A9891C4870DA
:1059E000E521EA20FBF7B6FE022200A9891C02206D
:1059F000FBF7E0FEDC21EA20FBF7ACFE68460088FE
:105A0000D549088001BD00005812002030B583B090
:105A100001216846FFF75AFE6846FCF78FFC00221A
:105A2000B24BFEF7FFFAFCF78FFC0400FE2189055C
:105A3000200003F0EAFE0100802000064440200020
:105A400003F06EFF04002000002103F0BFFF09D027
:105A50008E21C9052000FFF726FA03F0C7FF80B2A8
:105A600005000CE08E21C9052000FFF71CFA8F21EC
:105A7000C90503F0CAFE03F0B9FF80B20500280093
:105A8000001269460870280069464870E521EA203E
:105A9000FBF760FE022269460520FBF78BFEDC2146
:105AA000EA20FBF757FE2800AB49088137BD00000C
:105AB000A4C10008F0B583B001216846FFF706FED7
:105AC0006846FCF73BFC0022884BFEF7ABFAFCF77C
:105AD0003BFC07003800802109064840FEF728FCFF
:105AE000B9A20CCAFEF79EFA03F09EFFFCF72CFC4D
:105AF00004002000FEF71CFCB9A20CCAFEF792FAC3
:105B00000022B94BFEF7CCF9B8A20CCAFEF78AFA0C
:105B1000FCF71AFC04002000002103F0FDFF04D272
:105B2000200003F063FF050007E08721C90520007E
:105B300003F06BFE03F05AFF0500E521EA20FBF7B6
:105B400009FE2900C9B20720FBF704FEDC21EA2088
:105B5000FBF700FE804885723800FEF7E9FBBAA229
:105B60000CCAFEF79DF9FCF7EFFB040020000021B2
:105B700003F0D2FF08D28E21C9052000FFF793F968
:105B800003F034FF06000BE08E21C9052000FFF76B
:105B90008AF98F21C90503F038FE03F027FF0600BC
:105BA000B6B231000920FBF7DFFEF7BD0D0A000099
:105BB00014C40008D00F00205E13002038B56946D9
:105BC0002420FBF700FF0098634908616946222002
:105BD000FBF7F9FE0098604948615F480088FEF7CE
:105BE0004FF90022904BFEF75BF904000D005A4874
:105BF0004088FEF745F922002B00FEF751F902001C
:105C00000B008AA003C8FEF70DFAFCF79DFB524972
:105C1000886100205049088600204F49C862002052
:105C20004D49888301204C49087169462620FBF7BD
:105C3000CAFE0098002803D50098C143491C009172
:105C40000098FEF71DF900227A4BFEF729F9002291
:105C5000794BFEF7E7F9FEF747FA80B28021490059
:105C6000FDF740FC3C49C8803B48C1880320FBF756
:105C70007BFE72490520FBF7A6FE71490720FBF762
:105C8000A2FEFBF729FF6F48FDF792FC0021704848
:105C9000FDF77CFD31BD0000B4C1000800B589B03E
:105CA0002D48C06A08902C48008E07902A48808BA7
:105CB000069029488069FEF73BFB04900591264831
:105CC000406903902448006902902348808901902C
:105CD0002148807A0090204803891F48C2881E48C6
:105CE0000188B748FCF7F6FF09B000BD0000594035
:105CF00080B5FBF709FE4B4801880220FBF734FE14
:105D000000204849C88000204649088100204549B4
:105D100088720020434988810020424908610020A0
:105D20004049486100203F49886100203D498883FF
:105D300000203C49088600203A49C86201BD80B570
:105D40000221A048FDF79FFF01BD80B502219D48BB
:105D5000FDF796FF01BD0000C000002080B50121C5
:105D60006846FFF7C1FB68460078002804D102218D
:105D70009448FDF785FF07E002219248FDF783FF75
:105D800068460078FBF75EFC684601788E48FCF7B1
:105D9000A1FF01BD10B5FCF747F9FCF7CCF90400F1
:105DA0002048C36A1F48028E21008848FCF792FFF2
:105DB00010BD10B5FCF76AF90400E4B22100844874
:105DC000FCF788FF10BD000083C0CAA145B6FB3FA9
:105DD00080B5FCF77CF87FA0FCF77CFF01BD0000DC
:105DE0007B14AE47E17A943F008066404AD8124D5A
:105DF000FB21094080B5FCF7ABF80A48838C0948C1
:105E0000026A0848C18B7448FCF764FF01BD10B5F5
:105E1000FBF732FC0400A4B221007048FCF75AFFE3
:105E200010BD0000C00000200000F04170140854B4
:105E30009F5AC6430000104000408F40C800002019
:105E4000CA00002000F8000899BB96900F7AE23F44
:105E5000A401002080B5FEF727FD01BD80B5FEF747
:105E600047FC01BD10B504002000FCF759FA217869
:105E7000302904D16178782901D1801EA41C002129
:105E800089B280B281421BD289B2625C302A03DBC4
:105E900089B2625C3A2A11DB89B2625C612A03DB57
:105EA00089B2625C672A09DB89B2625C412A03DB42
:105EB00089B2625C472A01DB080001E0491CDFE788
:105EC00080B210BDF0B583B005000F006846002118
:105ED00001602800FFF7C6FF694688806846808811
:105EE0000221FDF7FFFA002905D1684680880221CA
:105EF000FDF7F8FA05E0684680880221FDF7F2FA1E
:105F0000401C06002878302803D16878782800D112
:105F1000AD1C0024A4B2B6B2B44227D2A4B2002C65
:105F20000ED1684680880221FDF7DCFA012907D1ED
:105F3000002069460870A4B2285D694648700CE0EC
:105F4000A4B202206043285C69460870A4B2022013
:105F5000604328184078694648701022002168463E
:105F600003F04EFCA4B23855641CD3E7F7BD00B56E
:105F700087B0684600210160012101A8FFF7A6FB58
:105F800068460079302815D101A84078782811D1C9
:105F900001A8807B00280DD101A8FFF763FF0C2822
:105FA00004D10F4901A8FFF78DFF06E00D48FCF76B
:105FB00091FE02E00C48FCF78DFE07B000BD00002A
:105FC000ECBA000800040048ECC200086CBB0008F2
:105FD000C4C100086F6B000050BF0008F8C2000881
:105FE00034020020D4C1000858BE000880B500F07B
:105FF00001F801BD38B56421324800F0C6F8002030
:106000000500ADB2042D0ED2ADB2142068432D4967
:1060100008180400ADB2142068432A490818143047
:1060200060606D1CEDE7ADB2142068432549081887
:1060300004000020606023482349086031BDFFB59B
:1060400083B0002603F07CFD06001F4800680700AF
:106050001D480068002804D01B48006840681A49A1
:106060000860300003F070FD002F04D15A2006991B
:106070000870002023E0039800900398040004981F
:10608000401E0190002005000198854206D2059827
:1060900024180098046000946D1CF5E70020009916
:1060A0000860039838600398786004983861049811
:1060B000F8600598B860002006990870380007B0AD
:1060C000F0BD0000F411002024130020F8B50400F6
:1060D0000F00002603F034FD0600206900280DD0D3
:1060E00060680500286860602069401E20613000FB
:1060F00003F02AFD00203870280005E0300003F08E
:1061000023FD5D2038700020F2BD70B505000C0045
:10611000002603F015FD06002869E968884204D3CB
:10612000300003F011FD5E2009E0686820606C60BB
:106130002869401C2861300003F006FD002070BD76
:1061400070B505000C00002603F0FAFC0600286874
:10615000206068686060A868A060E868E0602869FE
:106160002061300003F0F0FCE0682169401A6061B2
:10617000002070BD00B592B2002A05D00B780370E4
:10618000491C401C521EF6E700BD00B589B200292B
:1061900004D000220270401C491EF7E700BDFEE754
:1061A00018B583B000240294002902D10094019410
:1061B00002E00090491E019103AB6946064878440D
:1061C000163000F0C7F80099002900D00C700028A4
:1061D00000D4029804B010BD7B3C000000B50168FB
:1061E000464A0A400260002101600021416000210E
:1061F00081600021C1604249884206D14149096855
:106200000F220A433F490A6029E03F49884206D1EC
:106210003C490968F0220A433A490A601FE03B49B9
:10622000884207D137490968F02212010A433549EB
:106230000A6014E03649884207D132490968F022E1
:1062400012020A432F490A6009E03249884206D106
:106250002C490968F02212030A432A490A6000BD4A
:1062600030B40023026813001A002B4B13401A00AD
:106270008B680C6A1C430B6923434C691C438B6974
:106280002343CC691C434D6A25438B6A2B4313433C
:106290000360CA6842600A6882604A68C26030BCB3
:1062A000704700B5C9B2002904D002680123134326
:1062B000036003E00268114B1340036000BD00B5AA
:1062C000D2B2002A03D003680B43036002E00368E4
:1062D0008B43036000BD00B5010000200F4A126827
:1062E0000A40002A02D00122100001E00022100022
:1062F000C0B200BD0349086070470000FEFF000007
:1063000008000240040002401C000240300002402D
:1063100044000240580002400F80FFFF000002408E
:1063200038B505000C006C60FEF7A7FE286031BD93
:1063300010B50400FEF7A1FE2168401A401C6168F8
:10634000814201D2012000E00020C0B210BDFEE772
:106350007047FEE7F1B5A4B015001F00069104AC2C
:106360000020E0620AE00698249A904706900028F0
:1063700000D103E3E06A401CE0626D1C297800292B
:1063800001D1E06AFCE22529EDD100206061A06125
:10639000E06120626062A06202E001000120084327
:1063A0006D1C29782029F8D023290ED02B2904D060
:1063B0002D2907D030290BD00DE001000220084321
:1063C00080B2EDE701000420F9E701000820F6E7BC
:1063D00001001020F3E72A290ED139680A1D3A601E
:1063E00009686163002905D54A42626301000420FF
:1063F000084380B26D1C12E0002161630AE0626B09
:10640000734B9A4205D093009A18520051183039B4
:1064100061636D1C29780A00303A0A2AEFD3297883
:106420002E2903D00021C94321631DE06D1C29786A
:106430002A2906D139680A1D3A60096821636D1C52
:1064400012E0002121630AE0226B614B9A4205D0E1
:1064500093009A1852005118303921636D1C297825
:106460000A00303A0A2AEFD320872978574878441F
:10647000FF305B3003F06BFB002801D028786D1CE7
:106480003A216054605C682804D12978682901D1D8
:10649000622005E06C2806D128786C2803D1712091
:1064A0003A2160546D1C15A820612A781000253807
:1064B0002AD01C3800D1CEE0001F022800D8CAE044
:1064C000133800D1F2E0093800D1C4E0801E00D1B9
:1064D00089E1401E00D132E1401E022800D8BAE016
:1064E000001F00D12BE1401F00D18AE0401E00D1E7
:1064F000DCE0401E23D0C01E0BD0801E00D1D5E0B2
:10650000C01E00D1D2E078E16069411C61612521A3
:1065100070E13868011D39600068E060226B002A74
:1065200002D5FBF7FDFE08E0002101F03BF8002852
:1065300002D0E168401A00E0206BA0616AE138688F
:10654000011D396002680020C0430021104004AAE8
:1065500003C215A8E0603C2204A803C802AB03C331
:1065600002A803C8002904D1002802D1206B00280A
:106570001CD0521E02A803C80007000F3030C0B262
:106580003A2800DB273015A98B18187002A803C819
:1065900000090E073043090902AE03C602A803C86A
:1065A00001D1002802D0E0689842E2D33C20801A52
:1065B000A06115A98918E160216B88420CDA081ADC
:1065C0002062208F03490140218723E18C5A00007B
:1065D000FFFFFF7FEFFF0000002900D41AE1382100
:1065E000615C14220A40102A00D013E1616B6269D9
:1065F000891A226A891A0A1A012A00DA0AE1226231
:1066000008E13A20205C622817D0682806D06A2862
:106610000BD06C2818D0712807D015E03868011D00
:106620003960E16A00680180F4E03A68101D386062
:10663000E06AC117126803C2ECE03868011D3960D6
:10664000E16A00680170E5E03868011D3960E16ABF
:1066500000680160DEE03868C01D072188433860AB
:1066600001000831396003C804AB03C3002904D515
:106670006069411C61612D210DE0208F810704D5E7
:106680006069411C61612B2105E0C00705D5606987
:10669000411C6161202115AB1954606915A90818C6
:1066A000E060110004A800F007FAB3E03A20235C90
:1066B0006C2B01D138680FE0712B01D1386802E0F2
:1066C0006A2B386808D1C01D072188433860010053
:1066D0000831396003C803E0011D396000680021FA
:1066E00004AE03C6682B03D104A803C880B20BE034
:1066F000622B03D104A803C8C0B205E0742B01D0FB
:106700007A2B04D104A803C8002104AB03C33820AA
:10671000205C00075ED504A803C8002901D1002829
:1067200058D020201043782854D16069302115AB0F
:106730001954401C411C616115A90A544AE03A20D1
:10674000205C62280CD0682810D06A281AD06C28E7
:1067500022D0712816D074281ED07A280CD01BE0C5
:106760003868011D3960006840B219E03868011DC1
:106770003960006800B213E03868011D39600068B4
:1067800000210EE03868C01D0721884338600100F1
:106790000831396003C804E03868011D39600068B9
:1067A000C11704AB03C3002904DA6069411C6161AD
:1067B0002D210DE0208F810704D56069411C6161A6
:1067C0002B2105E0C00705D56069411C61612021CE
:1067D00015AB1954606915A90818E060110004A8E8
:1067E00000F0D0F816E06069411C616139680A1D4B
:1067F0003A60096815AA11540CE06069411C616196
:10680000252115AB1954002A04D06069411C61612F
:1068100015A90A546D1C606B6169401A216A401AFF
:10682000A169401A616A401AE169401AA16A401AD6
:1068300014903820205C400711D42020694608714C
:10684000002609E0012301AA04A9249800F0B3FC62
:10685000002800D092E0761C14988642F2DB66692C
:1068600015A800900FE0009801780698249A9047A8
:106870000690002800D181E0E06A401CE0620098A8
:10688000401C0090761E002EEDD130206946087124
:10689000206A009008E0012301AA04A9249800F0CE
:1068A0008AFC00286AD1761C00988642F3DBA66930
:1068B000E06800900EE0009801780698249A9047CE
:1068C000069000285AD0E06A401CE0620098401C04
:1068D0000090761E002EEED1302069460871606A65
:1068E000009008E0012301AA04A9249800F063FCA9
:1068F000002843D1761C00988642F3DBE669A06944
:10690000E168081800900EE0009801780698249A33
:1069100090470690002831D0E06A401CE062009861
:10692000401C0090761E002EEED130206946087182
:10693000A06A009008E0012301AA04A9249800F0AD
:106940003AFC00281AD1761C00988642F3DB3820E6
:10695000205C400700D411E520206946087100261C
:1069600000E0761C1498864200DB07E5012301AAAB
:1069700004A9249800F01FFC0028F2D00020C04396
:1069800025B0F0BDF3B583B0006900906846027C85
:106990006F2A01D1082406E020211143782901D073
:1069A0000A2400E010243C25039803C806000F00C9
:1069B000642A01D0692A07D1002905DA00200021C4
:1069C000801BB94106000F00002F12D1002E10D1FC
:1069D0000398006B00280CD1082C3CD10398383068
:1069E0000078000737D53B25302000993B310870EF
:1069F00031E06D1E0195300039002200E31703F0ED
:106A0000B0F83032D2B23A2A03DB6846007C513803
:106A1000121800994A55300039002200E31703F09C
:106A2000A0F806000F0001D1002E05D00398C06821
:106A3000009949198842DCD3082C0CD103983830CE
:106A40000078000707D50098405D302803D06D1E00
:106A50003020009948553C20401B039988610099DB
:106A60004919039AD1600399096B884209DA081A17
:106A7000039908620398008F0E490140039801872B
:106A800015E0002913D503993831097814220A40FA
:106A9000102A0CD10399496B039A5269891A039AF7
:106AA000126A891A0D1A012D01DB0398056205B0DF
:106AB000F0BD0000EFFF0000F3B591B007AD03C8D3
:106AC00002AA03C212A80078202101430091612983
:106AD0000BD01198006B002801D5062003E004D1EB
